:100000000C94B4000C94D1000C94D1000C94D10049
:100010000C94D1000C94D1000C94D1000C94D1001C
:100020000C94D1000C94D1000C94D1000C94D1000C
:100030000C94D1000C94D1000C94D1000C94D100FC
:100040000C9493010C94D1000C94D1000C94D10029
:100050000C94F2010C94D1000C94D1000C94D100BA
:100060000C94D1000C94D100FF38283718FF2734A6
:100070000839FFFF17FF240D78FF2936FFFFFF35F2
:1000800007FFFFFF14137D126869FFFF196A26FF3F
:10009000FF3AFFFFFFFF250E7776FFFFFF6BFFFFA5
:1000A00004FF03FF6D6C020158FF59FFFFFFFF3390
:1000B000090A5AFF160BFF0CFFFF2A2BFFFFFFFF59
:1000C000FFFFFFFF15FF7E7F67FF66FFFFFFFFFF5C
:1000D000FFFF5BFFFFFFFFFF7475FFFF73FFFFFF75
:1000E0005D5E5CFF725F71004847FF4449FFFF1D82
:1000F000FF46FF45FFFF232279FF7AFF4AFFFF1EDD
:1001000006FF7BFFFFFF7C11FFFFFF431AFF1B1C55
:10011000FF3BFFFFFFFFFF0FFFFFFFFFFFFFFFFFA3
:1001200005FFFFFF6EFF6F105754FF2D5655FF322E
:10013000FFFFFF2EFFFFFF21FF53FF2C4BFFFF1F91
:10014000FFFFFFFFFFFFFF20643D6542FF3EFF31E1
:10015000633CFF2FFFFFFF304D524E414C3FFF40AD
:1001600062514F50616070FF11241FBECFEFD8E085
:10017000DEBFCDBF12E0A0E0B1E0E6E1FBE102C0EE
:1001800005900D92A237B107D9F727E0A2E7B2E0B8
:1001900001C01D92AD3EB207E1F70E9473060C94B8
:1001A000890D0C9400000091B30603950093B306EB
:1001B000E091C806F091C906C191CDBFD191DEBFD3
:1001C0000F910FBFFF91EF91DF91CF91BF91AF9151
:1001D0009F918F917F916F915F914F913F912F915F
:1001E0001F910F91FF90EF90DF90CF90BF90AF9055
:1001F0009F908F907F906F905F904F903F902F9047
:100200001F900F9008950F921F922F923F924F923E
:100210005F926F927F928F929F92AF92BF92CF9296
:10022000DF92EF92FF920F931F932F933F934F9381
:100230005F936F937F938F939F93AF93BF93CF936E
:10024000DF93EF93FF930FB70F93E091D606F091F2
:10025000D706CDB7C193DEB7D1930091B80600930E
:10026000B906E091C806F091C906E093D606F0936E
:10027000D706C191CDBFD191DEBF0F910FBFFF91C6
:10028000EF91DF91CF91BF91AF919F918F917F912E
:100290006F915F914F913F912F911F910F91FF901F
:1002A000EF90DF90CF90BF90AF909F908F907F9016
:1002B0006F905F904F903F902F901F900F900895F8
:1002C0000091B8060093B906E091C806F091C906FE
:1002D000E093D606F093D706C191CDBFD191DEBF92
:1002E0000F910FBFFF91EF91DF91CF91BF91AF9130
:1002F0009F918F917F916F915F914F913F912F913E
:100300001F910F91FF90EF90DF90CF90BF90AF9033
:100310009F908F907F906F905F904F903F902F9025
:100320001F900F9008950F921F922F923F924F921D
:100330005F926F927F928F929F92AF92BF92CF9275
:10034000DF92EF92FF920F931F932F933F934F9360
:100350005F936F937F938F939F93AF93BF93CF934D
:10036000DF93EF93FF930FB700680F930091D506CB
:1003700003950093D506013041F4CDB7DEB7E09187
:10038000D606F091D706C193D1930DEE06BD7894B1
:100390000E94E90800000E94D3070F910FBFFF9150
:1003A000EF91DF91CF91BF91AF919F918F917F910D
:1003B0006F915F914F913F912F911F910F91FF90FE
:1003C000EF90DF90CF90BF90AF909F908F907F90F5
:1003D0006F905F904F903F902F901F900F900895D7
:1003E000A895089508950E94F50AE0EFF4E0A0E3CF
:1003F000B4E080E395E0119211921D921D92E817EE
:10040000F907C9F72AE041E356E060E070E082E3D3
:1004100095E00E94EA0924E141EB55E060E070E0DC
:1004200081ED95E00E94EA0980E991E00E94D60AF8
:1004300064E071E080912E0490912F040E94600985
:1004400080E991E00E94D60A69E271E080912E0471
:1004500090912F040E9460092FE04DE254E060E08B
:1004600070E08BE492E00E94EA092BE04FEE54E04A
:1004700060E070E087E293E00E94EA091092BC0617
:100480001092BD061092BE061092BF0688EC90E056
:100490000E94D60AF3CFCF93DF93CDB7DEB7A397F1
:1004A0000FB6F894DEBF0FBECDBF8DE089838A837F
:1004B0008DE48B8385E48C8381E48D8383E58E8357
:1004C00083E28F838AE38A8780E28B878C878D879C
:1004D0008E876894AA24A5F80F2EFFED9F2EF02D8D
:1004E000712C812C0F2EF9E1CF2EDD24D394F02D29
:1004F0000F2EFAE0EF2EF12CF02D0F2EFDECBF2E7B
:10050000F02DA886A986AF86A88AA98A9A8A1B8A0E
:1005100086B1E9B1E07F8F70E82BF0E0E859FF4F3A
:10052000E491EF3FA9F0EC9D9001ED9D300D112479
:100530003695279536952795ABE7B4E10E94540D83
:100540008C0116950795109373020093720202C0F6
:10055000072D182DC8012BE0EEE4F1E0DE015996DD
:1005600001900D922A95E1F79E01215F3F4F2F5F89
:100570003F4FB7010E941E0DCB010097C1F7F90153
:100580009801ADECBCEC0E94540D9695879596951C
:100590008795969587959C01220F331F880F991F89
:1005A000880F991F880F991F820F931FD801A81BCE
:1005B000B90B89E190E08C0F9D1FA80FB91F8C919A
:1005C00082939801ADECBCEC0E94540D8C01169501
:1005D000079516950795169507950115110581F64E
:1005E000409174024F5F842F90E09E01285F3F4F3F
:1005F0002F5F3F4FB7010E941E0DCB010097C1F73F
:10060000F9014B9D812D1124869586958695982F0D
:10061000990F292F220F220F920F491BA9E1B0E059
:10062000AC0FBD1FA40FB11D9C919293482F811157
:10063000E8CFBE016F5F7F4F80912E0490912F0411
:100640000E94600984E690E00E94D60A5ACFCF93B8
:10065000DF93CDB7DEB7AE970FB6F894DEBF0FBE0F
:10066000CDBF8BE0EEE4F1E0DE01119601900D923A
:100670008A95E1F78DE08C878AE08D8721E42E87CB
:1006800083E48F8784E5888B9AE3998B80E28D8B56
:1006900030E53E8B2F8B23E5288F998F8D8F1E8E13
:1006A00084E190E00E94D60A8E010C5D1F4F302E2F
:1006B000212E0F2EFAE0AF2EB12CF02D88E290E023
:1006C0000E94D60A80E28A8B8B8B8C8B8A8F8B8FD1
:1006D0008C8F83B18770F82E82E0F8120CC0809165
:1006E00074028F3190F58F5F8093740288E290E0FE
:1006F0000E94D60A2AC091E0F9120CC080917402BF
:100700008823C1F181508093740288E290E00E94B6
:10071000D60A30C0A4E0FA1218C02091740230E06A
:100720008091720290917302220F331FF901E05100
:10073000FB4F91838083F901E05DFB4F91838083C0
:1007400088E290E00E94D60A2AC0B6E0FB1212C0EE
:10075000E0917402F0E0EE0FFF1FE051FB4F80913B
:100760007202909173029183808388E290E00E94EC
:10077000D60ADFC0E5E0FE1212C0E0917402F0E09C
:10078000EE0FFF1FE05DFB4F8091720290917302AC
:100790009183808388E290E00E94D60ACAC0F7E085
:1007A000FF12C7C062E071E080912E0490912F0487
:1007B0000E94600988EC90E00E94D60A0F2EF0EFAC
:1007C000CF2EF4E0DF2EF02D0F2EF0E36F2EF5E0AC
:1007D0007F2EF02DEE24E394F12C6894882485F884
:1007E0000F2EFBE05F2EF02D0F2EFDEC9F2EF02D37
:1007F0000F2EFDE34F2EF02D8B8A8C8A8D8A1E8A58
:100800004E2DEEE4F1E0A32DB22D852D01900D9239
:100810008A95E1F79701FE0173963196ADECBCEC39
:100820000E94540D9C01369527953695279536954F
:1008300027952115310589F7499D812D112486952C
:1008400086958695982F990F292F220F220F920FA8
:10085000491BD801A40FB11D9C919293482F81117F
:10086000EBCF4E8A8F8A888E898E8A8ED6014D91E3
:100870005D916D019A01FE0178963196ADECBCEC6C
:100880000E94540D9C0136952795369527953695EF
:1008900027952115310589F79A01ADECBCEC0E9432
:1008A000540D9695879596958795969587959C0175
:1008B000220F331F880F991F880F991F880F991FC8
:1008C000820F931FDA01A81BB90BA00FB11F8C91E7
:1008D00082939A01ADECBCEC0E94540DAC0156958C
:1008E0004795569547955695479541155105A1F65B
:1008F0001B8EBE01645F7F4F80912E0490912F0468
:100900000E94600985E090E00E94D60ABFEFEB1AD2
:10091000FB0AC614D70409F06FCF60E071E0809144
:100920002E0490912F040E94600988EC90E00E94B0
:10093000D60AE0907402F12CF701EE0FFF1FE05190
:10094000FB4F0190F081E02DCF019E012E5E3F4FC5
:100950002F5F3F4FB5010E941E0DCB010097C1F7DD
:10096000A9019F01ADECBCEC0E94540D96958795B2
:1009700096958795969587959C01220F331F880F32
:10098000991F880F991F880F991F820F931FDF01EE
:10099000A81BB90B81E090E08C0F9D1FA80FB91F19
:1009A0008C91DA018E93AD019F01ADECBCEC0E94FD
:1009B000540DFC01F695E795F695E795F695E795C4
:1009C000309779F6F701EE0FFF1FE05DFB4F0190C6
:1009D000F081E02DCF019E01265E3F4F2F5F3F4FFC
:1009E000B5010E941E0DCB010097C1F7A9019F011F
:1009F000ADECBCEC0E94540D969587959695879525
:100A0000969587959C01220F331F880F991F880F99
:100A1000991F880F991F820F931FDF01A81BB90B25
:100A200081E090E08C0F9D1FA80FB91F8C91DA0117
:100A30008E93AD019F01ADECBCEC0E94540DFC0106
:100A4000F695E795F695E795F695E795309779F65B
:100A5000BE01645F7F4F80912E0490912F040E940D
:100A600060092CCE00E010E0D0E0CFE30F2EFAE9D1
:100A70008F2EF02D0F2EF9E99F2EF02D0F2EF9E17C
:100A8000AF2EF02D6894BB24B6F8412C512C612C6C
:100A90000F2EFFE37F2EF02D0F2EFDEC2F2EF02DCD
:100AA0000F2EFCEC3F2EF02D0DC00DEC1CECDCEC01
:100AB000CDE3812C912C6894AA24A7F80F2EFFE394
:100AC000BF2EF02D2D9A282D392D4A2D5B2D60E05B
:100AD00070E080E89FE30E94D60B6B017C01202F21
:100AE000312F4D2F5C2F0E94BB0C20E030E048E4FA
:100AF00053E40E94BB0C0E943E0CCB010E94D60A1C
:100B00002D98202F312F4D2F5C2F60E070E080E872
:100B10009FE30E94710B9B01AC01C701B6010E94CB
:100B2000BB0C20E030E048E453E40E94BB0C0E9480
:100B30003E0CCB010E94D60A8091AA039091AB0390
:100B40000E942F09009709F4BDCFFC0180818130FC
:100B5000C9F008F4AACF823009F0B4CF042D152DC6
:100B6000D62DC72D0F2EFAE98F2EF02D0F2EF9E975
:100B70009F2EF02D0F2EF9E1AF2EF02D6894BB249F
:100B8000B6F8A0CF042D152DD62DC72D822C932C71
:100B90000F2EFCECAF2EF02D0F2EFEE3BF2EF02D0E
:100BA00091CFCF93DF93CDB7DEB769970FB6F894A7
:100BB000DEBF0FBECDBF0F2EF1ECCF2ED12CF02D0E
:100BC000612C712C0F2EFEEFAF2EF02D689488242F
:100BD00087F80F2EF0EC9F2EF02D0F2EF6ECEF2E57
:100BE000F12CF02D85E090E00E94D60A80912E0431
:100BF00090912F040E942F09009709F46FC0BC0147
:100C0000CE0102960E94820DF6018081866080836B
:100C10008A81882309F462C0062D172DB12C8D30EE
:100C2000C9F4C8010196E2E0F0E0EC0FFD1FE80F07
:100C3000F91F20812D3071F4E2E0F0E0EC0FFD1F90
:100C4000E00FF11FA082E2E0F0E0EC0FFD1FE80FE3
:100C5000F91F8082E2E0F0E0EC0FFD1FE00FF11FD2
:100C600080818D30C9F4C8010196E2E0F0E0EC0F1C
:100C7000FD1FE80FF91F20812A3071F4E2E0F0E057
:100C8000EC0FFD1FE00FF11FA082E2E0F0E0EC0F9F
:100C9000FD1FE80FF91F9082AE014F5F5F4F61E0CB
:100CA00070E080913005909131050E949F092C9A47
:100CB000E2E0F0E0EC0FFD1FE00FF11F8081F70193
:100CC00080832C98B3940B2D10E0E2E0F0E0EC0F61
:100CD000FD1FE00FF11F80818111A1CFF6018081FE
:100CE000897F80837FCF0E949D060E94540A0E94C4
:100CF000CD0680E090E00E9443099093AB0380937F
:100D0000AA0380E090E00E94430990932F0480930F
:100D10002E0481E090E00E94820990933105809337
:100D2000300520E041EB56E060E070E083EF91E0B9
:100D30000E94EA090E945E08FFCFF8940E94F00129
:100D400084B7877F84BFE0E6F0E08081886180839C
:100D500010822D982C98259A249A87B1807F87B984
:100D60008AB18F708AB9209A219A229A83E084BD31
:100D70008DE085BD82E187BDEEE6F0E08081816097
:100D80008083E4E6F0E080818F7D8083E1ECF0E019
:100D90008081897F8083789408951092C50087E6CA
:100DA0008093C40088E18093C1008EE08093C200EC
:100DB0000895FA018083319790833197108231979B
:100DC00010823197108231971082319710823197BB
:100DD00010823197108231971082319710823197AB
:100DE000108231971082319710823197108231979B
:100DF000108231971082319710823197108231978B
:100E0000108231971082319710823197108231977A
:100E10001082319710823197108231976083319719
:100E200070833197108231971082319710823197F9
:100E300010823197108231971082319780E8808339
:100E4000CA0183970895089508950895F8947894B1
:100E5000FDCF0F931F93CF93DF93FC010585E02F08
:100E6000F0E0E659FE4F1081212F30E0D901A6595C
:100E7000BD4FDC91FC01E20FF31F5281A52FB0E0C2
:100E8000A659BE4FCC91AC2FB0E0A659BD4FAC9146
:100E9000110F110F110FC10FBA2FB0955B235283A1
:100EA000511105C05D2F50950523FC010587EC2FDE
:100EB000F0E0EE0FFF1FE759F84F0190F081E02DB1
:100EC0001386128617821682718760874095848503
:100ED0004823448741110BC08091CA06D82BD09378
:100EE000CA06F901E553F94F8081A82BA083DF9151
:100EF000CF911F910F910895CF93DF93E091D60684
:100F0000F091D70697838683A785B0E02089ED010D
:100F1000C553D94F422F409538813423388331113E
:100F200007C0318930954091CA0634233093CA06F0
:100F3000A80FB91F12963C911297232B12962C934F
:100F4000DC011D963C911D972189232B1D962C9326
:100F5000DF91CF910895E091D606F091D7062785CD
:100F6000DC01A20FB11D2089209512963C911297A9
:100F7000232312962C93211109C021892095DC018D
:100F80001D963C911D9723231D962C931486178242
:100F900016820895FC011586329680E011928F5FCB
:100FA0008830E1F70895F8948091D50681508093B8
:100FB000D5069091B206892BE1F5E091CA06F0E0E2
:100FC000E659FE4F80818093A903E82FF0E0E553B6
:100FD000F94FE081F0E0E659FE4F880F880F880F47
:100FE0009081890F8093B8069091B906891709F10D
:100FF000E82FF0E0EE0FFF1FE759F84F8081918155
:101000009093C9068093C8068091BC069091BD0656
:10101000A091BE06B091BF060196A11DB11D80939F
:10102000BC069093BD06A093BE06B093BF060E9477
:10103000600178940895F8949091D5068091B20655
:10104000892BD1F5E091CA06F0E0E659FE4F808188
:10105000E82FF0E0E553F94FE081F0E0E659FE4F6C
:10106000880F880F880F9081E82FE90FE093B8066A
:101070008091B906E81701F1F0E0EE0FFF1FE75984
:10108000F84F808191819093C9068093C806809122
:10109000BC069091BD06A091BE06B091BF06019618
:1010A000A11DB11D8093BC069093BD06A093BE0602
:1010B000B093BF060E940301789408958091B3060F
:1010C000811126C0E091CA06F0E0E659FE4FE081AA
:1010D000AE2FB0E0A553B94FAC91B0E0A659BE4FCA
:1010E000EE0FEE0FEE0F8C91E80FE093B806E09351
:1010F000B906F0E0EE0FFF1FE759F84F80819181AC
:101100009093C9068093C8069093D7068093D6061D
:101110000E94D3000895CF93DF93F894E091C40622
:10112000F091C506309709F44FC022813381309386
:10113000C5062093C40678947183608385871486DE
:1011400013861286C82FC695C695C695C787D0E068
:10115000C659DD4F9881918BC82FC770C687D0E0E4
:10116000C659DD4F9881908B1782168211861086A2
:10117000F894A82FB0E0AA0FBB1FA759B84FED9362
:10118000FC93A091BA06B091BB06B383A2831582EB
:101190001482109721F01596FC93EE931497F09318
:1011A000BB06E093BA069091CA068189892B809389
:1011B000CA06A785B0E0A553B94F9C918089892BB9
:1011C0008C93789480E002C0789486E4DF91CF918C
:1011D00008950E942507E091BA06F091BB06858527
:1011E0008F3339F14091CA0621E030E0F8948285CE
:1011F00093850097A9F0019793878287892B81F4C3
:10120000848583FD0BC08189A785B0E0A553B94FC4
:101210005C919089952B9C93482B02C03387228741
:101220000280F381E02D789485858F33F9F6409321
:10123000CA06F8948091D8069091D906A091DA0652
:10124000B091DB060196A11DB11D8093D806909345
:10125000D906A093DA06B093DB0678940895FC01D2
:10126000F8948485813021F0789480E090E00895AE
:10127000208131812115310511F01182108278947D
:10128000822F932F0895CF93DF93F894C091D306C4
:10129000D091D406209731F0288139813093D4063B
:1012A0002093D3067894209739F021E02C879983F6
:1012B0008883CE010E94CA07CE01DF91CF910895A5
:1012C000F894FC012485213019F0789481E0089588
:1012D000FC012585222341F042E00E9429077894F1
:1012E0000E941B0880E00895FC0120813181232B9E
:1012F00019F0789484E10895FC01718360837894F7
:1013000080E00895CF93DF93F894C091D306D091F5
:10131000D406209731F0288139813093D406209368
:10132000D3067894209739F023E02C879B878A870F
:10133000CE010E94CA07CE01DF91CF9108950F938D
:101340001F93CF93DF93EC018A01F8948C8583304F
:1013500021F0789481E0FA0180838A859B8500974B
:1013600039F001979B878A877894F80110822DC005
:101370008091D506882329F0789482E0F801808353
:1013800024C0E091D606F091D706848581608487D9
:1013900073876287CE010E947C0778940E941B08A5
:1013A000F894E091D606F091D706848580FF08C0B6
:1013B000CE010E94AB0778948AE0F801808305C0D3
:1013C000178216827894F8011082DF91CF911F91D5
:1013D0000F910895BF92CF92DF92EF92FF920F93F9
:1013E0001F93CF93DF93B22E2FE32B1508F44FC03A
:1013F000F894CB2DD0E0FE01EE0FFF1FE759F84F18
:101400000190F081E02DEF2B09F03EC0FE01EE0FC0
:10141000FF1FE759F84F21E030E0318320837894B3
:1014200020E030E00E94D906C12CD12CE12CF12C17
:1014300000E010E020E030E040E050E0BC018B2D07
:101440000E948B08811117C0F8948091C7068F5FA6
:101450008093C706CC0FDD1FC759D84F888199816B
:101460000E94230778948091B306882391F00E940C
:101470001B0880E00FC0F894CC0FDD1FC759D84F70
:1014800019821882789406C0789488E203C08AE2B0
:1014900001C080E0DF91CF911F910F91FF90EF90FD
:1014A000DF90CF90BF9008951092D8061092D90681
:1014B0001092DA061092DB061092D5061092B20650
:1014C0001092C7061092B3061092B4061092B50699
:1014D0001092B6061092B7061092BC061092BD0686
:1014E0001092BE061092BF061092CA06EBECF6E010
:1014F00083ED96E01192E817F907E1F71092B9062B
:101500001092B8061092C9061092C8061092D7061B
:101510001092D6061092BB061092BA06E9E6F7E0E2
:1015200089EE97E011921192E817F907D9F787E849
:1015300092E029E233E0FC01709791838083429628
:1015400082179307C1F710921A031092190385E7C7
:1015500092E09093C5068093C4068AEE96E028E652
:1015600037E0FC013E97918380830E9682179307A4
:10157000C1F710925B0710925A078CED96E090939A
:10158000D4068093D3062FE348EA53E060E070E08E
:1015900086E297E00E94EA092EE348E653E060E025
:1015A00070E08DE19BE00E94EA0908950097E1F068
:1015B000F894E091D606F091D706A785B0E0A55340
:1015C000B94F208920953C9123232C93211107C0EA
:1015D000218920953091CA0623232093CA06938738
:1015E000828778940E941B08089582E090E00E9410
:1015F000D60AF8941092B4061092B5061092B60668
:101600001092B706789488EC90E00E94D60AF8947D
:101610008091B4069091B506A091B606B091B70638
:101620008093C0069093C106A093C206B093C306F0
:1016300081E080936807789408958091680781110C
:1016400008C080E991E00E94D60A8091680788234B
:10165000C1F3C4E6F8942091B4063091B5064091E8
:10166000B6065091B7062093E9073093EA074093F6
:10167000EB075093EC071092B4061092B506109247
:10168000B6061092B7067894C090C006D090C106F6
:10169000E090C206F090C306C114D104E104F10445
:1016A000B9F0A4E6B0E00E94630DA70196010E9484
:1016B000320D8C2F821B85361CF0C093C6060AC0E3
:1016C00088231CF41092C60605C08093C60602C08B
:1016D0001092C6060E94240788EC90E00E94D60A69
:1016E000B9CF5058BB27AA270ED00BC1FCD030F081
:1016F00001D120F031F49F3F11F41EF4F1C00EF43B
:10170000E095E7FBE7C0E92F0DD180F3BA17620738
:1017100073078407950718F071F49EF525C10EF440
:10172000E0950B2EBA2FA02D0B01B90190010C01F1
:10173000CA01A0011124FF27591B99F0593F50F409
:10174000503E68F11A16F040A22F232F342F442761
:10175000585FF3CF469537952795A795F040539559
:10176000C9F77EF41F16BA0B620B730B840BBAF029
:101770009150A1F0FF0FBB1F661F771F881FC2F794
:101780000EC0BA0F621F731F841F48F487957795A8
:101790006795B795F7959E3F08F0B3CF9395880F5F
:1017A00008F09927EE0F9795879508950CD0A9C05A
:1017B000A1D040F098D030F021F45F3F19F08AC0FA
:1017C0005111D3C08DC0AED098F39923C9F35523DE
:1017D000B1F3951B550BBB27AA2762177307840724
:1017E00038F09F5F5F4F220F331F441FAA1FA9F3DA
:1017F00033D00E2E3AF0E0E830D091505040E695CC
:10180000001CCAF729D0FE2F27D0660F771F881F2C
:10181000BB1F261737074807AB07B0E809F0BB0B1B
:10182000802DBF01FF2793585F4F2AF09E3F51053F
:1018300068F050C09AC05F3FECF3983EDCF38695A9
:1018400077956795B795F7959F5FC9F7880F911DB5
:101850009695879597F90895E1E0660F771F881FA1
:10186000BB1F621773078407BA0720F0621B730B54
:10187000840BBA0BEE1F88F7E09508955BD088F0D3
:101880009F5790F0B92F9927B751A0F0D1F0660F6C
:10189000771F881F991F1AF0BA95C9F712C0B13087
:1018A00081F062D0B1E008955FC0672F782F88275C
:1018B000B85F39F0B93FCCF3869577956795B395C6
:1018C000D9F73EF490958095709561957F4F8F4F35
:1018D0009F4F089597F99F6780E870E060E0089552
:1018E0009FEF80EC089500240A9416161706180638
:1018F0000906089500240A94121613061406050614
:101900000895092E0394000C11F4882352F0BB0FA4
:1019100040F4BF2B11F460FF04C06F5F7F4F8F4F07
:101920009F4F089557FD9058440F551F59F05F3F42
:1019300071F04795880F97FB991F61F09F3F79F0F1
:1019400087950895121613061406551FF2CF469573
:10195000F1DF08C0161617061806991FF1CF8695F5
:101960007105610508940895E894BB2766277727D9
:10197000CB0197F908950BD0C4CFB5DF28F0BADFBB
:1019800018F0952309F0A6CFABCF1124EECFCADF14
:10199000A0F3959FD1F3950F50E0551F629FF00182
:1019A000729FBB27F00DB11D639FAA27F00DB11DDB
:1019B000AA1F649F6627B00DA11D661F829F222764
:1019C000B00DA11D621F739FB00DA11D621F839FEB
:1019D000A00D611D221F749F3327A00D611D231FC1
:1019E000849F600D211D822F762F6A2F11249F570F
:1019F00050408AF0E1F088234AF0EE0FFF1FBB1F32
:101A0000661F771F881F91505040A9F79E3F5105D0
:101A100070F060CFAACF5F3FECF3983EDCF3869581
:101A200077956795B795F795E7959F5FC1F7FE2B7B
:101A3000880F911D9695879597F9089597FB072E26
:101A400016F4009407D077FD09D00E946E0D07FCB4
:101A500005D03EF4909581959F4F089570956195BE
:101A60007F4F0895A1E21A2EAA1BBB1BFD010DC0DA
:101A7000AA1FBB1FEE1FFF1FA217B307E407F5073E
:101A800020F0A21BB30BE40BF50B661F771F881F1A
:101A9000991F1A9469F760957095809590959B01B0
:101AA000AC01BD01CF010895A29FB001B39FC00159
:101AB000A39F700D811D1124911DB29F700D811D7A
:101AC0001124911D08950E94540DA59F900DB49F5F
:101AD000900DA49F800D911D11240895AA1BBB1B7E
:101AE00051E107C0AA1FBB1FA617B70710F0A61B1E
:101AF000B70B881F991F5A95A9F780959095BC013F
:101B0000CD010895FB01DC0101900D920020E1F769
:061B10000895F894FFCFD8
:101B1600590162010D0D4175746F476F6E69204F53
:101B26004E20202020200D0A28632920323031360D
:101B36002020202020202020000D0D2020202020E5
:101B460020202020202020202020200D0A202020B8
:101B5600202020202020202020202020200030317E
:101B660032333435363738390045454545454545E0
:101B760045005353535353535300000001000200D2
:101B86000100030001000200010004000100020040
:101B9600010003000100020001000500010002002F
:101BA6000100030001000200010004000100020020
:101BB600010003000100020001000600010002000E
:101BC6000100030001000200010004000100020000
:101BD60001000300010002000100050001000200EF
:101BE60001000300010002000100040001000200E0
:101BF60001000300010002000100070001000200CD
:101C060001000300010002000100040001000200BF
:101C160001000300010002000100050001000200AE
:101C2600010003000100020001000400010002009F
:101C3600010003000100020001000600010002008D
:101C4600010003000100020001000400010002007F
:101C5600010003000100020001000500010002006E
:101C6600010003000100020001000400010002005F
:101C76000100030001000200010001020408102017
:021C860040809C
:040000050080010274
:00000001FF
