S01300004C6162325F53657269616C2E7372656311
S11300000C94B4000C94D1000C94D1000C94D10045
S11300100C94D1000C94D1000C94D1000C94D10018
S11300200C94D1000C94D1000C94D1000C94D10008
S11300300C94D1000C94D1000C94D1000C94D100F8
S11300400C9493010C94D1000C94D1000C94D10025
S11300500C94F2010C94D1000C94D1000C94D100B6
S11300600C94D1000C94D100FF38283718FF2734A2
S11300700839FFFF17FF240D78FF2936FFFFFF35EE
S113008007FFFFFF14137D126869FFFF196A26FF3B
S1130090FF3AFFFFFFFF250E7776FFFFFF6BFFFFA1
S11300A004FF03FF6D6C020158FF59FFFFFFFF338C
S11300B0090A5AFF160BFF0CFFFF2A2BFFFFFFFF55
S11300C0FFFFFFFF15FF7E7F67FF66FFFFFFFFFF58
S11300D0FFFF5BFFFFFFFFFF7475FFFF73FFFFFF71
S11300E05D5E5CFF725F71004847FF4449FFFF1D7E
S11300F0FF46FF45FFFF232279FF7AFF4AFFFF1ED9
S113010006FF7BFFFFFF7C11FFFFFF431AFF1B1C51
S1130110FF3BFFFFFFFFFF0FFFFFFFFFFFFFFFFF9F
S113012005FFFFFF6EFF6F105754FF2D5655FF322A
S1130130FFFFFF2EFFFFFF21FF53FF2C4BFFFF1F8D
S1130140FFFFFFFFFFFFFF20643D6542FF3EFF31DD
S1130150633CFF2FFFFFFF304D524E414C3FFF40A9
S113016062514F50616070FF11241FBECFEFD8E081
S1130170DEBFCDBF12E0A0E0B1E0E8EFF6E102C0DF
S113018005900D92AC38B107D9F727E0ACE8B2E09E
S113019001C01D92A438B207E1F70E9467040C94D1
S11301A07A0B0C94000000914A06039500934A06CA
S11301B0E0915F06F0916006C191CDBFD191DEBFA1
S11301C00F910FBFFF91EF91DF91CF91BF91AF914D
S11301D09F918F917F916F915F914F913F912F915B
S11301E01F910F91FF90EF90DF90CF90BF90AF9051
S11301F09F908F907F906F905F904F903F902F9043
S11302001F900F9008950F921F922F923F924F923A
S11302105F926F927F928F929F92AF92BF92CF9292
S1130220DF92EF92FF920F931F932F933F934F937D
S11302305F936F937F938F939F93AF93BF93CF936A
S1130240DF93EF93FF930FB70F93E0916D06F09157
S11302506E06CDB7C193DEB7D19300914F060093DC
S11302605006E0915F06F0916006E0936D06F0930E
S11302706E06C191CDBFD191DEBF0F910FBFFF912B
S1130280EF91DF91CF91BF91AF919F918F917F912A
S11302906F915F914F913F912F911F910F91FF901B
S11302A0EF90DF90CF90BF90AF909F908F907F9012
S11302B06F905F904F903F902F901F900F900895F4
S11302C000914F0600935006E0915F06F09160069E
S11302D0E0936D06F0936E06C191CDBFD191DEBF60
S11302E00F910FBFFF91EF91DF91CF91BF91AF912C
S11302F09F918F917F916F915F914F913F912F913A
S11303001F910F91FF90EF90DF90CF90BF90AF902F
S11303109F908F907F906F905F904F903F902F9021
S11303201F900F9008950F921F922F923F924F9219
S11303305F926F927F928F929F92AF92BF92CF9271
S1130340DF92EF92FF920F931F932F933F934F935C
S11303505F936F937F938F939F93AF93BF93CF9349
S1130360DF93EF93FF930FB700680F9300916C0630
S1130370039500936C06013041F4CDB7DEB7E091EC
S11303806D06F0916E06C193D1930DEE06BD78947F
S11303900E94DA0600000E94C4050F910FBFFF916E
S11303A0EF91DF91CF91BF91AF919F918F917F9109
S11303B06F915F914F913F912F911F910F91FF90FA
S11303C0EF90DF90CF90BF90AF909F908F907F90F1
S11303D06F905F904F903F902F901F900F900895D3
S11303E0A895089508950E94E6082AE048EC55E08F
S11303F060E070E08CE293E00E94DB0724E148E4D3
S113040055E060E070E085EC93E00E94DB0780E952
S113041091E00E94C70860E071E0809145049091EA
S113042046040E94510780E991E00E94C70865E2F2
S113043071E080914504909146040E9451072FE099
S113044044E454E060E070E08EE392E00E94DB0755
S11304502BE046EC54E060E070E08CEB92E00E940C
S1130460DB07109253061092540610925506109210
S1130470560688EC90E00E94C708F3CFCF93DF9331
S1130480CDB7DEB768970FB6F894DEBF0FBECDBF09
S11304900F2EFAE0EF2EF12CF02D0F2EFDE0CF2ED3
S11304A0F02D0F2EFAE0DF2EF02DA12CB12C0F2E03
S11304B0F0E39F2EF02D86B1E9B1E07F8F70E82B39
S11304C0F0E0E859FF4FE491E1110DC09982CA822E
S11304D0DB82BE016F5F7F4F80914504909146049B
S11304E00E94510739C02E2F30E021153105C9F182
S11304F0C9010A2D1B2DF8013196B7010E940F0B7B
S1130500CB01009711F08F01F6CFA1E0B0E0AC0F62
S1130510BD1FAE0FBF1FCC92A3E0B0E0AC0FBD1F58
S1130520A00FB11FDC92FF2304F50DC03197C90160
S1130530B7010E940F0B805DD8018E938D01262F89
S1130540372FFF239CF7BE016F5F7F4F80914504D7
S1130550909146040E94510788EC90E00E94C708DD
S1130560AACFC982DA82EA2DFB2D01E010E00C0F3C
S11305701D1F0E0F1F1FDACFCF93DF93CDB7DEB74A
S113058069970FB6F894DEBF0FBECDBF6894FF2401
S1130590F1F813E101E080ED97E00E94C708F982C9
S11305A0BE016F5F7F4F8091C1039091C2030E948F
S11305B05107EAE4F1E0DE011296812F01900D92D9
S11305C08A95E1F7BE016E5F7F4F8091450490915B
S11305D046040E94510780ED97E00E94C7080983F2
S11305E0BE016F5F7F4F8091C1039091C2030E944F
S11305F05107EDE5F1E0DE011296812F01900D9295
S11306008A95E1F7BE016E5F7F4F8091450490911A
S113061046040E94510780ED97E00E94C7081982A2
S1130620BE016F5F7F4F8091C1039091C2030E940E
S11306305107E0E7F1E0DE011296812F01900D925F
S11306408A95E1F7BE016E5F7F4F809145049091DA
S113065046040E9451079FCF0DEC1CECDCECCDE36B
S1130660812C912C6894AA24A7F80F2EFFE3BF2EA7
S1130670F02D412C512C612C0F2EFFE37F2EF02DF9
S11306800F2EFDEC2F2EF02D0F2EFCEC3F2EF02D17
S11306900DC00DEC1CECDCECCDE3812C912C6894AA
S11306A0AA24A7F80F2EFFE3BF2EF02D2D9A282D94
S11306B0392D4A2D5B2D60E070E080E89FE30E94B5
S11306C0C7096B017C01202F312F4D2F5C2F0E9415
S11306D0AC0A20E030E048E453E40E94AC0A0E94F3
S11306E02F0ACB010E94C7082D98202F312F4D2FA0
S11306F05C2F60E070E080E89FE30E9462099B0148
S1130700AC01C701B6010E94AC0A20E030E048E425
S113071053E40E94AC0A0E942F0ACB010E94C7082E
S11307208091C1039091C2030E942007009709F4AD
S1130730BDCFFC0180818130C9F008F4AACF82309A
S113074009F0B4CF042D152DD62DC72D0F2EFAE99F
S11307508F2EF02D0F2EF9E99F2EF02D0F2EF9E19B
S1130760AF2EF02D6894BB24B6F8A0CF042D152D20
S1130770D62DC72D822C932C0F2EFCECAF2EF02DF2
S11307800F2EFEE3BF2EF02D91CFCF93DF93CDB785
S1130790DEB769970FB6F894DEBF0FBECDBF0F2E3C
S11307A0F1ECCF2ED12CF02D612C712C0F2EFEEFFD
S11307B0AF2EF02D6894882487F80F2EF0EC9F2E2E
S11307C0F02D0F2EF6ECEF2EF12CF02D88EC90E0AE
S11307D00E94C70880914504909146040E94200716
S11307E0009709F46FC0BC01CE0102960E94730BFE
S11307F0F6018081866080838A81882309F462C03F
S1130800062D172DB12C8D30C9F4C8010196E2E0F4
S1130810F0E0EC0FFD1FE80FF91F20812D3071F47B
S1130820E2E0F0E0EC0FFD1FE00FF11FA082E2E038
S1130830F0E0EC0FFD1FE80FF91F8082E2E0F0E02A
S1130840EC0FFD1FE00FF11F80818D30C9F4C8014A
S11308500196E2E0F0E0EC0FFD1FE80FF91F2081A4
S11308602A3071F4E2E0F0E0EC0FFD1FE00FF11F1D
S1130870A082E2E0F0E0EC0FFD1FE80FF91F908288
S1130880AE014F5F5F4F61E070E08091C7049091CB
S1130890C8040E9490072C9AE2E0F0E0EC0FFD1FE0
S11308A0E00FF11F8081F70180832C98B3940B2D06
S11308B010E0E2E0F0E0EC0FFD1FE00FF11F80819B
S11308C08111A1CFF6018081897F80837FCF0E942F
S11308D091040E9445080E94BE0480E090E00E94BA
S11308E034079093C2038093C10380E090E00E9498
S11308F03407909346048093450481E090E00E947D
S113090073079093C8048093C70420E048E456E03A
S113091060E070E083EF91E00E94DB070E944F06E5
S1130920FFCFF8940E94F00184B7877F84BFE0E68C
S1130930F0E080818861808310822D982C98259A1C
S1130940249A87B1807F87B98AB18F708AB983E08E
S113095084BD8DE085BD82E187BDEEE6F0E0808157
S113096081608083E4E6F0E080818F7D8083E1EC28
S1130970F0E08081897F8083789408951092C50087
S113098087E68093C40088E18093C1008EE0809361
S1130990C2000895FA0180833197908331971082C1
S11309A031971082319710823197108231971082DB
S11309B031971082319710823197108231971082CB
S11309C031971082319710823197108231971082BB
S11309D031971082319710823197108231971082AB
S11309E0319710823197108231971082319710829B
S11309F0319710823197108231971082319760833A
S1130A003197708331971082319710823197108219
S1130A10319710823197108231971082319780E894
S1130A208083CA0183970895089508950895F894DA
S1130A307894FDCF0F931F93CF93DF93FC0105852B
S1130A40E02FF0E0ED57FE4F1081212F30E0D90167
S1130A50AD57BD4FDC91FC01E20FF31F5281A52F6E
S1130A60B0E0AD57BE4FCC91AC2FB0E0AD57BD4F09
S1130A70AC91110F110F110FC10FBA2FB0955B2359
S1130A805283511105C05D2F50950523FC01058744
S1130A90EC2FF0E0EE0FFF1FE050F94F0190F081D2
S1130AA0E02D13861286178216827187608740951F
S1130AB084854823448741110BC080916106D82B5B
S1130AC0D0936106F901EE59F94F8081A82BA083D8
S1130AD0DF91CF911F910F910895CF93DF93E09110
S1130AE06D06F0916E0697838683A785B0E0208912
S1130AF0ED01CE59D94F422F4095388134233883A4
S1130B00311107C031893095409161063423309307
S1130B106106A80FB91F12963C911297232B1296C7
S1130B202C93DC011D963C911D972189232B1D9646
S1130B302C93DF91CF910895E0916D06F0916E06AC
S1130B402785DC01A20FB11D2089209512963C91C6
S1130B501297232312962C93211109C021892095E1
S1130B60DC011D963C911D9723231D962C9314861E
S1130B70178216820895FC011586329680E0119240
S1130B808F5F8830E1F70895F89480916C06815066
S1130B9080936C0690914906892BE1F5E0916106FA
S1130BA0F0E0ED57FE4F80818093C003E82FF0E022
S1130BB0EE59F94FE081F0E0ED57FE4F880F880FB2
S1130BC0880F9081890F80934F0690915006891762
S1130BD009F1E82FF0E0EE0FFF1FE050F94F80819C
S1130BE091819093600680935F0680915306909163
S1130BF05406A0915506B09156060196A11DB11D4B
S1130C008093530690935406A0935506B0935606CA
S1130C100E94600178940895F89490916C068091F4
S1130C204906892BD1F5E0916106F0E0ED57FE4FBE
S1130C308081E82FF0E0EE59F94FE081F0E0ED57C4
S1130C40FE4F880F880F880F9081E82FE90FE093FB
S1130C504F0680915006E81701F1F0E0EE0FFF1FF8
S1130C60E050F94F808191819093600680935F06F4
S1130C708091530690915406A0915506B091560662
S1130C800196A11DB11D8093530690935406A09321
S1130C905506B09356060E940301789408958091F6
S1130CA04A06811126C0E0916106F0E0ED57FE4F3F
S1130CB0E081AE2FB0E0AE59B94FAC91B0E0AD5782
S1130CC0BE4FEE0FEE0FEE0F8C91E80FE0934F0640
S1130CD0E0935006F0E0EE0FFF1FE050F94F8081E3
S1130CE091819093600680935F0690936E06809343
S1130CF06D060E94D3000895CF93DF93F894E0919A
S1130D005B06F0915C06309709F44FC02281338171
S1130D1030935C0620935B067894718360838587A7
S1130D20148613861286C82FC695C695C695C7879E
S1130D30D0E0CD57DD4F9881918BC82FC770C687FF
S1130D40D0E0CD57DD4F9881908B178216821186A3
S1130D501086F894A82FB0E0AA0FBB1FA050B94F7B
S1130D60ED93FC93A0915106B0915206B383A283F4
S1130D7015821482109721F01596FC93EE93149724
S1130D80F0935206E0935106909161068189892B74
S1130D9080936106A785B0E0AE59B94F9C918089D4
S1130DA0892B8C93789480E002C0789486E4DF9158
S1130DB0CF9108950E941605E0915106F0915206D4
S1130DC085858F3339F14091610621E030E0F89454
S1130DD0828593850097A9F0019793878287892B51
S1130DE081F4848583FD0BC08189A785B0E0AE5969
S1130DF0B94F5C919089952B9C93482B02C0338703
S1130E0022870280F381E02D789485858F33F9F66B
S1130E1040936106F89480916F0690917006A091BA
S1130E207106B09172060196A11DB11D80936F06E3
S1130E3090937006A0937106B09372067894089507
S1130E40FC01F8948485813021F0789480E090E06E
S1130E500895208131812115310511F0118210820C
S1130E607894822F932F0895CF93DF93F894C091B1
S1130E706A06D0916B06209731F02881398130932E
S1130E806B0620936A067894209739F021E02C872A
S1130E9099838883CE010E94BB05CE01DF91CF9157
S1130EA00895F894FC012485213019F0789481E0A8
S1130EB00895FC012585222341F042E00E941A0591
S1130EC078940E940C0680E00895FC012081318111
S1130ED0232B19F0789484E10895FC0171836083D5
S1130EE0789480E00895CF93DF93F894C0916A06D4
S1130EF0D0916B06209731F02881398130936B06AD
S1130F0020936A067894209739F023E02C879B87F6
S1130F108A87CE010E94BB05CE01DF91CF9108954F
S1130F200F931F93CF93DF93EC018A01F8948C8580
S1130F30833021F0789481E0FA0180838A859B854F
S1130F40009739F001979B878A877894F80110827B
S1130F502DC080916C06882329F0789482E0F801F2
S1130F60808324C0E0916D06F0916E0684858160D3
S1130F70848773876287CE010E946D0578940E94EE
S1130F800C06F894E0916D06F0916E06848580FF5E
S1130F9008C0CE010E949C0578948AE0F801808301
S1130FA005C0178216827894F8011082DF91CF91E0
S1130FB01F910F910895BF92CF92DF92EF92FF920B
S1130FC00F931F93CF93DF93B22E2FE32B1508F4C7
S1130FD04FC0F894CB2DD0E0FE01EE0FFF1FE05080
S1130FE0F94F0190F081E02DEF2B09F03EC0FE0196
S1130FF0EE0FFF1FE050F94F21E030E031832083F2
S1131000789420E030E00E94CA04C12CD12CE12C59
S1131010F12C00E010E020E030E040E050E0BC01C2
S11310208B2D0E947C06811117C0F89480915E0676
S11310308F5F80935E06CC0FDD1FC050D94F88812F
S113104099810E941405789480914A06882391F02E
S11310500E940C0680E00FC0F894CC0FDD1FC05036
S1131060D94F19821882789406C0789488E203C014
S11310708AE201C080E0DF91CF911F910F91FF9030
S1131080EF90DF90CF90BF90089510926F0610926A
S11310907006109271061092720610926C061092ED
S11310A0490610925E0610924A0610924B06109260
S11310B04C0610924D0610924E0610925306109252
S11310C05406109255061092560610926106E2E6F6
S11310D0F6E08AE696E01192E817F907E1F7109234
S11310E0500610924F061092600610925F061092FE
S11310F06E0610926D061092520610925106E0E0B0
S1131100F7E080E897E011921192E817F907D9F710
S11311108EE992E020E433E0FC01709791838083B0
S1131120429682179307C1F710923103109230034D
S11311308CE892E090935C0680935B0681E896E0ED
S11311402FEF36E0FC013E97918380830E96821741
S11311509307C1F71092F2061092F10683E796E026
S113116090936B0680936A062FE34FEB53E060E0A5
S113117070E087E195E00E94DB072EE34FE753E040
S113118060E070E08EE099E00E94DB07089500972C
S1131190E1F0F894E0916D06F0916E06A785B0E059
S11311A0AE59B94F208920953C9123232C932111CA
S11311B007C021892095309161062323209361067D
S11311C09387828778940E940C06089582E090E0C9
S11311D00E94C708F89410924B0610924C06109285
S11311E04D0610924E06789488EC90E00E94C70851
S11311F0F89480914B0690914C06A0914D06B091C5
S11312004E068093570690935806A0935906B093C0
S11312105A0681E08093FF06789408958091FF0632
S1131220811108C080E991E00E94C7088091FF06FF
S11312308823C1F3C4E6F89420914B0630914C0600
S113124040914D0650914E062093800730938107BC
S1131250409382075093830710924B0610924C06DA
S113126010924D0610924E067894C0905706D09076
S11312705806E0905906F0905A06C114D104E104CE
S1131280F104B9F0A4E6B0E00E94540BA701960162
S11312900E94230B8C2F821B85361CF0C0935D06A5
S11312A00AC088231CF410925D0605C080935D0675
S11312B002C010925D060E94150588EC90E00E9421
S11312C0C708B9CF5058BB27AA270ED00BC1FCD0F2
S11312D030F001D120F031F49F3F11F41EF4F1C03D
S11312E00EF4E095E7FBE7C0E92F0DD180F3BA17C0
S11312F0620773078407950718F071F49EF525C1FA
S11313000EF4E0950B2EBA2FA02D0B01B90190011C
S11313100C01CA01A0011124FF27591B99F0593F60
S113132050F4503E68F11A16F040A22F232F342FA8
S11313304427585FF3CF469537952795A795F040F6
S11313405395C9F77EF41F16BA0B620B730B840B0B
S1131350BAF09150A1F0FF0FBB1F661F771F881FC3
S1131360C2F70EC0BA0F621F731F841F48F487951B
S113137077956795B795F7959E3F08F0B3CF93950A
S1131380880F08F09927EE0F9795879508950CD04C
S1131390A9C0A1D040F098D030F021F45F3F19F0FB
S11313A08AC05111D3C08DC0AED098F39923C9F32C
S11313B05523B1F3951B550BBB27AA276217730757
S11313C0840738F09F5F5F4F220F331F441FAA1F0B
S11313D0A9F333D00E2E3AF0E0E830D091505040CB
S11313E0E695001CCAF729D0FE2F27D0660F771F79
S11313F0881FBB1F261737074807AB07B0E809F05B
S1131400BB0B802DBF01FF2793585F4F2AF09E3FEF
S1131410510568F050C09AC05F3FECF3983EDCF38E
S1131420869577956795B795F7959F5FC9F7880F68
S1131430911D9695879597F90895E1E0660F771FBA
S1131440881FBB1F621773078407BA0720F0621B4B
S1131450730B840BBA0BEE1F88F7E09508955BD0ED
S113146088F09F5790F0B92F9927B751A0F0D1F089
S1131470660F771F881F991F1AF0BA95C9F712C013
S1131480B13081F062D0B1E008955FC0672F782F4A
S11314908827B85F39F0B93FCCF38695779567957F
S11314A0B395D9F73EF490958095709561957F4FEB
S11314B08F4F9F4F089597F99F6780E870E060E031
S11314C008959FEF80EC089500240A9416161706D9
S11314D018060906089500240A9412161306140621
S11314E005060895092E0394000C11F4882352F084
S11314F0BB0F40F4BF2B11F460FF04C06F5F7F4F3C
S11315008F4F9F4F089557FD9058440F551F59F022
S11315105F3F71F04795880F97FB991F61F09F3FDC
S113152079F087950895121613061406551FF2CF05
S11315304695F1DF08C0161617061806991FF1CF55
S113154086957105610508940895E894BB2766277C
S11315507727CB0197F908950BD0C4CFB5DF28F0D6
S1131560BADF18F0952309F0A6CFABCF1124EECF44
S1131570CADFA0F3959FD1F3950F50E0551F629FEA
S1131580F001729FBB27F00DB11D639FAA27F00DD8
S1131590B11DAA1F649F6627B00DA11D661F829FFF
S11315A02227B00DA11D621F739FB00DA11D621FE4
S11315B0839FA00D611D221F749F3327A00D611D01
S11315C0231F849F600D211D822F762F6A2F1124E3
S11315D09F5750408AF0E1F088234AF0EE0FFF1F36
S11315E0BB1F661F771F881F91505040A9F79E3F6D
S11315F0510570F060CFAACF5F3FECF3983EDCF367
S1131600869577956795B795F795E7959F5FC1F7A9
S1131610FE2B880F911D9695879597F9089597FB52
S1131620072E16F4009407D077FD09D00E945F0BB3
S113163007FC05D03EF4909581959F4F08957095D1
S113164061957F4F0895A1E21A2EAA1BBB1BFD01D1
S11316500DC0AA1FBB1FEE1FFF1FA217B307E4078D
S1131660F50720F0A21BB30BE40BF50B661F771FE5
S1131670881F991F1A9469F76095709580959095C5
S11316809B01AC01BD01CF010895A29FB001B39F9E
S1131690C001A39F700D811D1124911DB29F700D77
S11316A0811D1124911D08950E94450BA59F900D45
S11316B0B49F900DA49F800D911D11240895AA1B21
S11316C0BB1B51E107C0AA1FBB1FA617B70710F029
S11316D0A61BB70B881F991F5A95A9F7809590955B
S11316E0BC01CD010895FB01DC0101900D920020A5
S10B16F0E1F70895F894FFCF1F
S11316F80D0D4175746F476F6E69204F4E20202081
S113170820200D0A28632920323031362020202059
S113171820202020000D0D20202020202020202003
S1131728202020202020200D0A20202020202020D6
S1131738202020202020202020000D0D5B48695DFA
S1131748202020202020202020202020000D0D5B98
S11317584D65645D202020202020202020202000AA
S11317680D0D5B4E6F5D202020202020202020209E
S11317782020000000010002000100030001000213
S1131788000100040001000200010003000100023E
S1131798000100050001000200010003000100022D
S11317A8000100040001000200010003000100021E
S11317B8000100060001000200010003000100020C
S11317C800010004000100020001000300010002FE
S11317D800010005000100020001000300010002ED
S11317E800010004000100020001000300010002DE
S11317F800010007000100020001000300010002CB
S113180800010004000100020001000300010002BD
S113181800010005000100020001000300010002AC
S1131828000100040001000200010003000100029D
S1131838000100060001000200010003000100028B
S1131848000100040001000200010003000100027D
S1131858000100050001000200010003000100026C
S1131868000100040001000200010003000100025D
S10F187800010001020408102040800060
S9030000FC
