:100000000C9434000C9451000C9451000C94510049
:100010000C9451000C9451000C9451000C9451001C
:100020000C9451000C9451000C9451000C9451000C
:100030000C9451000C9451000C9451000C945100FC
:100040000C9413010C9451000C9451000C94510029
:100050000C9472010C9451000C9451000C945100BA
:100060000C9451000C94510011241FBECFEFD8E026
:10007000DEBFCDBF12E0A0E0B1E0E2E4F5E102C0F6
:1000800005900D92AE33B107D9F726E0AEE3B2E0AA
:1000900001C01D92A63BB207E1F70E9491030C94A8
:1000A0009F0A0C94000000917C05039500937C0549
:1000B000E0919105F0919205C191CDBFD191DEBF44
:1000C0000F910FBFFF91EF91DF91CF91BF91AF9152
:1000D0009F918F917F916F915F914F913F912F9160
:1000E0001F910F91FF90EF90DF90CF90BF90AF9056
:1000F0009F908F907F906F905F904F903F902F9048
:100100001F900F9008950F921F922F923F924F923F
:100110005F926F927F928F929F92AF92BF92CF9297
:10012000DF92EF92FF920F931F932F933F934F9382
:100130005F936F937F938F939F93AF93BF93CF936F
:10014000DF93EF93FF930FB70F93E0919F05F0912B
:10015000A005CDB7C193DEB7D1930091810500937F
:100160008205E0919105F0919205E0939F05F0934F
:10017000A005C191CDBFD191DEBF0F910FBFFF91FF
:10018000EF91DF91CF91BF91AF919F918F917F912F
:100190006F915F914F913F912F911F910F91FF9020
:1001A000EF90DF90CF90BF90AF909F908F907F9017
:1001B0006F905F904F903F902F901F900F900895F9
:1001C0000091810500938205E0919105F0919205DF
:1001D000E0939F05F093A005C191CDBFD191DEBF03
:1001E0000F910FBFFF91EF91DF91CF91BF91AF9131
:1001F0009F918F917F916F915F914F913F912F913F
:100200001F910F91FF90EF90DF90CF90BF90AF9034
:100210009F908F907F906F905F904F903F902F9026
:100220001F900F9008950F921F922F923F924F921E
:100230005F926F927F928F929F92AF92BF92CF9276
:10024000DF92EF92FF920F931F932F933F934F9361
:100250005F936F937F938F939F93AF93BF93CF934E
:10026000DF93EF93FF930FB700680F9300919E0504
:10027000039500939E05013041F4CDB7DEB7E091C0
:100280009F05F091A005C193D1930DEE06BD789422
:100290000E94FF0500000E94E9040F910FBFFF912B
:1002A000EF91DF91CF91BF91AF919F918F917F910E
:1002B0006F915F914F913F912F911F910F91FF90FF
:1002C000EF90DF90CF90BF90AF909F908F907F90F6
:1002D0006F905F904F903F902F901F900F900895D8
:1002E000A895089508950E940B082BE048E754E074
:1002F00060E070E08DE292E00E9400072AE04AE3AD
:1003000055E060E070E08FE992E00E9400072FE086
:1003100046EB53E060E070E086EC91E00E9400075D
:1003200024E14AEF54E060E070E088E393E00E944B
:10033000000760E071E08091F7039091F8030E945C
:10034000760680E991E00E94EC0764E071E080911C
:10035000F7039091F8030E94760680E991E00E94ED
:10036000EC076EE071E08091F7039091F8030E9432
:1003700076061092850510928605109287051092D8
:10038000880588EC90E00E94EC07F3CFCF93DF93D1
:10039000CDB7DEB768970FB6F894DEBF0FBECDBFFE
:1003A0000F2EFAE0EF2EF12CF02D0F2EFDE0AF2EE8
:1003B000F02D0F2EFAE0BF2EF02DC12CD12C86B1DE
:1003C000E9B1E07F8F70E82BF0E03097D9F1CF01F1
:1003D0000C2D1D2D98012F5F3F4FB7010E94340A4D
:1003E000CB01009711F08901F5CFA1E0B0E0AC0F8F
:1003F000BD1FA20FB31FAC92A3E0B0E0AC0FBD1FB6
:10040000A00FB11FBC9233230CF50EC0215031094F
:10041000CF01B7010E94340A805DF80182938F01F9
:10042000E62FF72F332394F7BE016F5F7F4F809144
:10043000F7039091F8030E94760688EC90E00E9402
:10044000EC07BDCFA982BA822C2D3D2D01E010E032
:100450000C0F1D1F020F131FD9CFCF93DF93CDB702
:10046000DEB769970FB6F894DEBF0FBECDBF6894B4
:10047000EE24E1F817E0FF24F39408E080ED97E024
:100480000E94EC07E982BE016F5F7F4F809173038A
:10049000909174030E947606EFE1F1E0DE0112967E
:1004A000812F01900D928A95E1F7BE016E5F7F4F1B
:1004B0008091F7039091F8030E94760680ED97E013
:1004C0000E94EC07F982BE016F5F7F4F809173033A
:1004D000909174030E947606E6E2F1E0DE01129646
:1004E000802F01900D928A95E1F7BE016E5F7F4FDC
:1004F0008091F7039091F8030E94760680ED97E0D3
:100500000E94EC071982BE016F5F7F4F80917303D9
:10051000909174030E947606EEE2F1E0DE011296FD
:10052000812F01900D928A95E1F7BE016E5F7F4F9A
:100530008091F7039091F8030E9476069FCF0DEC0F
:100540001CECDCECCDE3812C912C6894AA24A7F858
:100550000F2EFFE3BF2EF02D412C512C612C0F2EBE
:10056000FFE37F2EF02D0F2EFDEC2F2EF02D0F2E02
:10057000FCEC3F2EF02D0DC00DEC1CECDCECCDE3C3
:10058000812C912C6894AA24A7F80F2EFFE3BF2E8C
:10059000F02D2D9A282D392D4A2D5B2D60E070E02D
:1005A00080E89FE30E94EC086B017C01202F312F33
:1005B0004D2F5C2F0E94D10920E030E048E453E445
:1005C0000E94D1090E945409CB010E94EC072D988A
:1005D000202F312F4D2F5C2F60E070E080E89FE3EB
:1005E0000E9487089B01AC01C701B6010E94D10996
:1005F00020E030E048E453E40E94D1090E9454090D
:10060000CB010E94EC0780917303909174030E94C8
:100610004506009709F4BDCFFC0180818130C9F007
:1006200008F4AACF823009F0B4CF042D152DD62DB1
:10063000C72D0F2EFAE98F2EF02D0F2EF9E99F2EE0
:10064000F02D0F2EF9E1AF2EF02D6894BB24B6F8F3
:10065000A0CF042D152DD62DC72D822C932C0F2E17
:10066000FCECAF2EF02D0F2EFEE3BF2EF02D91CF20
:10067000CF93DF93CDB7DEB769970FB6F894DEBF9F
:100680000FBECDBF0F2EF1ECCF2ED12CF02D812C33
:10069000912CA12C0F2EF6ECEF2EF12CF02D88ECE6
:1006A00090E00E94EC078091F7039091F8030E947C
:1006B0004506009789F1BC01CE0102960E94980A76
:1006C000F6018081866080838A81882329F1082D44
:1006D000192DBA2CAE014F5F5F4F61E070E0809141
:1006E000790490917A040E94B5062C9AE2E0F0E039
:1006F000EC0FFD1FE00FF11F8081F70180832C9824
:10070000B3940B2D10E0E2E0F0E0EC0FFD1FE00FE2
:10071000F11F80818111DECFF6018081897F808386
:10072000BECF0E94BB030E946A070E94E30380E0E1
:1007300090E00E945906909374038093730380E0C5
:1007400090E00E9459069093F8038093F70381E0AC
:1007500090E00E94980690937A048093790420E0B8
:100760004AE755E060E070E083E791E00E9400070F
:100770000E947405FFCFF8940E94700184B7877FB0
:1007800084BFE0E6F0E080818861808310822D984C
:100790002C98259A249A87B1807F87B98AB18F7067
:1007A0008AB983E084BD8DE085BD82E187BDEEE638
:1007B000F0E0808181608083E4E6F0E080818F7DDD
:1007C0008083789408951092C50089E18093C400D5
:1007D00088E18093C1008EE08093C2000895FA0101
:1007E00080833197908331971082319710823197AF
:1007F0001082319710823197108231971082319791
:100800001082319710823197108231971082319780
:100810001082319710823197108231971082319770
:100820001082319710823197108231971082319760
:100830001082319710823197108231971082319750
:10084000108231971082319760833197708331978E
:100850001082319710823197108231971082319730
:10086000108231971082319780E88083CA01839784
:100870000895089508950895F8947894FDCF0F93FE
:100880001F93CF93DF93FC010585E02FF0E0EB5C35
:10089000FE4F1081212F30E0D901AB5CBD4FDC91C0
:1008A000FC01E20FF31F5281A52FB0E0AB5CBE4FFD
:1008B000CC91AC2FB0E0AB5CBD4FAC91110F110FE0
:1008C000110FC10FBA2FB0955B235283511105C090
:1008D0005D2F50950523FC010587EC2FF0E0EE0F0E
:1008E000FF1FEE5CF94F0190F081E02D1386128618
:1008F00017821682718760874095848548234487D4
:1009000041110BC080919305D82BD0939305F90129
:10091000EC56FA4F8081A82BA083DF91CF911F91D5
:100920000F910895CF93DF93E0919F05F091A0057B
:1009300097838683A785B0E02089ED01CC56DA4FF6
:10094000422F4095388134233883311107C03189D3
:10095000309540919305342330939305A80FB91F28
:1009600012963C911297232B12962C93DC011D9624
:100970003C911D972189232B1D962C93DF91CF91BC
:100980000895E0919F05F091A0052785DC01A20F55
:10099000B11D2089209512963C911297232312961F
:1009A0002C93211109C021892095DC011D963C91D1
:1009B0001D9723231D962C93148617821682089563
:1009C000FC011586329680E011928F5F8830E1F746
:1009D0000895F89480919E05815080939E05909192
:1009E0007B05892BE1F5E0919305F0E0EB5CFE4F90
:1009F000808180937203E82FF0E0EC56FA4FE0819B
:100A0000F0E0EB5CFE4F880F880F880F9081890F14
:100A10008093810590918205891709F1E82FF0E014
:100A2000EE0FFF1FEE5CF94F80819181909392054C
:100A3000809391058091850590918605A091870509
:100A4000B09188050196A11DB11D809385059093F5
:100A50008605A0938705B09388050E94E0007894EE
:100A60000895F89490919E0580917B05892BD1F58E
:100A7000E0919305F0E0EB5CFE4F8081E82FF0E021
:100A8000EC56FA4FE081F0E0EB5CFE4F880F880FE8
:100A9000880F9081E82FE90FE0938105809182050E
:100AA000E81701F1F0E0EE0FFF1FEE5CF94F8081D7
:100AB0009181909392058093910580918505909105
:100AC0008605A0918705B09188050196A11DB11DED
:100AD0008093850590938605A0938705B09388053C
:100AE0000E9483007894089580917C05811126C02E
:100AF000E0919305F0E0EB5CFE4FE081AE2FB0E0BB
:100B0000AC56BA4FAC91B0E0AB5CBE4FEE0FEE0FFF
:100B1000EE0F8C91E80FE0938105E0938205F0E001
:100B2000EE0FFF1FEE5CF94F80819181909392054B
:100B3000809391059093A00580939F050E94530098
:100B40000895CF93DF93F894E0918D05F0918E0591
:100B5000309709F44FC02281338130938E05209362
:100B60008D05789471836083858714861386128639
:100B7000C82FC695C695C695C787D0E0CB5CDD4F1C
:100B80009881918BC82FC770C687D0E0CB5CDD4FB2
:100B90009881908B1782168211861086F894A82F60
:100BA000B0E0AA0FBB1FAE5CB94FED93FC93A091D0
:100BB0008305B0918405B383A283158214821097B4
:100BC00021F01596FC93EE931497F0938405E0932F
:100BD0008305909193058189892B80939305A7853F
:100BE000B0E0AC56BA4F9C918089892B8C93789455
:100BF00080E002C0789486E4DF91CF9108950E944E
:100C00003B04E0918305F091840585858F3339F1AC
:100C10004091930521E030E0F89482859385009718
:100C2000A9F0019793878287892B81F4848583FDBE
:100C30000BC08189A785B0E0AC56BA4F5C91908912
:100C4000952B9C93482B02C0338722870280F38127
:100C5000E02D789485858F33F9F640939305F894C9
:100C60008091A1059091A205A091A305B091A40542
:100C70000196A11DB11D8093A1059093A205A0939B
:100C8000A305B093A40578940895FC01F894848595
:100C9000813021F0789480E090E0089520813181C6
:100CA0002115310511F0118210827894822F932F33
:100CB0000895CF93DF93F894C0919C05D0919D0542
:100CC000209731F02881398130939D0520939C0530
:100CD0007894209739F021E02C8799838883CE017E
:100CE0000E94E004CE01DF91CF910895F894FC01B9
:100CF0002485213019F0789481E00895FC01258540
:100D0000222341F042E00E943F0478940E94310582
:100D100080E00895FC0120813181232B19F0789423
:100D200084E10895FC0171836083789480E00895E4
:100D3000CF93DF93F894C0919C05D0919D052097A7
:100D400031F02881398130939D0520939C0578945A
:100D5000209739F023E02C879B878A87CE010E9459
:100D6000E004CE01DF91CF9108950F931F93CF93AD
:100D7000DF93EC018A01F8948C85833021F078941C
:100D800081E0FA0180838A859B85009739F001977D
:100D90009B878A877894F80110822DC080919E05E8
:100DA000882329F0789482E0F801808324C0E091C0
:100DB0009F05F091A0058485816084877387628791
:100DC000CE010E94920478940E943105F894E0913B
:100DD0009F05F091A005848580FF08C0CE010E9488
:100DE000C10478948AE0F801808305C017821682D6
:100DF0007894F8011082DF91CF911F910F9108959F
:100E0000BF92CF92DF92EF92FF920F931F93CF93F7
:100E1000DF93B22E2FE32B1508F44FC0F894CB2D9F
:100E2000D0E0FE01EE0FFF1FEE5CF94F0190F08164
:100E3000E02DEF2B09F03EC0FE01EE0FFF1FEE5C30
:100E4000F94F21E030E031832083789420E030E0D6
:100E50000E94EF03C12CD12CE12CF12C00E010E01A
:100E600020E030E040E050E0BC018B2D0E94A10565
:100E7000811117C0F894809190058F5F8093900541
:100E8000CC0FDD1FCE5CD94F888199810E94390437
:100E9000789480917C05882391F00E94310580E050
:100EA0000FC0F894CC0FDD1FCE5CD94F1982188289
:100EB000789406C0789488E203C08AE201C080E09A
:100EC000DF91CF911F910F91FF90EF90DF90CF9026
:100ED000BF9008951092A1051092A2051092A3054B
:100EE0001092A40510929E0510927B051092900519
:100EF00010927C0510927D0510927E0510927F0560
:100F00001092800510928505109286051092870533
:100F10001092880510929305E4E9F5E08CE995E0DC
:100F20001192E817F907E1F71092820510928105F6
:100F300010929205109291051092A00510929F05B3
:100F40001092840510928305E2E3F6E082EB96E0CE
:100F500011921192E817F907D9F780E592E022EF94
:100F600032E0FC0170979183808342968217930749
:100F7000C1F71092E3021092E2028EE392E09093A6
:100F80008E0580938D0583EB95E021E336E0FC012F
:100F90003E97918380830E9682179307C1F7109234
:100FA00024061092230685EA95E090939D05809390
:100FB0009C052FE341E753E060E070E08CE394E0B0
:100FC0000E9400072EE341E353E060E070E083E31A
:100FD00098E00E94000708950097E1F0F894E091EE
:100FE0009F05F091A005A785B0E0AC56BA4F2089C7
:100FF00020953C9123232C93211107C02189209512
:1010000030919305232320939305938782877894C7
:101010000E943105089582E090E00E94EC07F89468
:1010200010927D0510927E0510927F05109280052A
:10103000789488EC90E00E94EC07F89480917D050C
:1010400090917E05A0917F05B091800580938905E0
:1010500090938A05A0938B05B0938C0581E08093D3
:1010600031067894089580913106811108C080E995
:1010700091E00E94EC07809131068823C1F3C4E619
:10108000F89420917D0530917E0540917F05509127
:1010900080052093B2063093B3064093B406509374
:1010A000B50610927D0510927E0510927F05109274
:1010B00080057894C0908905D0908A05E0908B05D2
:1010C000F0908C05C114D104E104F104B9F0A4E658
:1010D000B0E00E94790AA70196010E94480A8C2F6D
:1010E000821B85361CF0C0938F050AC088231CF430
:1010F00010928F0505C080938F0502C010928F0556
:101100000E943A0488EC90E00E94EC07B9CF505856
:10111000BB27AA270ED00BC1FCD030F001D120F0A4
:1011200031F49F3F11F41EF4F1C00EF4E095E7FB9B
:10113000E7C0E92F0DD180F3BA1762077307840760
:10114000950718F071F49EF525C10EF4E0950B2E6D
:10115000BA2FA02D0B01B90190010C01CA01A00109
:101160001124FF27591B99F0593F50F4503E68F164
:101170001A16F040A22F232F342F4427585FF3CFA5
:10118000469537952795A795F0405395C9F77EF476
:101190001F16BA0B620B730B840BBAF09150A1F0BF
:1011A000FF0FBB1F661F771F881FC2F70EC0BA0F45
:1011B000621F731F841F48F4879577956795B795CD
:1011C000F7959E3F08F0B3CF9395880F08F09927C5
:1011D000EE0F9795879508950CD0A9C0A1D040F047
:1011E00098D030F021F45F3F19F08AC05111D3C07C
:1011F0008DC0AED098F39923C9F35523B1F3951B55
:10120000550BBB27AA2762177307840738F09F5F27
:101210005F4F220F331F441FAA1FA9F333D00E2E96
:101220003AF0E0E830D091505040E695001CCAF703
:1012300029D0FE2F27D0660F771F881FBB1F2617C8
:1012400037074807AB07B0E809F0BB0B802DBF019B
:10125000FF2793585F4F2AF09E3F510568F050C01A
:101260009AC05F3FECF3983EDCF3869577956795DF
:10127000B795F7959F5FC9F7880F911D969587954C
:1012800097F90895E1E0660F771F881FBB1F62176B
:1012900073078407BA0720F0621B730B840BBA0B29
:1012A000EE1F88F7E09508955BD088F09F5790F087
:1012B000B92F9927B751A0F0D1F0660F771F881F7B
:1012C000991F1AF0BA95C9F712C0B13081F062D0F7
:1012D000B1E008955FC0672F782F8827B85F39F095
:1012E000B93FCCF3869577956795B395D9F73EF4DA
:1012F00090958095709561957F4F8F4F9F4F089582
:1013000097F99F6780E870E060E008959FEF80ECB8
:10131000089500240A94161617061806090608955B
:1013200000240A9412161306140605060895092EC1
:101330000394000C11F4882352F0BB0F40F4BF2B30
:1013400011F460FF04C06F5F7F4F8F4F9F4F089570
:1013500057FD9058440F551F59F05F3F71F0479566
:10136000880F97FB991F61F09F3F79F0879508954B
:10137000121613061406551FF2CF4695F1DF08C06A
:10138000161617061806991FF1CF86957105610587
:1013900008940895E894BB2766277727CB0197F92F
:1013A00008950BD0C4CFB5DF28F0BADF18F095232D
:1013B00009F0A6CFABCF1124EECFCADFA0F3959FE3
:1013C000D1F3950F50E0551F629FF001729FBB272C
:1013D000F00DB11D639FAA27F00DB11DAA1F649FD8
:1013E0006627B00DA11D661F829F2227B00DA11D8B
:1013F000621F739FB00DA11D621F839FA00D611D11
:10140000221F749F3327A00D611D231F849F600D31
:10141000211D822F762F6A2F11249F5750408AF06A
:10142000E1F088234AF0EE0FFF1FBB1F661F771FF6
:10143000881F91505040A9F79E3F510570F060CF32
:10144000AACF5F3FECF3983EDCF3869577956795DE
:10145000B795F795E7959F5FC1F7FE2B880F911D14
:101460009695879597F9089597FB072E16F40094A3
:1014700007D077FD09D00E94840A07FC05D03EF40E
:10148000909581959F4F0895709561957F4F089530
:10149000A1E21A2EAA1BBB1BFD010DC0AA1FBB1F78
:1014A000EE1FFF1FA217B307E407F50720F0A21BEA
:1014B000B30BE40BF50B661F771F881F991F1A9457
:1014C00069F760957095809590959B01AC01BD0181
:1014D000CF010895A29FB001B39FC001A39F700DDB
:1014E000811D1124911DB29F700D811D1124911D2C
:1014F00008950E946A0AA59F900DB49F900DA49F25
:10150000800D911D11240895AA1BBB1B51E107C03A
:10151000AA1FBB1FA617B70710F0A61BB70B881F83
:10152000991F5A95A9F780959095BC01CD01089512
:10153000FB01DC0101900D920020E1F70895F89481
:02154000FFCFDB
:1015420024242400552C33383430302C4E000D0A1C
:1015520075434F53204F4E0D0A2D2D2D0D0A005B62
:1015620048695D0A0D005B4D65645D0A0D005B4EC6
:101572006F5D0A0D0000000100020001000300017E
:10158200000200010004000100020001000300014A
:101592000002000100050001000200010003000139
:1015A200000200010004000100020001000300012A
:1015B2000002000100060001000200010003000118
:1015C200000200010004000100020001000300010A
:1015D20000020001000500010002000100030001F9
:1015E20000020001000400010002000100030001EA
:1015F20000020001000700010002000100030001D7
:1016020000020001000400010002000100030001C9
:1016120000020001000500010002000100030001B8
:1016220000020001000400010002000100030001A9
:101632000002000100060001000200010003000197
:101642000002000100040001000200010003000189
:101652000002000100050001000200010003000178
:101662000002000100040001000200010003000169
:0E167200000200010001020408102040800068
:00000001FF
