S01300004C6162325F426C696E6B792E7372656308
S11300000C9434000C9451000C9451000C94510045
S11300100C9451000C9451000C9451000C94510018
S11300200C9451000C9451000C9451000C94510008
S11300300C9451000C9451000C9451000C945100F8
S11300400C9413010C9451000C9451000C94510025
S11300500C9472010C9451000C9451000C945100B6
S11300600C9451000C94510011241FBECFEFD8E022
S1130070DEBFCDBF12E0A0E0B1E0E8EEF0E102C0E7
S113008005900D92A830B107D9F726E0A8E0B2E0B8
S113009001C01D92A030B207E1F70E946D020C94DA
S11300A072080C9400000091C60403950093C604E2
S11300B0E091DB04F091DC04C191CDBFD191DEBFAE
S11300C00F910FBFFF91EF91DF91CF91BF91AF914E
S11300D09F918F917F916F915F914F913F912F915C
S11300E01F910F91FF90EF90DF90CF90BF90AF9052
S11300F09F908F907F906F905F904F903F902F9044
S11301001F900F9008950F921F922F923F924F923B
S11301105F926F927F928F929F92AF92BF92CF9293
S1130120DF92EF92FF920F931F932F933F934F937E
S11301305F936F937F938F939F93AF93BF93CF936B
S1130140DF93EF93FF930FB70F93E091E904F091DE
S1130150EA04CDB7C193DEB7D1930091CB040093E9
S1130160CC04E091DB04F091DC04E093E904F09327
S1130170EA04C191CDBFD191DEBF0F910FBFFF91B2
S1130180EF91DF91CF91BF91AF919F918F917F912B
S11301906F915F914F913F912F911F910F91FF901C
S11301A0EF90DF90CF90BF90AF909F908F907F9013
S11301B06F905F904F903F902F901F900F900895F5
S11301C00091CB040093CC04E091DB04F091DC04B7
S11301D0E093E904F093EA04C191CDBFD191DEBF6D
S11301E00F910FBFFF91EF91DF91CF91BF91AF912D
S11301F09F918F917F916F915F914F913F912F913B
S11302001F910F91FF90EF90DF90CF90BF90AF9030
S11302109F908F907F906F905F904F903F902F9022
S11302201F900F9008950F921F922F923F924F921A
S11302305F926F927F928F929F92AF92BF92CF9272
S1130240DF92EF92FF920F931F932F933F934F935D
S11302505F936F937F938F939F93AF93BF93CF934A
S1130260DF93EF93FF930FB700680F930091E804B7
S113027003950093E804013041F4CDB7DEB7E09173
S1130280E904F091EA04C193D19309ED06BD789491
S11302900E94690400000E9453030F910FBFFF9155
S11302A0EF91DF91CF91BF91AF919F918F917F910A
S11302B06F915F914F913F912F911F910F91FF90FB
S11302C0EF90DF90CF90BF90AF909F908F907F90F2
S11302D06F905F904F903F902F901F900F900895D4
S11302E0A895089508950E940D062BE042EC53E072
S11302F060E070E082EA91E00E9402052AE044E8AE
S113030054E060E070E084ED91E00E94020524E195
S113031044E454E060E070E08DE991E00E9402055D
S11303201092CF041092D0041092D1041092D204EF
S113033088EC90E00E94EE05F3CF88EC90E00E94F8
S1130340EE05FBCFCF93DF931F92CDB7DEB702E06C
S113035011E080ED97E00E94EE050983BE016F5F16
S11303607F4F80913D0390913E030E94E00480ED15
S113037097E00E94EE051983BE016F5F7F4F809165
S11303803D0390913E030E94E00480ED97E00E94BB
S1130390EE051982BE016F5F7F4F80913D039091FE
S11303A03E030E94E004D5CF0DEC1CECDCECCDE365
S11303B0812C912C6894AA24A7F80F2EFFE3BF2E5A
S11303C0F02D412C512C612C0F2EFFE37F2EF02DAC
S11303D00F2EFDEC2F2EF02D0F2EFCEC3F2EF02DCA
S11303E00DC00DEC1CECDCECCDE3812C912C68945D
S11303F0AA24A7F80F2EFFE3BF2EF02D2D9A282D47
S1130400392D4A2D5B2D60E070E080E89FE30E9467
S1130410EE066B017C01202F312F4D2F5C2F0E94A3
S1130420D30720E030E048E453E40E94D3070E945D
S11304305607CB010E94EE052D98202F312F4D2F0A
S11304405C2F60E070E080E89FE30E9489069B01D6
S1130450AC01C701B6010E94D30720E030E048E4B4
S113046053E40E94D3070E945607CB010E94EE0575
S113047080913D0390913E030E94AF04009709F4DC
S1130480BDCFFC0180818130C9F008F4AACF82304D
S113049009F0B4CF042D152DD62DC72D0F2EFAE952
S11304A08F2EF02D0F2EF9E99F2EF02D0F2EF9E14E
S11304B0AF2EF02D6894BB24B6F8A0CF042D152DD3
S11304C0D62DC72D822C932C0F2EFCECAF2EF02DA5
S11304D00F2EFEE3BF2EF02D91CF0E9485020E94C5
S11304E06C0580E090E00E94C30490933E038093E7
S11304F03D0320E044EC54E060E070E083E791E0E9
S11305000E9402050E94DE03FFCFF8940E9470014E
S113051084B7877F84BFE0E6F0E0808188618083D0
S113052010822D982C98259A249A83E084BD8DE01E
S113053085BD86E287BDEEE6F0E080818160808340
S1130540E4E6F0E080818F7D808378940895FA0159
S1130550808331979083319710823197108231973D
S1130560108231971082319710823197108231971F
S1130570108231971082319710823197108231970F
S113058010823197108231971082319710823197FF
S113059010823197108231971082319710823197EF
S11305A010823197108231971082319710823197DF
S11305B0108231971082319760833197708331971D
S11305C010823197108231971082319710823197BF
S11305D0108231971082319780E88083CA01839713
S11305E00895089508950895F8947894FDCF0F938D
S11305F01F93CF93DF93FC010585E02FF0E0E050DB
S1130600FF4F1081212F30E0D901A050BE4FDC9163
S1130610FC01E20FF31F5281A52FB0E0A050BF4FA1
S1130620CC91AC2FB0E0A050BE4FAC91110F110F84
S1130630110FC10FBA2FB0955B235283511105C01E
S11306405D2F50950523FC010587EC2FF0E0EE0F9C
S1130650FF1FE458FA4F0190F081E02D13861286B3
S11306601782168271876087409584854823448762
S113067041110BC08091DD04D82BD093DD04F90126
S1130680E252FB4F8081A82BA083DF91CF911F9171
S11306900F910895FC011586329680E011928F5FC8
S11306A08830E1F70895F8948091E80481508093AC
S11306B0E8049091C504892BE1F5E091DD04F0E0B4
S11306C0E050FF4F808180933C03E82FF0E0E2523A
S11306D0FB4FE081F0E0E050FF4F880F880F880F58
S11306E09081890F8093CB049091CC04891709F1F0
S11306F0E82FF0E0EE0FFF1FE458FA4F808191815C
S11307009093DC048093DB048091CF049091D00417
S1130710A091D104B091D2040196A11DB11D809382
S1130720CF049093D004A093D104B093D2040E9438
S1130730E00078940895F8949091E8048091C504B9
S1130740892BD1F5E091DD04F0E0E050FF4F80818A
S1130750E82FF0E0E252FB4FE081F0E0E050FF4F81
S1130760880F880F880F9081E82FE90FE093CB045E
S11307708091CC04E81701F1F0E0EE0FFF1FE4587C
S1130780FA4F808191819093DC048093DB04809103
S1130790CF049091D004A091D104B091D2040196D9
S11307A0A11DB11D8093CF049093D004A093D104D4
S11307B0B093D2040E948300789408958091C60473
S11307C0811126C0E091DD04F0E0E050FF4FE081AC
S11307D0AE2FB0E0A252BB4FAC91B0E0A050BF4FDF
S11307E0EE0FEE0FEE0F8C91E80FE093CB04E09345
S11307F0CC04F0E0EE0FFF1FE458FA4F80819181A2
S11308009093DC048093DB049093EA048093E904DE
S11308100E9453000895CF93DF93F894E091D70496
S1130820F091D804309709F44FC02281338130937A
S1130830D8042093D70478947183608385871486C1
S113084013861286C82FC695C695C695C787D0E06D
S1130850C050DE4F9881918BC82FC770C687D0E0F7
S1130860C050DE4F9881908B1782168211861086B5
S1130870F894A82FB0E0AA0FBB1FA458BA4FED9369
S1130880FC93A091CD04B091CE04B383A2831582CE
S11308901482109721F01596FC93EE931497F0931D
S11308A0CE04E093CD049091DD048189892B80935B
S11308B0DD04A785B0E0A252BB4F9C918089892BAF
S11308C08C93789480E002C0789486E4DF91CF9191
S11308D008950E94F302E091CD04F091CE04858541
S11308E08F3339F14091DD0421E030E0F8948285C2
S11308F093850097A9F0019793878287892B81F4C8
S1130900848583FD0BC08189A785B0E0A252BB4FCB
S11309105C919089952B9C93482B02C03387228746
S11309200280F381E02D789485858F33F9F6409326
S1130930DD04F8948091EB049091EC04A091ED0413
S1130940B091EE040196A11DB11D8093EB04909328
S1130950EC04A093ED04B093EE0478940895FC01A4
S1130960F8948485813021F0789480E090E00895B3
S1130970208131812115310511F011821082789482
S1130980822F932F0895CF93DF93F894C091E604B8
S1130990D091E704209731F0288139813093E7041E
S11309A02093E6047894209739F021E02C879983EA
S11309B08883CE010E944A03CE01DF91CF9108952E
S11309C0F894FC012485213019F0789481E008958D
S11309D0FC012585222341F042E00E94F70278942D
S11309E00E949B0380E00895FC0120813181232B28
S11309F019F0789484E10895FC01718360837894FC
S1130A0080E00895BF92CF92DF92EF92FF920F930E
S1130A101F93CF93DF93B22E2FE32B1508F44FC00F
S1130A20F894CB2DD0E0FE01EE0FFF1FE458FA4FEF
S1130A300190F081E02DEF2B09F03EC0FE01EE0F96
S1130A40FF1FE458FA4F21E030E03183208378948B
S1130A5020E030E00E94A702C12CD12CE12CF12C23
S1130A6000E010E020E030E040E050E0BC018B2DDD
S1130A700E940B04811117C0F8948091DA048F5FEF
S1130A808093DA04CC0FDD1FC458DA4F8881998132
S1130A900E94F10278948091C604882391F00E9408
S1130AA09B0380E00FC0F894CC0FDD1FC458DA4FCD
S1130AB019821882789406C0789488E203C08AE286
S1130AC001C080E0DF91CF911F910F91FF90EF90D3
S1130AD0DF90CF90BF9008951092EB041092EC0435
S1130AE01092ED041092EE041092E8041092C504E2
S1130AF01092DA041092C6041092C7041092C8042B
S1130B001092C9041092CA041092CF041092D00417
S1130B101092D1041092D2041092DD04EEEDF4E0B0
S1130B2086EE94E01192E817F907E1F71092CC04ED
S1130B301092CB041092DC041092DB041092EA04AD
S1130B401092E9041092CE041092CD04ECE7F5E083
S1130B508CEF95E011921192E817F907D9F78AE121
S1130B6092E02CEB32E0FC017097918380834296F3
S1130B7082179307C1F71092AD021092AC0288E07D
S1130B8092E09093D8048093D7048DEF94E02BE700
S1130B9035E0FC013E97918380830E96821793077C
S1130BA0C1F710926E0510926D058FEE94E090934C
S1130BB0E7048093E6042FE34BE353E060E070E046
S1130BC084EF92E00E9402052EE34BEF52E060E0D6
S1130BD070E085E396E00E94020508950097E1F035
S1130BE0F894E091E904F091EA04A785B0E0A252F8
S1130BF0BB4F208920953C9123232C93211107C0BE
S1130C00218920953091DD0423232093DD049387EB
S1130C10828778940E949B03089582E090E00E946A
S1130C20EE05F8941092C7041092C8041092C904F7
S1130C301092CA04789488EC90E00E94EE05F8942F
S1130C408091C7049091C804A091C904B091CA04CA
S1130C508093D3049093D404A093D504B093D60482
S1130C6081E080937B057894089580917B058111C0
S1130C7008C080E991E00E94EE0580917B058823FD
S1130C80C1F3C4E6F8942091C7043091C80440919C
S1130C90C9045091CA042093FC053093FD05409388
S1130CA0FE055093FF051092C7041092C8041092D9
S1130CB0C9041092CA047894C090D304D090D40488
S1130CC0E090D504F090D604C114D104E104F104F9
S1130CD0B9F0A4E6B0E00E946708A70196010E945B
S1130CE036088C2F821B85361CF0C093D9040AC0A9
S1130CF088231CF41092D90405C08093D90402C03F
S1130D001092D9040E94F20288EC90E00E94EE0551
S1130D10B9CF5058BB27AA270ED00BC1FCD030F056
S1130D2001D120F031F49F3F11F41EF4F1C00EF410
S1130D30E095E7FBE7C0E92F0DD180F3BA1762070E
S1130D4073078407950718F071F49EF525C10EF416
S1130D50E0950B2EBA2FA02D0B01B90190010C01C7
S1130D60CA01A0011124FF27591B99F0593F50F4DF
S1130D70503E68F11A16F040A22F232F342F442737
S1130D80585FF3CF469537952795A795F04053952F
S1130D90C9F77EF41F16BA0B620B730B840BBAF0FF
S1130DA09150A1F0FF0FBB1F661F771F881FC2F76A
S1130DB00EC0BA0F621F731F841F48F4879577957E
S1130DC06795B795F7959E3F08F0B3CF9395880F35
S1130DD008F09927EE0F9795879508950CD0A9C030
S1130DE0A1D040F098D030F021F45F3F19F08AC0D0
S1130DF05111D3C08DC0AED098F39923C9F35523B4
S1130E00B1F3951B550BBB27AA27621773078407F9
S1130E1038F09F5F5F4F220F331F441FAA1FA9F3AF
S1130E2033D00E2E3AF0E0E830D091505040E695A1
S1130E30001CCAF729D0FE2F27D0660F771F881F02
S1130E40BB1F261737074807AB07B0E809F0BB0BF1
S1130E50802DBF01FF2793585F4F2AF09E3F510515
S1130E6068F050C09AC05F3FECF3983EDCF386957F
S1130E7077956795B795F7959F5FC9F7880F911D8B
S1130E809695879597F90895E1E0660F771F881F77
S1130E90BB1F621773078407BA0720F0621B730B2A
S1130EA0840BBA0BEE1F88F7E09508955BD088F0A9
S1130EB09F5790F0B92F9927B751A0F0D1F0660F42
S1130EC0771F881F991F1AF0BA95C9F712C0B1305D
S1130ED081F062D0B1E008955FC0672F782F882732
S1130EE0B85F39F0B93FCCF3869577956795B3959C
S1130EF0D9F73EF490958095709561957F4F8F4F0B
S1130F009F4F089597F99F6780E870E060E0089527
S1130F109FEF80EC089500240A941616170618060D
S1130F200906089500240A941216130614060506E9
S1130F300895092E0394000C11F4882352F0BB0F7A
S1130F4040F4BF2B11F460FF04C06F5F7F4F8F4FDD
S1130F509F4F089557FD9058440F551F59F05F3F18
S1130F6071F04795880F97FB991F61F09F3F79F0C7
S1130F7087950895121613061406551FF2CF469549
S1130F80F1DF08C0161617061806991FF1CF8695CB
S1130F907105610508940895E894BB2766277727AF
S1130FA0CB0197F908950BD0C4CFB5DF28F0BADF91
S1130FB018F0952309F0A6CFABCF1124EECFCADFEA
S1130FC0A0F3959FD1F3950F50E0551F629FF00158
S1130FD0729FBB27F00DB11D639FAA27F00DB11DB1
S1130FE0AA1F649F6627B00DA11D661F829F22273A
S1130FF0B00DA11D621F739FB00DA11D621F839FC1
S1131000A00D611D221F749F3327A00D611D231F96
S1131010849F600D211D822F762F6A2F11249F57E4
S113102050408AF0E1F088234AF0EE0FFF1FBB1F07
S1131030661F771F881F91505040A9F79E3F5105A6
S113104070F060CFAACF5F3FECF3983EDCF3869557
S113105077956795B795F795E7959F5FC1F7FE2B51
S1131060880F911D9695879597F90895A1E21A2EF8
S1131070AA1BBB1BFD010DC0AA1FBB1FEE1FFF1F38
S1131080A217B307E407F50720F0A21BB30BE40B88
S1131090F50B661F771F881F991F1A9469F76095CF
S11310A07095809590959B01AC01BD01CF01089589
S11310B0A29FB001B39FC001A39F700D811D112495
S11310C0911DB29F700D811D1124911D08950E94E0
S11310D05808A59F900DB49F900DA49F800D911D5D
S10B10E011240895F894FFCFD8
S11310E800000100020001000300010002000100E9
S11310F804000100020001000300010002000100D5
S113110805000100020001000300010002000100C3
S113111804000100020001000300010002000100B4
S113112806000100020001000300010002000100A2
S11311380400010002000100030001000200010094
S11311480500010002000100030001000200010083
S11311580400010002000100030001000200010074
S11311680700010002000100030001000200010061
S11311780400010002000100030001000200010054
S11311880500010002000100030001000200010043
S11311980400010002000100030001000200010034
S11311A80600010002000100030001000200010022
S11311B80400010002000100030001000200010014
S11311C80500010002000100030001000200010003
S11311D804000100020001000300010002000100F4
S10B11E80102040810204080FC
S9030000FC
