S01300004C6162325F53657269616C2E7372656311
S11300000C9434000C9451000C9451000C94510045
S11300100C9451000C9451000C9451000C94510018
S11300200C9451000C9451000C9451000C94510008
S11300300C9451000C9451000C9451000C945100F8
S11300400C9413010C9451000C9451000C94510025
S11300500C9472010C9451000C9451000C945100B6
S11300600C9451000C94510011241FBECFEFD8E022
S1130070DEBFCDBF12E0A0E0B1E0E6E6FCE002C0E6
S113008005900D92A835B107D9F726E0A8E5B2E0AE
S113009001C01D92A03DB207E1F70E94B1010C948A
S11300A031060C9400000091960503950093960583
S11300B0E091AB05F091AC05C191CDBFD191DEBF0C
S11300C00F910FBFFF91EF91DF91CF91BF91AF914E
S11300D09F918F917F916F915F914F913F912F915C
S11300E01F910F91FF90EF90DF90CF90BF90AF9052
S11300F09F908F907F906F905F904F903F902F9044
S11301001F900F9008950F921F922F923F924F923B
S11301105F926F927F928F929F92AF92BF92CF9293
S1130120DF92EF92FF920F931F932F933F934F937E
S11301305F936F937F938F939F93AF93BF93CF936B
S1130140DF93EF93FF930FB70F93E091B905F0910D
S1130150BA05CDB7C193DEB7D19300919B05009347
S11301609C05E091AB05F091AC05E093B905F093E3
S1130170BA05C191CDBFD191DEBF0F910FBFFF91E1
S1130180EF91DF91CF91BF91AF919F918F917F912B
S11301906F915F914F913F912F911F910F91FF901C
S11301A0EF90DF90CF90BF90AF909F908F907F9013
S11301B06F905F904F903F902F901F900F900895F5
S11301C000919B0500939C05E091AB05F091AC0573
S11301D0E093B905F093BA05C191CDBFD191DEBFCB
S11301E00F910FBFFF91EF91DF91CF91BF91AF912D
S11301F09F918F917F916F915F914F913F912F913B
S11302001F910F91FF90EF90DF90CF90BF90AF9030
S11302109F908F907F906F905F904F903F902F9022
S11302201F900F9008950F921F922F923F924F921A
S11302305F926F927F928F929F92AF92BF92CF9272
S1130240DF92EF92FF920F931F932F933F934F935D
S11302505F936F937F938F939F93AF93BF93CF934A
S1130260DF93EF93FF930FB700680F930091B805E6
S113027003950093B805013041F4CDB7DEB7E091A2
S1130280B905F091BA05C193D1930DEE06BD7894EA
S11302900E94CC0300000E94B6020F910FBFFF9191
S11302A0EF91DF91CF91BF91AF919F918F917F910A
S11302B06F915F914F913F912F911F910F91FF90FB
S11302C0EF90DF90CF90BF90AF909F908F907F90F2
S11302D06F905F904F903F902F901F900F900895D4
S11302E0A895089508958CEF84B91A9BFDCF299899
S11302F0FBCF0E94790525E044ED54E060E070E016
S113030083E791E00E946E0460E071E080919103C4
S1130310909192030E942F0480E991E00E945A0573
S113032064E071E080919103909192030E942F0404
S113033080E991E00E945A056EE071E0809191039A
S1130340909192030E942F0410929F051092A00591
S11303501092A1051092A20588EC90E00E945A0523
S1130360F3CF0E94DB010E94D8040E94FE0180E0CA
S113037090E00E94120490938E0380938D0380E09A
S113038090E00E941204909392038093910381E081
S113039090E00E945104909314048093130420E08D
S11303A044E955E060E070E089E791E00E946E0462
S11303B00E944103FFCFF8940E94700184B7877FA5
S11303C084BFE0E6F0E080818861808310822D980C
S11303D02C98259A249A229883E084BD8DE085BDCB
S11303E082E187BDEEE6F0E0808181608083E4E60F
S11303F0F0E080818F7D8083789408951092C50009
S113040089E18093C40088E18093C1008EE08093E9
S1130410C2000895FA018083319790833197108246
S11304203197108231971082319710823197108260
S11304303197108231971082319710823197108250
S11304403197108231971082319710823197108240
S11304503197108231971082319710823197108230
S11304603197108231971082319710823197108220
S113047031971082319710823197108231976083BF
S1130480319770833197108231971082319710829F
S1130490319710823197108231971082319780E81A
S11304A08083CA0183970895089508950895F89460
S11304B07894FDCF0F931F93CF93DF93FC010585B1
S11304C0E02FF0E0E15BFE4F1081212F30E0D901F5
S11304D0A15BBD4FDC91FC01E20FF31F5281A52FFC
S11304E0B0E0A15BBE4FCC91AC2FB0E0A15BBD4F9F
S11304F0AC91110F110F110FC10FBA2FB0955B23DF
S11305005283511105C05D2F50950523FC010587C9
S1130510EC2FF0E0EE0FFF1FE45BF94F0190F08148
S1130520E02D1386128617821682718760874095A4
S113053084854823448741110BC08091AD05D82B95
S1130540D093AD05F901E255FA4F8081A82BA08321
S1130550DF91CF911F910F910895FC01158632967A
S113056080E011928F5F8830E1F70895F8948091CC
S1130570B80581508093B80590919505892BE1F5D4
S1130580E091AD05F0E0E15BFE4F808180938C0348
S1130590E82FF0E0E255FA4FE081F0E0E15BFE4F36
S11305A0880F880F880F9081890F80939B05909105
S11305B09C05891709F1E82FF0E0EE0FFF1FE45BBB
S11305C0F94F808191819093AC058093AB05809124
S11305D09F059091A005A091A105B091A205019657
S11305E0A11DB11D80939F059093A005A093A10523
S11305F0B093A2050E94E00078940895F894909135
S1130600B80580919505892BD1F5E091AD05F0E011
S1130610E15BFE4F8081E82FF0E0E255FA4FE08184
S1130620F0E0E15BFE4F880F880F880F9081E82F80
S1130630E90FE0939B0580919C05E81701F1F0E038
S1130640EE0FFF1FE45BF94F808191819093AC051D
S11306508093AB0580919F059091A005A091A10581
S1130660B091A2050196A11DB11D80939F059093A1
S1130670A005A093A105B093A2050E9483007894DD
S1130680089580919605811126C0E091AD05F0E0B2
S1130690E15BFE4FE081AE2FB0E0A255BA4FAC91C2
S11306A0B0E0A15BBE4FEE0FEE0FEE0F8C91E80FA2
S11306B0E0939B05E0939C05F0E0EE0FFF1FE45BE5
S11306C0F94F808191819093AC058093AB05909311
S11306D0BA058093B9050E9453000895CF93DF9320
S11306E0F894E091A705F091A805309709F44FC05C
S11306F0228133813093A8052093A70578947183D0
S113070060838587148613861286C82FC695C6957E
S1130710C695C787D0E0C15BDD4F9881918BC82F08
S1130720C770C687D0E0C15BDD4F9881908B17827C
S1130730168211861086F894A82FB0E0AA0FBB1F6A
S1130740A45BB94FED93FC93A0919D05B0919E05D8
S1130750B383A28315821482109721F01596FC931B
S1130760EE931497F0939E05E0939D059091AD054B
S11307708189892B8093AD05A785B0E0A255BA4F36
S11307809C918089892B8C93789480E002C0789422
S113079086E4DF91CF9108950E945602E0919D0571
S11307A0F0919E0585858F3339F14091AD0521E0A7
S11307B030E0F894828593850097A9F00197938798
S11307C08287892B81F4848583FD0BC08189A78569
S11307D0B0E0A255BA4F5C919089952B9C93482B1D
S11307E002C0338722870280F381E02D78948585C7
S11307F08F33F9F64093AD05F8948091BB05909141
S1130800BC05A091BD05B091BE050196A11DB11D09
S11308108093BB059093BC05A093BD05B093BE0522
S113082078940895CF93DF93F894C091B605D0914E
S1130830B705209731F0288139813093B70520938B
S1130840B6057894209739F021E02C879983888322
S1130850CE010E94AD02CE01DF91CF910895F894AC
S1130860FC012485213019F0789481E00895FC017D
S11308702585222341F042E00E945A0278940E9486
S1130880FE0280E00895FC0120813181232B19F0C0
S1130890789484E10895FC0171836083789480E006
S11308A00895CF93DF93F894C091B605D091B7051E
S11308B0209731F0288139813093B7052093B6050C
S11308C07894209739F023E02C879B878A87CE0180
S11308D00E94AD02CE01DF91CF910895BF92CF92D5
S11308E0DF92EF92FF920F931F93CF93DF93B22E79
S11308F02FE32B1508F44FC0F894CB2DD0E0FE0164
S1130900EE0FFF1FE45BF94F0190F081E02DEF2B18
S113091009F03EC0FE01EE0FFF1FE45BF94F21E03A
S113092030E031832083789420E030E00E940A0292
S1130930C12CD12CE12CF12C00E010E020E030E0BF
S113094040E050E0BC018B2D0E946E03811117C062
S1130950F8948091AA058F5F8093AA05CC0FDD1FC0
S1130960C45BD94F888199810E9454027894809104
S11309709605882391F00E94FE0280E00FC0F8944F
S1130980CC0FDD1FC45BD94F19821882789406C03E
S1130990789488E203C08AE201C080E0DF91CF91BD
S11309A01F910F91FF90EF90DF90CF90BF9008952B
S11309B01092BB051092BC051092BD051092BE05A5
S11309C01092B805109295051092AA0510929605FA
S11309D010929705109298051092990510929A0515
S11309E010929F051092A0051092A1051092A205E5
S11309F01092AD05EEEAF5E086EB95E01192E8176A
S1130A00F907E1F710929C0510929B051092AC0532
S1130A101092AB051092BA051092B90510929E057A
S1130A2010929D05ECE4F6E08CEC96E011921192A4
S1130A30E817F907D9F78AE692E02CE033E0FC01E5
S1130A40709791838083429682179307C1F710921F
S1130A50FD021092FC0288E592E09093A805809331
S1130A60A7058DEC95E02BE436E0FC013E979183DD
S1130A7080830E9682179307C1F710923E06109258
S1130A803D068FEB95E09093B7058093B6052FE371
S1130A904BE853E060E070E087E592E00E946E046A
S1130AA02EE34BE453E060E070E081EA95E00E94BD
S1130AB06E0408950097E1F0F894E091B905F0917F
S1130AC0BA05A785B0E0A255BA4F208920953C917C
S1130AD023232C93211107C0218920953091AD0542
S1130AE023232093AD059387828778940E94FE0286
S1130AF0089582E090E00E945A05F89410929705B8
S1130B00109298051092990510929A05789488ECA1
S1130B1090E00E945A05F894809197059091980569
S1130B20A0919905B0919A058093A3059093A4058B
S1130B30A093A505B093A60581E080934B06789415
S1130B40089580914B06811108C080E991E00E94CC
S1130B505A0580914B068823C1F3C4E6F89420918A
S1130B609705309198054091990550919A052093E5
S1130B70CC063093CD064093CE065093CF06109208
S1130B809705109298051092990510929A057894F9
S1130B90C090A305D090A405E090A505F090A6050B
S1130BA0C114D104E104F104B9F0A4E6B0E00E9458
S1130BB02606A70196010E94F5058C2F821B853617
S1130BC01CF0C093A9050AC088231CF41092A9053F
S1130BD005C08093A90502C01092A9050E94550280
S1130BE088EC90E00E945A05B9CFA1E21A2EAA1B04
S1130BF0BB1BFD010DC0AA1FBB1FEE1FFF1FA217C9
S1130C00B307E407F50720F0A21BB30BE40BF50BC5
S1130C10661F771F881F991F1A9469F7609570954E
S1130C20809590959B01AC01BD01CF010895A29FD1
S1130C30B001B39FC001A39F700D811D1124911DAC
S1130C40B29F700D811D1124911D08950E941706F5
S1130C50A59F900DB49F900DA49F800D911D11240C
S1090C600895F894FFCF93
S1130C6624242400552C33383430302C4E000D0AFD
S1130C7675434F53204F4E0D0A2D2D2D0D0A004856
S1130C86494748204552522053544154450A0D00C1
S1130C964D4544204552522053544154450A0D00B3
S1130CA64E4F204552522053544154450A0D0000DC
S1130CB6000100020001000300010002000100041B
S1130CC6000100020001000300010002000100050A
S1130CD600010002000100030001000200010004FB
S1130CE600010002000100030001000200010006E9
S1130CF600010002000100030001000200010004DB
S1130D0600010002000100030001000200010005C9
S1130D1600010002000100030001000200010004BA
S1130D2600010002000100030001000200010007A7
S1130D36000100020001000300010002000100049A
S1130D460001000200010003000100020001000589
S1130D56000100020001000300010002000100047A
S1130D660001000200010003000100020001000668
S1130D76000100020001000300010002000100045A
S1130D860001000200010003000100020001000549
S1130D96000100020001000300010002000100043A
S1130DA6000100020001000300010002000100012D
S10B0DB6020408102040800033
S9030000FC
