S01300004C6162325F53657269616C2E7372656311
S11300000C94B4000C94D1000C94D1000C94D10045
S11300100C94D1000C94D1000C94D1000C94D10018
S11300200C94D1000C94D1000C94D1000C94D10008
S11300300C94D1000C94D1000C94D1000C94D100F8
S11300400C9493010C94D1000C94D1000C94D10025
S11300500C94F2010C94D1000C94D1000C94D100B6
S11300600C94D1000C94D100FF38283718FF2734A2
S11300700839FFFF17FF240D78FF2936FFFFFF35EE
S113008007FFFFFF14137D126869FFFF196A26FF3B
S1130090FF3AFFFFFFFF250E7776FFFFFF6BFFFFA1
S11300A004FF03FF6D6C020158FF59FFFFFFFF338C
S11300B0090A5AFF160BFF0CFFFF2A2BFFFFFFFF55
S11300C0FFFFFFFF15FF7E7F67FF66FFFFFFFFFF58
S11300D0FFFF5BFFFFFFFFFF7475FFFF73FFFFFF71
S11300E05D5E5CFF725F71004847FF4449FFFF1D7E
S11300F0FF46FF45FFFF232279FF7AFF4AFFFF1ED9
S113010006FF7BFFFFFF7C11FFFFFF431AFF1B1C51
S1130110FF3BFFFFFFFFFF0FFFFFFFFFFFFFFFFF9F
S113012005FFFFFF6EFF6F105754FF2D5655FF322A
S1130130FFFFFF2EFFFFFF21FF53FF2C4BFFFF1F8D
S1130140FFFFFFFFFFFFFF20643D6542FF3EFF31DD
S1130150633CFF2FFFFFFF304D524E414C3FFF40A9
S113016062514F50616070FF11241FBECFEFD8E081
S1130170DEBFCDBF12E0A0E0B1E0E0EEF6E102C0E8
S113018005900D92A639B107D9F727E0A6E9B2E0A8
S113019001C01D92AE38B207E1F70E945B040C94D3
S11301A06E0B0C94000000915406039500935406C2
S11301B0E0916906F0916A06C191CDBFD191DEBF8D
S11301C00F910FBFFF91EF91DF91CF91BF91AF914D
S11301D09F918F917F916F915F914F913F912F915B
S11301E01F910F91FF90EF90DF90CF90BF90AF9051
S11301F09F908F907F906F905F904F903F902F9043
S11302001F900F9008950F921F922F923F924F923A
S11302105F926F927F928F929F92AF92BF92CF9292
S1130220DF92EF92FF920F931F932F933F934F937D
S11302305F936F937F938F939F93AF93BF93CF936A
S1130240DF93EF93FF930FB70F93E0917706F0914D
S11302507806CDB7C193DEB7D193009159060093C8
S11302605A06E0916906F0916A06E0937706F093E6
S11302707806C191CDBFD191DEBF0F910FBFFF9121
S1130280EF91DF91CF91BF91AF919F918F917F912A
S11302906F915F914F913F912F911F910F91FF901B
S11302A0EF90DF90CF90BF90AF909F908F907F9012
S11302B06F905F904F903F902F901F900F900895F4
S11302C00091590600935A06E0916906F0916A0676
S11302D0E0937706F0937806C191CDBFD191DEBF4C
S11302E00F910FBFFF91EF91DF91CF91BF91AF912C
S11302F09F918F917F916F915F914F913F912F913A
S11303001F910F91FF90EF90DF90CF90BF90AF902F
S11303109F908F907F906F905F904F903F902F9021
S11303201F900F9008950F921F922F923F924F9219
S11303305F926F927F928F929F92AF92BF92CF9271
S1130340DF92EF92FF920F931F932F933F934F935C
S11303505F936F937F938F939F93AF93BF93CF9349
S1130360DF93EF93FF930FB700680F930091760626
S1130370039500937606013041F4CDB7DEB7E091E2
S11303807706F0917806C193D1930DEE06BD78946B
S11303900E94CE0600000E94B8050F910FBFFF9186
S11303A0EF91DF91CF91BF91AF919F918F917F9109
S11303B06F915F914F913F912F911F910F91FF90FA
S11303C0EF90DF90CF90BF90AF909F908F907F90F1
S11303D06F905F904F903F902F901F900F900895D3
S11303E0A895089508950E94DA082AE042ED55E0A0
S11303F060E070E080E293E00E94CF0724E142E5F0
S113040055E060E070E089EB93E00E94CF0780E95B
S113041091E00E94BB0860E071E080914F049091EC
S113042050040E94450780E991E00E94BB0865E200
S113043071E080914F04909150040E9445072FE091
S11304404EE454E060E070E08EE392E00E94CF0757
S11304502BE040ED54E060E070E080EB92E00E941D
S1130460CF0710925D0610925E0610925F061092FE
S1130470600688EC90E00E94BB08F3CFCF93DF9333
S1130480CDB7DEB7A3970FB6F894DEBF0FBECDBFCE
S11304900F2EFDE0BF2EF02D0F2EFAE0CF2EF02D03
S11304A00F2EFBE0DF2EF02D0AE010E06894FF240D
S11304B0F5F80F2EFDECEF2EF02D86B1E9B1E07FBB
S11304C08F70E82BF0E0E859FF4F2491B982CA827B
S11304D0822F90E0EAE4F1E0DE0159963D2D01908F
S11304E00D923A95E1F7FE0133963196B8010E94D8
S11304F0030BCB010097C9F7F082F182F282F382F9
S1130500F482F582F682F782F086F186F286F3862B
S1130510F48615862E9D812D1124869586958695C3
S1130520982F990F392F330F330F930F291BA9E1FC
S1130530B0E0AC0FBD1FA20FB11D9C919293282F68
S11305408111E8CFBE016F5F7F4F80914F0490917E
S113055050040E94450788EC90E00E94BB08ADCF90
S1130560CF93DF93CDB7DEB769970FB6F894DEBFAC
S11305700FBECDBF6894FF24F1F813E101E080EDD4
S113058097E00E94BB08F982BE016F5F7F4F8091A4
S1130590CB039091CC030E944507E5E5F1E0DE0131
S11305A01296812F01900D928A95E1F7BE016E5F3C
S11305B07F4F80914F04909150040E94450780ED35
S11305C097E00E94BB080983BE016F5F7F4F809153
S11305D0CB039091CC030E944507E8E6F1E0DE01ED
S11305E01296812F01900D928A95E1F7BE016E5FFC
S11305F07F4F80914F04909150040E94450780EDF5
S113060097E00E94BB081982BE016F5F7F4F809103
S1130610CB039091CC030E944507EBE7F1E0DE01A8
S11306201296812F01900D928A95E1F7BE016E5FBB
S11306307F4F80914F04909150040E9445079FCFB3
S11306400DEC1CECDCECCDE3812C912C6894AA24F9
S1130650A7F80F2EFFE3BF2EF02D412C512C612C57
S11306600F2EFFE37F2EF02D0F2EFDEC2F2EF02DFD
S11306700F2EFCEC3F2EF02D0DC00DEC1CECDCEC31
S1130680CDE3812C912C6894AA24A7F80F2EFFE3C4
S1130690BF2EF02D2D9A282D392D4A2D5B2D60E08B
S11306A070E080E89FE30E94BB096B017C01202F6E
S11306B0312F4D2F5C2F0E94A00A20E030E048E447
S11306C053E40E94A00A0E94230ACB010E94BB08A3
S11306D02D98202F312F4D2F5C2F60E070E080E8A3
S11306E09FE30E9456099B01AC01C701B6010E9419
S11306F0A00A20E030E048E453E40E94A00A0E94EB
S1130700230ACB010E94BB088091CB039091CC03B8
S11307100E941407009709F4BDCFFC018081813049
S1130720C9F008F4AACF823009F0B4CF042D152DF6
S1130730D62DC72D0F2EFAE98F2EF02D0F2EF9E9A5
S11307409F2EF02D0F2EF9E1AF2EF02D6894BB24CF
S1130750B6F8A0CF042D152DD62DC72D822C932CA1
S11307600F2EFCECAF2EF02D0F2EFEE3BF2EF02D3E
S113077091CFCF93DF93CDB7DEB769970FB6F894D7
S1130780DEBF0FBECDBF0F2EF1ECCF2ED12CF02D3E
S1130790612C712C0F2EFEEFAF2EF02D689488245F
S11307A087F80F2EF0EC9F2EF02D0F2EF6ECEF2E87
S11307B0F12CF02D88EC90E00E94BB0880914F044E
S11307C0909150040E941407009709F46FC0BC0173
S11307D0CE0102960E94670BF601808186608083B9
S11307E08A81882309F462C0062D172DB12C8D301F
S11307F0C9F4C8010196E2E0F0E0EC0FFD1FE80F38
S1130800F91F20812D3071F4E2E0F0E0EC0FFD1FC0
S1130810E00FF11FA082E2E0F0E0EC0FFD1FE80F13
S1130820F91F8082E2E0F0E0EC0FFD1FE00FF11F02
S113083080818D30C9F4C8010196E2E0F0E0EC0F4C
S1130840FD1FE80FF91F20812A3071F4E2E0F0E087
S1130850EC0FFD1FE00FF11FA082E2E0F0E0EC0FCF
S1130860FD1FE80FF91F9082AE014F5F5F4F61E0FB
S113087070E08091D1049091D2040E9484072C9A54
S1130880E2E0F0E0EC0FFD1FE00FF11F8081F701C3
S113089080832C98B3940B2D10E0E2E0F0E0EC0F91
S11308A0FD1FE00FF11F80818111A1CFF60180812E
S11308B0897F80837FCF0E9485040E9439080E942B
S11308C0B20480E090E00E9428079093CC038093C8
S11308D0CB0380E090E00E9428079093500480931B
S11308E04F0481E090E00E9467079093D2048093C4
S11308F0D10420E042E556E060E070E083EF91E04F
S11309000E94CF070E944306FFCFF8940E94F00193
S113091084B7877F84BFE0E6F0E0808188618083CC
S113092010822D982C98259A249A87B1807F87B9B4
S11309308AB18F708AB983E084BD8DE085BD82E180
S113094087BDEEE6F0E0808181608083E4E6F0E03C
S113095080818F7D8083E1ECF0E08081897F8083DA
S1130960789408951092C50087E68093C40088E1C6
S11309708093C1008EE08093C2000895FA018083C1
S1130980319790833197108231971082319710827A
S113099031971082319710823197108231971082EB
S11309A031971082319710823197108231971082DB
S11309B031971082319710823197108231971082CB
S11309C031971082319710823197108231971082BB
S11309D031971082319710823197108231971082AB
S11309E031971082319760833197708331971082E9
S11309F0319710823197108231971082319710828B
S1130A0031971082319780E88083CA0183970895D3
S1130A10089508950895F8947894FDCF0F931F9343
S1130A20CF93DF93FC010585E02FF0E0E257FE4F02
S1130A301081212F30E0D901A257BD4FDC91FC0178
S1130A40E20FF31F5281A52FB0E0A257BE4FCC9105
S1130A50AC2FB0E0A257BD4FAC91110F110F110F85
S1130A60C10FBA2FB0955B235283511105C05D2F7E
S1130A7050950523FC010587EC2FF0E0EE0FFF1FD6
S1130A80E65FF84F0190F081E02D138612861782FD
S1130A901682718760874095848548234487411175
S1130AA00BC080916B06D82BD0936B06F901E459E7
S1130AB0F94F8081A82BA083DF91CF911F910F91D3
S1130AC00895CF93DF93E0917706F09178069783AA
S1130AD08683A785B0E02089ED01C459D94F422F00
S1130AE04095388134233883311107C031893095DA
S1130AF040916B06342330936B06A80FB91F1296EE
S1130B003C911297232B12962C93DC011D963C9159
S1130B101D972189232B1D962C93DF91CF91089546
S1130B20E0917706F09178062785DC01A20FB11DCC
S1130B302089209512963C911297232312962C9388
S1130B40211109C021892095DC011D963C911D9736
S1130B5023231D962C931486178216820895FC0174
S1130B601586329680E011928F5F8830E1F7089500
S1130B70F89480917606815080937606909153067E
S1130B80892BE1F5E0916B06F0E0E257FE4F80819E
S1130B908093CA03E82FF0E0E459F94FE081F0E0D4
S1130BA0E257FE4F880F880F880F9081890F80933A
S1130BB0590690915A06891709F1E82FF0E0EE0FD3
S1130BC0FF1FE65FF84F8081918190936A068093BE
S1130BD0690680915D0690915E06A0915F06B091D2
S1130BE060060196A11DB11D80935D0690935E067B
S1130BF0A0935F06B09360060E9460017894089504
S1130C00F8949091760680915306892BD1F5E09162
S1130C106B06F0E0E257FE4F8081E82FF0E0E459E4
S1130C20F94FE081F0E0E257FE4F880F880F880FFC
S1130C309081E82FE90FE093590680915A06E8174E
S1130C4001F1F0E0EE0FFF1FE65FF84F8081918124
S1130C5090936A068093690680915D0690915E0682
S1130C60A0915F06B09160060196A11DB11D80930D
S1130C705D0690935E06A0935F06B09360060E94A3
S1130C8003017894089580915406811126C0E0915F
S1130C906B06F0E0E257FE4FE081AE2FB0E0A459BE
S1130CA0B94FAC91B0E0A257BE4FEE0FEE0FEE0F6E
S1130CB08C91E80FE0935906E0935A06F0E0EE0FAA
S1130CC0FF1FE65FF84F8081918190936A068093BD
S1130CD0690690937806809377060E94D30008955E
S1130CE0CF93DF93F894E0916506F0916606309710
S1130CF009F44FC022813381309366062093650640
S1130D007894718360838587148613861286C82F2E
S1130D10C695C695C695C787D0E0C257DD4F988162
S1130D20918BC82FC770C687D0E0C257DD4F98811A
S1130D30908B1782168211861086F894A82FB0E043
S1130D40AA0FBB1FA65FB84FED93FC93A0915B065F
S1130D50B0915C06B383A28315821482109721F0AC
S1130D601596FC93EE931497F0935C06E0935B0660
S1130D7090916B068189892B80936B06A785B0E0DF
S1130D80A459B94F9C918089892B8C93789480E0E5
S1130D9002C0789486E4DF91CF9108950E940A05F9
S1130DA0E0915B06F0915C0685858F3339F14091C3
S1130DB06B0621E030E0F894828593850097A9F0D2
S1130DC0019793878287892B81F4848583FD0BC0E7
S1130DD08189A785B0E0A459B94F5C919089952B7E
S1130DE09C93482B02C0338722870280F381E02D35
S1130DF0789485858F33F9F640936B06F894809147
S1130E00790690917A06A0917B06B0917C060196B2
S1130E10A11DB11D8093790690937A06A0937B0659
S1130E20B0937C0678940895FC01F894848581300D
S1130E3021F0789480E090E008952081318121159B
S1130E40310511F0118210827894822F932F089526
S1130E50CF93DF93F894C0917406D09175062097D0
S1130E6031F0288139813093750620937406789483
S1130E70209739F021E02C8799838883CE010E9442
S1130E80AF05CE01DF91CF910895F894FC0124853C
S1130E90213019F0789481E00895FC0125852223FE
S1130EA041F042E00E940E0578940E94000680E022
S1130EB00895FC0120813181232B19F0789484E179
S1130EC00895FC0171836083789480E00895CF9342
S1130ED0DF93F894C0917406D0917506209731F091
S1130EE0288139813093750620937406789420976D
S1130EF039F023E02C879B878A87CE010E94AF05B7
S1130F00CE01DF91CF9108950F931F93CF93DF9379
S1130F10EC018A01F8948C85833021F0789481E087
S1130F20FA0180838A859B85009739F001979B8716
S1130F308A877894F80110822DC0809176068823E0
S1130F4029F0789482E0F801808324C0E091770648
S1130F50F091780684858160848773876287CE01E7
S1130F600E94610578940E940006F894E091770647
S1130F70F0917806848580FF08C0CE010E94900518
S1130F8078948AE0F801808305C0178216827894E9
S1130F90F8011082DF91CF911F910F910895BF92B4
S1130FA0CF92DF92EF92FF920F931F93CF93DF9331
S1130FB0B22E2FE32B1508F44FC0F894CB2DD0E0BC
S1130FC0FE01EE0FFF1FE65FF84F0190F081E02D68
S1130FD0EF2B09F03EC0FE01EE0FFF1FE65FF84F56
S1130FE021E030E031832083789420E030E00E94D7
S1130FF0BE04C12CD12CE12CF12C00E010E020E047
S113100030E040E050E0BC018B2D0E94700681115D
S113101017C0F894809168068F5F80936806CC0FA0
S1131020DD1FC65FD84F888199810E940805789496
S113103080915406882391F00E94000680E00FC03E
S1131040F894CC0FDD1FC65FD84F198218827894AC
S113105006C0789488E203C08AE201C080E0DF9190
S1131060CF911F910F91FF90EF90DF90CF90BF90A1
S113107008951092790610927A0610927B061092C7
S11310807C0610927606109253061092680610920F
S11310905406109255061092560610925706109256
S11310A0580610925D0610925E0610925F0610922A
S11310B0600610926B06ECE6F6E084E796E0119287
S11310C0E817F907E1F710925A06109259061092A0
S11310D06A061092690610927806109277061092AA
S11310E05C0610925B06EAE0F7E08AE897E011926A
S11310F01192E817F907D9F788EA92E02AE433E075
S1131100FC01709791838083429682179307C1F7FD
S113111010923B0310923A0386E992E0909366069C
S1131120809365068BE896E029E037E0FC013E9762
S1131130918380830E9682179307C1F71092FC0661
S11311401092FB068DE796E09093750680937406E3
S11311502FE349EC53E060E070E08BE095E00E94FF
S1131160CF072EE349E853E060E070E082E099E0C5
S11311700E94CF0708950097E1F0F894E091770674
S1131180F0917806A785B0E0A459B94F208920953D
S11311903C9123232C93211107C021892095309160
S11311A06B06232320936B069387828778940E948F
S11311B00006089582E090E00E94BB08F894109223
S11311C055061092560610925706109258067894B7
S11311D088EC90E00E94BB08F894809155069091A9
S11311E05606A0915706B0915806809361069093D5
S11311F06206A0936306B093640681E080930907B6
S11312007894089580910907811108C080E991E0DC
S11312100E94BB08809109078823C1F3C4E6F894AF
S11312202091550630915606409157065091580624
S113123020938A0730938B0740938C0750938D0734
S113124010925506109256061092570610925806A0
S11312507894C0906106D0906206E0906306F090A6
S11312606406C114D104E104F104B9F0A4E6B0E0C9
S11312700E94480BA70196010E94170B8C2F821B1A
S113128085361CF0C09367060AC088231CF41092AC
S1131290670605C08093670602C0109267060E9425
S11312A0090588EC90E00E94BB08B9CF5058BB27D1
S11312B0AA270ED00BC1FCD030F001D120F031F4BC
S11312C09F3F11F41EF4F1C00EF4E095E7FBE7C074
S11312D0E92F0DD180F3BA176207730784079507C6
S11312E018F071F49EF525C10EF4E0950B2EBA2F7B
S11312F0A02D0B01B90190010C01CA01A001112418
S1131300FF27591B99F0593F50F4503E68F11A16C3
S1131310F040A22F232F342F4427585FF3CF469554
S113132037952795A795F0405395C9F77EF41F1676
S1131330BA0B620B730B840BBAF09150A1F0FF0F40
S1131340BB1F661F771F881FC2F70EC0BA0F621F2C
S1131350731F841F48F4879577956795B795F7951C
S11313609E3F08F0B3CF9395880F08F09927EE0FAE
S11313709795879508950CD0A9C0A1D040F098D036
S113138030F021F45F3F19F08AC05111D3C08DC0F1
S1131390AED098F39923C9F35523B1F3951B550B9C
S11313A0BB27AA2762177307840738F09F5F5F4F34
S11313B0220F331F441FAA1FA9F333D00E2E3AF075
S11313C0E0E830D091505040E695001CCAF729D08F
S11313D0FE2F27D0660F771F881FBB1F26173707DE
S11313E04807AB07B0E809F0BB0B802DBF01FF270E
S11313F093585F4F2AF09E3F510568F050C09AC041
S11314005F3FECF3983EDCF3869577956795B79547
S1131410F7959F5FC9F7880F911D9695879597F962
S11314200895E1E0660F771F881FBB1F62177307DB
S11314308407BA0720F0621B730B840BBA0BEE1FF0
S113144088F7E09508955BD088F09F5790F0B92F06
S11314509927B751A0F0D1F0660F771F881F991F05
S11314601AF0BA95C9F712C0B13081F062D0B1E078
S113147008955FC0672F782F8827B85F39F0B93F88
S1131480CCF3869577956795B395D9F73EF4909507
S11314908095709561957F4F8F4F9F4F089597F971
S11314A09F6780E870E060E008959FEF80EC089506
S11314B000240A941616170618060906089500242F
S11314C00A9412161306140605060895092E0394A9
S11314D0000C11F4882352F0BB0F40F4BF2B11F41D
S11314E060FF04C06F5F7F4F8F4F9F4F089557FD7C
S11314F09058440F551F59F05F3F71F04795880F7E
S113150097FB991F61F09F3F79F087950895121614
S113151013061406551FF2CF4695F1DF08C01616C0
S113152017061806991FF1CF869571056105089471
S11315300895E894BB2766277727CB0197F9089588
S11315400BD0C4CFB5DF28F0BADF18F0952309F02B
S1131550A6CFABCF1124EECFCADFA0F3959FD1F372
S1131560950F50E0551F629FF001729FBB27F00D4D
S1131570B11D639FAA27F00DB11DAA1F649F6627A2
S1131580B00DA11D661F829F2227B00DA11D621FF1
S1131590739FB00DA11D621F839FA00D611D221FAB
S11315A0749F3327A00D611D231F849F600D211D8F
S11315B0822F762F6A2F11249F5750408AF0E1F032
S11315C088234AF0EE0FFF1FBB1F661F771F881F7B
S11315D091505040A9F79E3F510570F060CFAACFBB
S11315E05F3FECF3983EDCF3869577956795B79566
S11315F0F795E7959F5FC1F7FE2B880F911D969590
S1131600879597F9089597FB072E16F4009407D051
S113161077FD09D00E94530B07FC05D03EF490954A
S113162081959F4F0895709561957F4F0895A1E22C
S11316301A2EAA1BBB1BFD010DC0AA1FBB1FEE1F48
S1131640FF1FA217B307E407F50720F0A21BB30B93
S1131650E40BF50B661F771F881F991F1A9469F70F
S113166060957095809590959B01AC01BD01CF016B
S11316700895A29FB001B39FC001A39F700D811D67
S11316801124911DB29F700D811D1124911D089587
S11316900E94390BA59F900DB49F900DA49F800DBF
S11316A0911D11240895AA1BBB1B51E107C0AA1F59
S11316B0BB1FA617B70710F0A61BB70B881F991FEF
S11316C05A95A9F780959095BC01CD010895FB0129
S11316D0DC0101900D920020E1F70895F894FFCF0A
S11316E00D0D4175746F476F6E69204F4E20202099
S11316F020200D0A28632920323031362020202072
S113170020202020000D0D2020202020202020201B
S1131710202020202020200D0A20202020202020EE
S11317202020202020202020200030313233343566
S113173036373839000D0D5B48695D2020202020A4
S113174020202020202020000D0D5B4D65645D20AD
S113175020202020202020202020000D0D5B4E6F13
S11317605D20202020202020202020202000000098
S11317700100020001000300010002000100040056
S11317800100020001000300010002000100050045
S11317900100020001000300010002000100040036
S11317A00100020001000300010002000100060024
S11317B00100020001000300010002000100040016
S11317C00100020001000300010002000100050005
S11317D001000200010003000100020001000400F6
S11317E001000200010003000100020001000700E3
S11317F001000200010003000100020001000400D6
S113180001000200010003000100020001000500C4
S113181001000200010003000100020001000400B5
S113182001000200010003000100020001000600A3
S11318300100020001000300010002000100040095
S11318400100020001000300010002000100050084
S11318500100020001000300010002000100040075
S11318600100020001000300010002000100010266
S109187004081020408072
S9030000FC
