:100000000C94B4000C94D1000C94D1000C94D10049
:100010000C94D1000C94D1000C94D1000C94D1001C
:100020000C94D1000C94D1000C94D1000C94D1000C
:100030000C94D1000C94D1000C94D1000C94D100FC
:100040000C9493010C94D1000C94D1000C94D10029
:100050000C94F2010C94D1000C94D1000C94D100BA
:100060000C94D1000C94D100FF38283718FF2734A6
:100070000839FFFF17FF240D78FF2936FFFFFF35F2
:1000800007FFFFFF14137D126869FFFF196A26FF3F
:10009000FF3AFFFFFFFF250E7776FFFFFF6BFFFFA5
:1000A00004FF03FF6D6C020158FF59FFFFFFFF3390
:1000B000090A5AFF160BFF0CFFFF2A2BFFFFFFFF59
:1000C000FFFFFFFF15FF7E7F67FF66FFFFFFFFFF5C
:1000D000FFFF5BFFFFFFFFFF7475FFFF73FFFFFF75
:1000E0005D5E5CFF725F71004847FF4449FFFF1D82
:1000F000FF46FF45FFFF232279FF7AFF4AFFFF1EDD
:1001000006FF7BFFFFFF7C11FFFFFF431AFF1B1C55
:10011000FF3BFFFFFFFFFF0FFFFFFFFFFFFFFFFFA3
:1001200005FFFFFF6EFF6F105754FF2D5655FF322E
:10013000FFFFFF2EFFFFFF21FF53FF2C4BFFFF1F91
:10014000FFFFFFFFFFFFFF20643D6542FF3EFF31E1
:10015000633CFF2FFFFFFF304D524E414C3FFF40AD
:1001600062514F50616070FF11241FBECFEFD8E085
:10017000DEBFCDBF12E0A0E0B1E0E0E3F7E102C0F6
:1001800005900D92AE35B107D9F727E0AEE5B2E0A4
:1001900001C01D92A635B207E1F70E9480040C94BD
:1001A000960B0C94000000911C06039500931C060E
:1001B000E0913106F0913206C191CDBFD191DEBF01
:1001C0000F910FBFFF91EF91DF91CF91BF91AF9151
:1001D0009F918F917F916F915F914F913F912F915F
:1001E0001F910F91FF90EF90DF90CF90BF90AF9055
:1001F0009F908F907F906F905F904F903F902F9047
:100200001F900F9008950F921F922F923F924F923E
:100210005F926F927F928F929F92AF92BF92CF9296
:10022000DF92EF92FF920F931F932F933F934F9381
:100230005F936F937F938F939F93AF93BF93CF936E
:10024000DF93EF93FF930FB70F93E0913F06F09189
:100250004006CDB7C193DEB7D1930091210600933C
:100260002206E0913106F0913206E0933F06F093CA
:100270004006C191CDBFD191DEBF0F910FBFFF915D
:10028000EF91DF91CF91BF91AF919F918F917F912E
:100290006F915F914F913F912F911F910F91FF901F
:1002A000EF90DF90CF90BF90AF909F908F907F9016
:1002B0006F905F904F903F902F901F900F900895F8
:1002C0000091210600932206E0913106F09132065A
:1002D000E0933F06F0934006C191CDBFD191DEBFC0
:1002E0000F910FBFFF91EF91DF91CF91BF91AF9130
:1002F0009F918F917F916F915F914F913F912F913E
:100300001F910F91FF90EF90DF90CF90BF90AF9033
:100310009F908F907F906F905F904F903F902F9025
:100320001F900F9008950F921F922F923F924F921D
:100330005F926F927F928F929F92AF92BF92CF9275
:10034000DF92EF92FF920F931F932F933F934F9360
:100350005F936F937F938F939F93AF93BF93CF934D
:10036000DF93EF93FF930FB700680F9300913E0662
:10037000039500933E06013041F4CDB7DEB7E0911E
:100380003F06F0914006C193D1930DEE06BD7894DF
:100390000E94F60600000E94E0050F910FBFFF913A
:1003A000EF91DF91CF91BF91AF919F918F917F910D
:1003B0006F915F914F913F912F911F910F91FF90FE
:1003C000EF90DF90CF90BF90AF909F908F907F90F5
:1003D0006F905F904F903F902F901F900F900895D7
:1003E000A895089508950E9402092AE04AE955E077
:1003F00060E070E085E493E00E94F70724E14AE1C1
:1004000055E060E070E08EED93E00E94F70780E930
:1004100091E00E94E30860E071E080911704909100
:1004200018040E946D0780E991E00E94E30865E2EC
:1004300071E080911704909118040E946D072FE0DD
:1004400046E154E060E070E08EE392E00E94F7073E
:100450002BE048E954E060E070E08FED92E00E940C
:10046000F707109225061092260610922706109282
:10047000280688EC90E00E94E308F3CFCF93DF9347
:10048000CDB7DEB7A3970FB6F894DEBF0FBECDBFD2
:100490000F2EF9E1CF2EDD24D394F02D0F2EFDE0A9
:1004A0008F2EF02D0F2EFAE09F2EF02D0F2EFBE059
:1004B000AF2EF02D0F2EFAE0EF2EF12CF02D6894D8
:1004C000BB24B5F886B1E9B1E07F8F70E82BF0E08E
:1004D000E859FF4FE491EF3F09F46CC0EC9D9001A7
:1004E000ED9D300D11243695279536952795ABE770
:1004F000B4E10E94610B8C011695079589829A825E
:10050000C801EAE4F1E0DE0159962A2D01900D922E
:100510002A95E1F7FE0133963196B7010E942B0B25
:10052000CB010097C9F7B082B182B282B382B482A4
:10053000B582B682B782B086B186B286B386B486FB
:1005400015869801ADECBCEC0E94610B96958795E1
:1005500096958795969587959C01220F331F880F56
:10056000991F880F991F880F991F820F931FD80119
:10057000A81BB90B89E190E08C0F9D1FA80FB91F34
:100580008C9182939801ADECBCEC0E94610B8C01C4
:10059000169507951695079516950795011511055A
:1005A00081F6BE016F5F7F4F809117049091180410
:1005B0000E946D0784E690E00E94E30883CFCF930A
:1005C000DF93CDB7DEB7A3970FB6F894DEBF0FBEAB
:1005D000CDBF84E190E00E94E3080F2EFDE0DF2E06
:1005E000F02D0F2EFBE0CF2EF02D0AE010E06894E6
:1005F000EE24E5F80F2EFDECFF2EF02D88E290E0C2
:100600000E94E30823B12770D982DA82822F90E01A
:10061000EAE4F1E0DE0159963C2D01900D923A9505
:10062000E1F7FE0133963196B8010E942B0BCB0106
:100630000097C9F7E082E182E282E382E482E58208
:10064000E682E78210862F9D812D1124869586955E
:100650008695982F990F392F330F330F930F291B3E
:10066000A9E1B0E0AC0FBD1FA20FB11D9C91929308
:10067000282F8111E8CFBE016F5F7F4F8091170453
:10068000909118040E946D07B9CF0DEC1CECDCECC6
:10069000CDE3812C912C6894AA24A7F80F2EFFE3B8
:1006A000BF2EF02D412C512C612C0F2EFFE37F2EFD
:1006B000F02D0F2EFDEC2F2EF02D0F2EFCEC3F2EEB
:1006C000F02D0DC00DEC1CECDCECCDE3812C912C5D
:1006D0006894AA24A7F80F2EFFE3BF2EF02D2D9AC1
:1006E000282D392D4A2D5B2D60E070E080E89FE3D6
:1006F0000E94E3096B017C01202F312F4D2F5C2FCD
:100700000E94C80A20E030E048E453E40E94C80A8E
:100710000E944B0ACB010E94E3082D98202F312F15
:100720004D2F5C2F60E070E080E89FE30E947E091F
:100730009B01AC01C701B6010E94C80A20E030E06D
:1007400048E453E40E94C80A0E944B0ACB010E946D
:10075000E30880919303909194030E943C070097D3
:1007600009F4BDCFFC0180818130C9F008F4AACF23
:10077000823009F0B4CF042D152DD62DC72D0F2EA4
:10078000FAE98F2EF02D0F2EF9E99F2EF02D0F2E66
:10079000F9E1AF2EF02D6894BB24B6F8A0CF042D5C
:1007A000152DD62DC72D822C932C0F2EFCECAF2EA1
:1007B000F02D0F2EFEE3BF2EF02D91CFCF93DF93C0
:1007C000CDB7DEB769970FB6F894DEBF0FBECDBFC9
:1007D0000F2EF1ECCF2ED12CF02D612C712C0F2E81
:1007E000FEEFAF2EF02D6894882487F80F2EF0ECE2
:1007F0009F2EF02D0F2EF6ECEF2EF12CF02D85E034
:1008000090E00E94E30880911704909118040E94E0
:100810003C07009709F46FC0BC01CE0102960E940C
:100820008F0BF6018081866080838A81882309F49A
:1008300062C0062D172DB12C8D30C9F4C801019668
:10084000E2E0F0E0EC0FFD1FE80FF91F20812D30F2
:1008500071F4E2E0F0E0EC0FFD1FE00FF11FA08269
:10086000E2E0F0E0EC0FFD1FE80FF91F8082E2E00C
:10087000F0E0EC0FFD1FE00FF11F80818D30C9F417
:10088000C8010196E2E0F0E0EC0FFD1FE80FF91F50
:1008900020812A3071F4E2E0F0E0EC0FFD1FE00F60
:1008A000F11FA082E2E0F0E0EC0FFD1FE80FF91F5E
:1008B0009082AE014F5F5F4F61E070E080919904DC
:1008C00090919A040E94AC072C9AE2E0F0E0EC0FC1
:1008D000FD1FE00FF11F8081F70180832C98B394F6
:1008E0000B2D10E0E2E0F0E0EC0FFD1FE00FF11F38
:1008F00080818111A1CFF6018081897F80837FCFA4
:100900000E94AA040E9461080E94DA0480E090E03C
:100910000E945007909394038093930380E090E0AB
:100920000E945007909318048093170481E090E090
:100930000E948F0790939A048093990420E04AE1E3
:1009400056E060E070E083EF91E00E94F7070E94BC
:100950006B06FFCFF8940E94F00184B7877F84BFB5
:10096000E0E6F0E080818861808310822D982C98E9
:10097000259A249A87B1807F87B98AB18F708AB906
:10098000209A219A229A83E084BD8DE085BD82E180
:1009900087BDEEE6F0E0808181608083E4E6F0E0F0
:1009A00080818F7D8083E1ECF0E08081897F80838E
:1009B000789408951092C50087E68093C40088E17A
:1009C0008093C1008EE08093C2000895FA01808375
:1009D000319790833197108231971082319710822E
:1009E000319710823197108231971082319710829F
:1009F000319710823197108231971082319710828F
:100A0000319710823197108231971082319710827E
:100A1000319710823197108231971082319710826E
:100A2000319710823197108231971082319710825E
:100A3000319710823197608331977083319710829C
:100A4000319710823197108231971082319710823E
:100A500031971082319780E88083CA018397089587
:100A6000089508950895F8947894FDCF0F931F93F7
:100A7000CF93DF93FC010585E02FF0E0EB5AFE4FAA
:100A80001081212F30E0D901AB5ABD4FDC91FC0120
:100A9000E20FF31F5281A52FB0E0AB5ABE4FCC91AD
:100AA000AC2FB0E0AB5ABD4FAC91110F110F110F2D
:100AB000C10FBA2FB0955B235283511105C05D2F32
:100AC00050950523FC010587EC2FF0E0EE0FFF1F8A
:100AD000EE52F94F0190F081E02D138612861782B5
:100AE0001682718760874095848548234487411129
:100AF0000BC080913306D82BD0933306F901EC5C00
:100B0000F94F8081A82BA083DF91CF911F910F9186
:100B10000895CF93DF93E0913F06F09140069783CD
:100B20008683A785B0E02089ED01CC5CD94F422FA8
:100B30004095388134233883311107C0318930958D
:100B400040913306342330933306A80FB91F129611
:100B50003C911297232B12962C93DC011D963C910D
:100B60001D972189232B1D962C93DF91CF910895FA
:100B7000E0913F06F09140062785DC01A20FB11DF0
:100B80002089209512963C911297232312962C933C
:100B9000211109C021892095DC011D963C911D97EA
:100BA00023231D962C931486178216820895FC0128
:100BB0001586329680E011928F5F8830E1F70895B4
:100BC000F89480913E06815080933E0690911B06DA
:100BD000892BE1F5E0913306F0E0EB5AFE4F80817E
:100BE00080939203E82FF0E0EC5CF94FE081F0E0B5
:100BF000EB5AFE4F880F880F880F9081890F8093E2
:100C0000210690912206891709F1E82FF0E0EE0FF6
:100C1000FF1FEE52F94F80819181909332068093AD
:100C200031068091250690912606A0912706B09165
:100C300028060196A11DB11D8093250690932606D6
:100C4000A0932706B09328060E9460017894089527
:100C5000F89490913E0680911B06892BD1F5E09186
:100C60003306F0E0EB5AFE4F8081E82FF0E0EC5CB9
:100C7000F94FE081F0E0EB5AFE4F880F880F880FA4
:100C80009081E82FE90FE093210680912206E81772
:100C900001F1F0E0EE0FFF1FEE52F94F80819181DC
:100CA0009093320680933106809125069091260616
:100CB000A0912706B09128060196A11DB11D809331
:100CC000250690932606A0932706B09328060E9437
:100CD00003017894089580911C06811126C0E0914B
:100CE0003306F0E0EB5AFE4FE081AE2FB0E0AC5C93
:100CF000B94FAC91B0E0AB5ABE4FEE0FEE0FEE0F16
:100D00008C91E80FE0932106E0932206F0E0EE0FCD
:100D1000FF1FEE52F94F80819181909332068093AC
:100D200031069093400680933F060E94D3000895B9
:100D3000CF93DF93F894E0912D06F0912E06309733
:100D400009F44FC02281338130932E0620932D0663
:100D50007894718360838587148613861286C82FE2
:100D6000C695C695C695C787D0E0CB5ADD4F98810A
:100D7000918BC82FC770C687D0E0CB5ADD4F9881C2
:100D8000908B1782168211861086F894A82FB0E0F7
:100D9000AA0FBB1FAE52B94FED93FC93A09123064F
:100DA000B0912406B383A28315821482109721F098
:100DB0001596FC93EE931497F0932406E093230684
:100DC000909133068189892B80933306A785B0E003
:100DD000AC5CB94F9C918089892B8C93789480E08E
:100DE00002C0789486E4DF91CF9108950E94320585
:100DF000E0912306F091240685858F3339F14091E7
:100E0000330621E030E0F894828593850097A9F0BD
:100E1000019793878287892B81F4848583FD0BC09A
:100E20008189A785B0E0AC5CB94F5C919089952B26
:100E30009C93482B02C0338722870280F381E02DE8
:100E4000789485858F33F9F640933306F894809132
:100E5000410690914206A0914306B0914406019646
:100E6000A11DB11D8093410690934206A0934306B5
:100E7000B093440678940895FC01F89484858130F9
:100E800021F0789480E090E008952081318121154F
:100E9000310511F0118210827894822F932F0895DA
:100EA000CF93DF93F894C0913C06D0913D062097F4
:100EB00031F02881398130933D0620933C067894A7
:100EC000209739F021E02C8799838883CE010E94F6
:100ED000D705CE01DF91CF910895F894FC012485C8
:100EE000213019F0789481E00895FC0125852223B2
:100EF00041F042E00E94360578940E94280680E086
:100F00000895FC0120813181232B19F0789484E12C
:100F10000895FC0171836083789480E00895CF93F5
:100F2000DF93F894C0913C06D0913D06209731F0B4
:100F30002881398130933D0620933C067894209790
:100F400039F023E02C879B878A87CE010E94D70542
:100F5000CE01DF91CF9108950F931F93CF93DF932D
:100F6000EC018A01F8948C85833021F0789481E03B
:100F7000FA0180838A859B85009739F001979B87CA
:100F80008A877894F80110822DC080913E068823CC
:100F900029F0789482E0F801808324C0E0913F0634
:100FA000F091400684858160848773876287CE01D3
:100FB0000E94890578940E942806F894E0913F06E3
:100FC000F0914006848580FF08C0CE010E94B805DC
:100FD00078948AE0F801808305C01782168278949D
:100FE000F8011082DF91CF911F910F910895BF9268
:100FF000CF92DF92EF92FF920F931F93CF93DF93E5
:10100000B22E2FE32B1508F44FC0F894CB2DD0E06F
:10101000FE01EE0FFF1FEE52F94F0190F081E02D1F
:10102000EF2B09F03EC0FE01EE0FFF1FEE52F94F0D
:1010300021E030E031832083789420E030E00E948A
:10104000E604C12CD12CE12CF12C00E010E020E0D2
:1010500030E040E050E0BC018B2D0E9498068111E9
:1010600017C0F894809130068F5F80933006CC0FC4
:10107000DD1FCE52D94F888199810E943005789426
:1010800080911C06882391F00E94280680E00FC002
:10109000F894CC0FDD1FCE52D94F19821882789464
:1010A00006C0789488E203C08AE201C080E0DF9144
:1010B000CF911F910F91FF90EF90DF90CF90BF9055
:1010C0000895109241061092420610924306109223
:1010D000440610923E0610921B06109230061092A3
:1010E0001C0610921D0610921E0610921F061092EA
:1010F00020061092250610922606109227061092BE
:10110000280610923306E4E3F6E08CE396E01192B1
:10111000E817F907E1F710922206109221061092C3
:101120003206109231061092400610923F0610923D
:10113000240610922306E2EDF6E082E597E0119294
:101140001192E817F907D9F780E792E022E133E03E
:10115000FC01709791838083429682179307C1F7B1
:1011600010920303109202038EE592E090932E06F4
:1011700080932D0683E596E021ED36E0FC013E9755
:10118000918380830E9682179307C1F71092C4064D
:101190001092C30685E496E090933D0680933C064A
:1011A0002FE341E953E060E070E083E395E00E94C3
:1011B000F7072EE341E553E060E070E08AE299E052
:1011C0000E94F70708950097E1F0F894E0913F0638
:1011D000F0914006A785B0E0AC5CB94F208920951E
:1011E0003C9123232C93211107C021892095309114
:1011F00033062323209333069387828778940E94B3
:101200002806089582E090E00E94E308F894109286
:101210001D0610921E0610921F061092200678944A
:1012200088EC90E00E94E308F89480911D0690916C
:101230001E06A0911F06B091200680932906909368
:101240002A06A0932B06B0932C0681E08093D1064A
:10125000789408958091D106811108C080E991E0C9
:101260000E94E3088091D1068823C1F3C4E6F89474
:1012700020911D0630911E0640911F0650912006B8
:1012800020935207309353074093540750935507C8
:1012900010921D0610921E0610921F061092200634
:1012A0007894C0902906D0902A06E0902B06F09002
:1012B0002C06C114D104E104F104B9F0A4E6B0E0B5
:1012C0000E94700BA70196010E943F0B8C2F821B7E
:1012D00085361CF0C0932F060AC088231CF4109298
:1012E0002F0605C080932F0602C010922F060E9481
:1012F000310588EC90E00E94E308B9CF5058BB2735
:10130000AA270ED00BC1FCD030F001D120F031F46F
:101310009F3F11F41EF4F1C00EF4E095E7FBE7C027
:10132000E92F0DD180F3BA17620773078407950779
:1013300018F071F49EF525C10EF4E0950B2EBA2F2E
:10134000A02D0B01B90190010C01CA01A0011124CB
:10135000FF27591B99F0593F50F4503E68F11A1677
:10136000F040A22F232F342F4427585FF3CF469508
:1013700037952795A795F0405395C9F77EF41F162A
:10138000BA0B620B730B840BBAF09150A1F0FF0FF4
:10139000BB1F661F771F881FC2F70EC0BA0F621FE0
:1013A000731F841F48F4879577956795B795F795D0
:1013B0009E3F08F0B3CF9395880F08F09927EE0F62
:1013C0009795879508950CD0A9C0A1D040F098D0EA
:1013D00030F021F45F3F19F08AC05111D3C08DC0A5
:1013E000AED098F39923C9F35523B1F3951B550B50
:1013F000BB27AA2762177307840738F09F5F5F4FE8
:10140000220F331F441FAA1FA9F333D00E2E3AF028
:10141000E0E830D091505040E695001CCAF729D042
:10142000FE2F27D0660F771F881FBB1F2617370791
:101430004807AB07B0E809F0BB0B802DBF01FF27C1
:1014400093585F4F2AF09E3F510568F050C09AC0F4
:101450005F3FECF3983EDCF3869577956795B795FB
:10146000F7959F5FC9F7880F911D9695879597F916
:101470000895E1E0660F771F881FBB1F621773078F
:101480008407BA0720F0621B730B840BBA0BEE1FA4
:1014900088F7E09508955BD088F09F5790F0B92FBA
:1014A0009927B751A0F0D1F0660F771F881F991FB9
:1014B0001AF0BA95C9F712C0B13081F062D0B1E02C
:1014C00008955FC0672F782F8827B85F39F0B93F3C
:1014D000CCF3869577956795B395D9F73EF49095BB
:1014E0008095709561957F4F8F4F9F4F089597F925
:1014F0009F6780E870E060E008959FEF80EC0895BA
:1015000000240A94161617061806090608950024E2
:101510000A9412161306140605060895092E03945C
:10152000000C11F4882352F0BB0F40F4BF2B11F4D0
:1015300060FF04C06F5F7F4F8F4F9F4F089557FD2F
:101540009058440F551F59F05F3F71F04795880F31
:1015500097FB991F61F09F3F79F0879508951216C8
:1015600013061406551FF2CF4695F1DF08C0161674
:1015700017061806991FF1CF869571056105089425
:101580000895E894BB2766277727CB0197F908953C
:101590000BD0C4CFB5DF28F0BADF18F0952309F0DF
:1015A000A6CFABCF1124EECFCADFA0F3959FD1F326
:1015B000950F50E0551F629FF001729FBB27F00D01
:1015C000B11D639FAA27F00DB11DAA1F649F662756
:1015D000B00DA11D661F829F2227B00DA11D621FA5
:1015E000739FB00DA11D621F839FA00D611D221F5F
:1015F000749F3327A00D611D231F849F600D211D43
:10160000822F762F6A2F11249F5750408AF0E1F0E5
:1016100088234AF0EE0FFF1FBB1F661F771F881F2E
:1016200091505040A9F79E3F510570F060CFAACF6E
:101630005F3FECF3983EDCF3869577956795B79519
:10164000F795E7959F5FC1F7FE2B880F911D969543
:10165000879597F9089597FB072E16F4009407D005
:1016600077FD09D00E947B0B07FC05D03EF49095D6
:1016700081959F4F0895709561957F4F0895A1E2E0
:101680001A2EAA1BBB1BFD010DC0AA1FBB1FEE1FFC
:10169000FF1FA217B307E407F50720F0A21BB30B47
:1016A000E40BF50B661F771F881F991F1A9469F7C3
:1016B00060957095809590959B01AC01BD01CF011F
:1016C0000895A29FB001B39FC001A39F700D811D1B
:1016D0001124911DB29F700D811D1124911D08953B
:1016E0000E94610BA59F900DB49F900DA49F800D4B
:1016F000911D11240895AA1BBB1B51E107C0AA1F0D
:10170000BB1FA617B70710F0A61BB70B881F991FA2
:101710005A95A9F780959095BC01CD010895FB01DC
:10172000DC0101900D920020E1F70895F894FFCFBD
:101730000D0D4175746F476F6E69204F4E2020204C
:1017400020200D0A28632920323031362020202025
:1017500020202020000D0D202020202020202020CF
:10176000202020202020200D0A20202020202020A2
:10177000202020202020202020003031323334351A
:101780003637383900000001000200010003000173
:10179000000200010004000100020001000300013A
:1017A0000002000100050001000200010003000129
:1017B000000200010004000100020001000300011A
:1017C0000002000100060001000200010003000108
:1017D00000020001000400010002000100030001FA
:1017E00000020001000500010002000100030001E9
:1017F00000020001000400010002000100030001DA
:1018000000020001000700010002000100030001C6
:1018100000020001000400010002000100030001B9
:1018200000020001000500010002000100030001A8
:101830000002000100040001000200010003000199
:101840000002000100060001000200010003000187
:101850000002000100040001000200010003000179
:101860000002000100050001000200010003000168
:101870000002000100040001000200010003000159
:0E188000000200010001020408102040800058
:00000001FF
