:100000000C9434000C9451000C9451000C94510049
:100010000C9451000C9451000C9451000C9451001C
:100020000C9451000C9451000C9451000C9451000C
:100030000C9451000C9451000C9451000C945100FC
:100040000C9413010C9451000C9451000C94510029
:100050000C9472010C9451000C9451000C945100BA
:100060000C9451000C94510011241FBECFEFD8E026
:10007000DEBFCDBF12E0A0E0B1E0EEE0F4E102C0EF
:1000800005900D92A835B107D9F726E0A8E5B2E0B2
:1000900001C01D92A035B207E1F70E9425030C9420
:1000A000050A0C94000000911605039500931605AF
:1000B000E0912B05F0912C05C191CDBFD191DEBF10
:1000C0000F910FBFFF91EF91DF91CF91BF91AF9152
:1000D0009F918F917F916F915F914F913F912F9160
:1000E0001F910F91FF90EF90DF90CF90BF90AF9056
:1000F0009F908F907F906F905F904F903F902F9048
:100100001F900F9008950F921F922F923F924F923F
:100110005F926F927F928F929F92AF92BF92CF9297
:10012000DF92EF92FF920F931F932F933F934F9382
:100130005F936F937F938F939F93AF93BF93CF936F
:10014000DF93EF93FF930FB70F93E0913905F09191
:100150003A05CDB7C193DEB7D19300911B0500934B
:100160001C05E0912B05F0912C05E0933905F093E7
:100170003A05C191CDBFD191DEBF0F910FBFFF9165
:10018000EF91DF91CF91BF91AF919F918F917F912F
:100190006F915F914F913F912F911F910F91FF9020
:1001A000EF90DF90CF90BF90AF909F908F907F9017
:1001B0006F905F904F903F902F901F900F900895F9
:1001C00000911B0500931C05E0912B05F0912C0577
:1001D000E0933905F0933A05C191CDBFD191DEBFCF
:1001E0000F910FBFFF91EF91DF91CF91BF91AF9131
:1001F0009F918F917F916F915F914F913F912F913F
:100200001F910F91FF90EF90DF90CF90BF90AF9034
:100210009F908F907F906F905F904F903F902F9026
:100220001F900F9008950F921F922F923F924F921E
:100230005F926F927F928F929F92AF92BF92CF9276
:10024000DF92EF92FF920F931F932F933F934F9361
:100250005F936F937F938F939F93AF93BF93CF934E
:10026000DF93EF93FF930FB700680F93009138056A
:10027000039500933805013041F4CDB7DEB7E09126
:100280003905F0913A05C193D1930DEE06BD7894EE
:100290000E948D0500000E9477040F910FBFFF910F
:1002A000EF91DF91CF91BF91AF919F918F917F910E
:1002B0006F915F914F913F912F911F910F91FF90FF
:1002C000EF90DF90CF90BF90AF909F908F907F90F6
:1002D0006F905F904F903F902F901F900F900895D8
:1002E000A895089508950E9499072BE042E154E0F3
:1002F00060E070E08DEB91E00E948E062AE044ED14
:1003000054E060E070E083E392E00E948E0624E116
:1003100044E954E060E070E08CEC92E00E948E06CC
:1003200060E071E080919103909192030E94040635
:1003300080E991E00E947A0764E071E08091910386
:10034000909192030E94040680E991E00E947A074E
:100350006EE071E080919103909192030E940406F7
:1003600010921F051092200510922105109222056F
:1003700088EC90E00E947A07F3CFCF93DF93CDB75C
:10038000DEB769970FB6F894DEBF0FBECDBF689495
:10039000DD24D1F80F2EF1E1EF2EF02DFF24F394A0
:1003A00000E11FE080ED97E00E947A07D982BE014C
:1003B0006F5F7F4F80918D0390918E030E940406A2
:1003C000EFE1F1E0DE0112968E2D01900D928A95FB
:1003D000E1F7BE016E5F7F4F809191039091920390
:1003E0000E94040680ED97E00E947A07F982BE0120
:1003F0006F5F7F4F80918D0390918E030E94040662
:10040000E0E3F1E0DE011296802F01900D928A95D3
:10041000E1F7BE016E5F7F4F80919103909192034F
:100420000E94040680ED97E00E947A071982BE01BF
:100430006F5F7F4F80918D0390918E030E94040621
:10044000E0E4F1E0DE011296812F01900D928A9591
:10045000E1F7BE016E5F7F4F80919103909192030F
:100460000E9404069FCF0DEC1CECDCECCDE3812C4C
:10047000912C6894AA24A7F80F2EFFE3BF2EF02D2D
:10048000412C512C612C0F2EFFE37F2EF02D0F2ECF
:10049000FDEC2F2EF02D0F2EFCEC3F2EF02D0DC07D
:1004A0000DEC1CECDCECCDE3812C912C6894AA249F
:1004B000A7F80F2EFFE3BF2EF02D2D9A282D392DF2
:1004C0004A2D5B2D60E070E080E89FE30E947A088F
:1004D0006B017C01202F312F4D2F5C2F0E945F0973
:1004E00020E030E048E453E40E945F090E94E20803
:1004F000CB010E947A072D98202F312F4D2F5C2F92
:1005000060E070E080E89FE30E9415089B01AC0169
:10051000C701B6010E945F0920E030E048E453E4DF
:100520000E945F090E94E208CB010E947A07809135
:100530008D0390918E030E94D305009709F4BDCFDF
:10054000FC0180818130C9F008F4AACF823009F023
:10055000B4CF042D152DD62DC72D0F2EFAE98F2ED1
:10056000F02D0F2EF9E99F2EF02D0F2EF9E1AF2E71
:10057000F02D6894BB24B6F8A0CF042D152DD62DF0
:10058000C72D822C932C0F2EFCECAF2EF02D0F2EAE
:10059000FEE3BF2EF02D91CFCF93DF93CDB7DEB723
:1005A00069970FB6F894DEBF0FBECDBF0F2EF1ECEA
:1005B000CF2ED12CF02D812C912CA12C0F2EF6ECCE
:1005C000EF2EF12CF02D88EC90E00E947A078091BC
:1005D0009103909192030E94D305009789F1BC0189
:1005E000CE0102960E94FE09F6018081866080831A
:1005F0008A81882329F1082D192DBA2CAE014F5F6D
:100600005F4F61E070E080911304909114040E94A8
:1006100043062C9AE2E0F0E0EC0FFD1FE00FF11F23
:100620008081F70180832C98B3940B2D10E0E2E0D9
:10063000F0E0EC0FFD1FE00FF11F80818111DECF94
:10064000F6018081897F8083BECF0E944F030E9484
:10065000F8060E94710380E090E00E94E705909305
:100660008E0380938D0380E090E00E94E7059093D5
:1006700092038093910381E090E00E94260690937C
:1006800014048093130420E044E155E060E070E03E
:1006900083E791E00E948E060E940205FFCFF89446
:1006A0000E94700184B7877F84BFE0E6F0E080811C
:1006B0008861808310822D982C98259A249A83E053
:1006C00084BD8DE085BD82E187BDEEE6F0E08081EE
:1006D00081608083E4E6F0E080818F7D8083789480
:1006E00008951092C50089E18093C40088E1809349
:1006F000C1008EE08093C2000895FA018083319793
:100700009083319710823197108231971082319700
:100710001082319710823197108231971082319771
:100720001082319710823197108231971082319761
:100730001082319710823197108231971082319751
:100740001082319710823197108231971082319741
:100750001082319710823197108231971082319731
:10076000108231976083319770833197108231976F
:100770001082319710823197108231971082319711
:100780001082319780E88083CA0183970895089585
:1007900008950895F8947894FDCF0F931F93CF9305
:1007A000DF93FC010585E02FF0E0E15BFE4F108157
:1007B000212F30E0D901A15BBD4FDC91FC01E20F9C
:1007C000F31F5281A52FB0E0A15BBE4FCC91AC2F9F
:1007D000B0E0A15BBD4FAC91110F110F110FC10F14
:1007E000BA2FB0955B235283511105C05D2F5095F0
:1007F0000523FC010587EC2FF0E0EE0FFF1FE4530B
:10080000FA4F0190F081E02D13861286178216822E
:1008100071876087409584854823448741110BC0C8
:1008200080912D05D82BD0932D05F901E25DFA4F6B
:100830008081A82BA083DF91CF911F910F91089504
:10084000CF93DF93E0913905F0913A059783868342
:10085000A785B0E02089ED01C25DDA4F422F4095B7
:10086000388134233883311107C031893095409164
:100870002D05342330932D05A80FB91F12963C91F6
:100880001297232B12962C93DC011D963C911D97F9
:100890002189232B1D962C93DF91CF910895E09110
:1008A0003905F0913A052785DC01A20FB11D208999
:1008B000209512963C911297232312962C93211186
:1008C00009C021892095DC011D963C911D972323A9
:1008D0001D962C931486178216820895FC011586A6
:1008E000329680E011928F5F8830E1F70895F89496
:1008F0008091380581508093380590911505892B9A
:10090000E1F5E0912D05F0E0E15BFE4F8081809301
:100910008C03E82FF0E0E25DFA4FE081F0E0E15B6C
:10092000FE4F880F880F880F9081890F80931B05D9
:1009300090911C05891709F1E82FF0E0EE0FFF1FD9
:10094000E453FA4F8081918190932C0580932B057D
:1009500080911F0590912005A0912105B09122055D
:100960000196A11DB11D80931F0590932005A093B2
:100970002105B09322050E94E00078940895F89430
:100980009091380580911505892BD1F5E0912D05C1
:10099000F0E0E15BFE4F8081E82FF0E0E25DFA4F8E
:1009A000E081F0E0E15BFE4F880F880F880F9081B7
:1009B000E82FE90FE0931B0580911C05E81701F172
:1009C000F0E0EE0FFF1FE453FA4F80819181909386
:1009D0002C0580932B0580911F0590912005A091F7
:1009E0002105B09122050196A11DB11D80931F051F
:1009F00090932005A0932105B09322050E948300C7
:100A00007894089580911605811126C0E0912D05F6
:100A1000F0E0E15BFE4FE081AE2FB0E0A25DBA4FA7
:100A2000AC91B0E0A15BBE4FEE0FEE0FEE0F8C91DC
:100A3000E80FE0931B05E0931C05F0E0EE0FFF1FAD
:100A4000E453FA4F8081918190932C0580932B057C
:100A500090933A05809339050E9453000895CF93EF
:100A6000DF93F894E0912705F0912805309709F479
:100A70004FC0228133813093280520932705789435
:100A8000718360838587148613861286C82FC69566
:100A9000C695C695C787D0E0C15BDD4F9881918B25
:100AA000C82FC770C687D0E0C15BDD4F9881908B9F
:100AB0001782168211861086F894A82FB0E0AA0F2C
:100AC000BB1FA453BA4FED93FC93A0911D05B091A9
:100AD0001E05B383A28315821482109721F0159608
:100AE000FC93EE931497F0931E05E0931D059091EF
:100AF0002D058189892B80932D05A785B0E0A25D06
:100B0000BA4F9C918089892B8C93789480E002C0A5
:100B1000789486E4DF91CF9108950E94C903E09113
:100B20001D05F0911E0585858F3339F140912D0506
:100B300021E030E0F894828593850097A9F0019731
:100B400093878287892B81F4848583FD0BC08189FB
:100B5000A785B0E0A25DBA4F5C919089952B9C93DC
:100B6000482B02C0338722870280F381E02D7894DE
:100B700085858F33F9F640932D05F89480913B05D8
:100B800090913C05A0913D05B0913E050196A11DB7
:100B9000B11D80933B0590933C05A0933D05B09318
:100BA0003E0578940895FC01F8948485813021F005
:100BB000789480E090E008952081318121153105FD
:100BC00011F0118210827894822F932F0895CF9381
:100BD000DF93F894C0913605D0913705209731F016
:100BE00028813981309337052093360578942097F2
:100BF00039F021E02C8799838883CE010E946E040E
:100C0000CE01DF91CF910895F894FC012485213025
:100C100019F0789481E00895FC012585222341F0A4
:100C200042E00E94CD0378940E94BF0480E00895C2
:100C3000FC0120813181232B19F0789484E10895FF
:100C4000FC0171836083789480E00895CF93DF93F3
:100C5000F894C0913605D0913705209731F028815E
:100C6000398130933705209336057894209739F0F1
:100C700023E02C879B878A87CE010E946E04CE01D9
:100C8000DF91CF9108950F931F93CF93DF93EC01E2
:100C90008A01F8948C85833021F0789481E0FA0100
:100CA00080838A859B85009739F001979B878A8787
:100CB0007894F80110822DC080913805882329F09E
:100CC000789482E0F801808324C0E0913905F091A6
:100CD0003A0584858160848773876287CE010E948C
:100CE000200478940E94BF04F894E0913905F091B3
:100CF0003A05848580FF08C0CE010E944F04789495
:100D00008AE0F801808305C0178216827894F80182
:100D10001082DF91CF911F910F910895BF92CF92D2
:100D2000DF92EF92FF920F931F93CF93DF93B22E38
:100D30002FE32B1508F44FC0F894CB2DD0E0FE0123
:100D4000EE0FFF1FE453FA4F0190F081E02DEF2BDF
:100D500009F03EC0FE01EE0FFF1FE453FA4F21E001
:100D600030E031832083789420E030E00E947D03DE
:100D7000C12CD12CE12CF12C00E010E020E030E07F
:100D800040E050E0BC018B2D0E942F05811117C05F
:100D9000F89480912A058F5F80932A05CC0FDD1F80
:100DA000C453DA4F888199810E94C7037894809157
:100DB0001605882391F00E94BF0480E00FC0F894CC
:100DC000CC0FDD1FC453DA4F19821882789406C005
:100DD000789488E203C08AE201C080E0DF91CF917D
:100DE0001F910F91FF90EF90DF90CF90BF900895EB
:100DF00010923B0510923C0510923D0510923E0565
:100E0000109238051092150510922A0510921605B9
:100E100010921705109218051092190510921A05D4
:100E200010921F05109220051092210510922205A4
:100E300010922D05EEE2F5E086E395E01192E817B9
:100E4000F907E1F710921C0510921B0510922C0572
:100E500010922B0510923A051092390510921E053A
:100E600010921D05ECECF5E08CE496E011921192E5
:100E7000E817F907D9F78AE692E02CE033E0FC01A5
:100E8000709791838083429682179307C1F71092DF
:100E9000FD021092FC0288E592E090932805809371
:100EA00027058DE495E02BEC35E0FC013E9791831E
:100EB00080830E9682179307C1F71092BE05109299
:100EC000BD058FE395E090933705809336052FE3BA
:100ED0004BE853E060E070E08AEC93E00E948E06FD
:100EE0002EE34BE453E060E070E081EC97E00E9479
:100EF0008E0608950097E1F0F894E0913905F0919D
:100F00003A05A785B0E0A25DBA4F208920953C91B3
:100F100023232C93211107C02189209530912D0581
:100F2000232320932D059387828778940E94BF0402
:100F3000089582E090E00E947A07F89410921705D5
:100F4000109218051092190510921A05789488ECE1
:100F500090E00E947A07F894809117059091180507
:100F6000A0911905B0911A0580932305909324054B
:100F7000A0932505B093260581E08093CB05789456
:100F800008958091CB05811108C080E991E00E940D
:100F90007A078091CB058823C1F3C4E6F8942091A9
:100FA0001705309118054091190550911A052093A5
:100FB0004C0630934D0640934E0650934F061092C8
:100FC0001705109218051092190510921A057894B9
:100FD000C0902305D0902405E0902505F0902605CB
:100FE000C114D104E104F104B9F0A4E6B0E00E9418
:100FF000F309A70196010E94C2098C2F821B853636
:101000001CF0C09329050AC088231CF410922905FE
:1010100005C08093290502C0109229050E94C803CB
:1010200088EC90E00E947A07B9CF5058BB27AA27D6
:101030000ED00BC1FCD030F001D120F031F49F3F35
:1010400011F41EF4F1C00EF4E095E7FBE7C0E92FC0
:101050000DD180F3BA17620773078407950718F05C
:1010600071F49EF525C10EF4E0950B2EBA2FA02D3C
:101070000B01B90190010C01CA01A0011124FF2745
:10108000591B99F0593F50F4503E68F11A16F04040
:10109000A22F232F342F4427585FF3CF469537953F
:1010A0002795A795F0405395C9F77EF41F16BA0B04
:1010B000620B730B840BBAF09150A1F0FF0FBB1FB2
:1010C000661F771F881FC2F70EC0BA0F621F731FFB
:1010D000841F48F4879577956795B795F7959E3F58
:1010E00008F0B3CF9395880F08F09927EE0F9795E6
:1010F000879508950CD0A9C0A1D040F098D030F0C9
:1011000021F45F3F19F08AC05111D3C08DC0AED019
:1011100098F39923C9F35523B1F3951B550BBB27BE
:10112000AA2762177307840738F09F5F5F4F220F6B
:10113000331F441FAA1FA9F333D00E2E3AF0E0E864
:1011400030D091505040E695001CCAF729D0FE2FB0
:1011500027D0660F771F881FBB1F26173707480742
:10116000AB07B0E809F0BB0B802DBF01FF279358F8
:101170005F4F2AF09E3F510568F050C09AC05F3F14
:10118000ECF3983EDCF3869577956795B795F795E0
:101190009F5FC9F7880F911D9695879597F90895D8
:1011A000E1E0660F771F881FBB1F62177307840774
:1011B000BA0720F0621B730B840BBA0BEE1F88F783
:1011C000E09508955BD088F09F5790F0B92F99274C
:1011D000B751A0F0D1F0660F771F881F991F1AF042
:1011E000BA95C9F712C0B13081F062D0B1E008956C
:1011F0005FC0672F782F8827B85F39F0B93FCCF3ED
:10120000869577956795B395D9F73EF49095809537
:10121000709561957F4F8F4F9F4F089597F99F6706
:1012200080E870E060E008959FEF80EC089500246E
:101230000A941616170618060906089500240A943B
:1012400012161306140605060895092E0394000CC1
:1012500011F4882352F0BB0F40F4BF2B11F460FF50
:1012600004C06F5F7F4F8F4F9F4F089557FD905879
:10127000440F551F59F05F3F71F04795880F97FB5A
:10128000991F61F09F3F79F0879508951216130614
:101290001406551FF2CF4695F1DF08C01616170643
:1012A0001806991FF1CF8695710561050894089578
:1012B000E894BB2766277727CB0197F908950BD0D1
:1012C000C4CFB5DF28F0BADF18F0952309F0A6CF18
:1012D000ABCF1124EECFCADFA0F3959FD1F3950FCA
:1012E00050E0551F629FF001729FBB27F00DB11DAA
:1012F000639FAA27F00DB11DAA1F649F6627B00D3A
:10130000A11D661F829F2227B00DA11D621F739F22
:10131000B00DA11D621F839FA00D611D221F749F30
:101320003327A00D611D231F849F600D211D822F77
:10133000762F6A2F11249F5750408AF0E1F08823BE
:101340004AF0EE0FFF1FBB1F661F771F881F9150CB
:101350005040A9F79E3F510570F060CFAACF5F3F84
:10136000ECF3983EDCF3869577956795B795F795FE
:10137000E7959F5FC1F7FE2B880F911D9695879586
:1013800097F90895A1E21A2EAA1BBB1BFD010DC0FF
:10139000AA1FBB1FEE1FFF1FA217B307E407F50725
:1013A00020F0A21BB30BE40BF50B661F771F881F01
:1013B000991F1A9469F760957095809590959B0197
:1013C000AC01BD01CF010895A29FB001B39FC00140
:1013D000A39F700D811D1124911DB29F700D811D61
:1013E0001124911D08950E94E409A59F900DB49FBA
:1013F000900DA49F800D911D11240895FB01DC0127
:0E14000001900D920020E1F70895F894FFCFBF
:10140E0024242400552C33383430302C4E000D0A51
:10141E0075434F53204F4E0D0A2D2D2D0D0A0048AA
:10142E00494748204552522053544154450A0D0015
:10143E004D4544204552522053544154450A0D0007
:10144E004E4F204552522053544154450A0D000030
:10145E00000100020001000300010002000100046F
:10146E00000100020001000300010002000100055E
:10147E00000100020001000300010002000100044F
:10148E00000100020001000300010002000100063D
:10149E00000100020001000300010002000100042F
:1014AE00000100020001000300010002000100051E
:1014BE00000100020001000300010002000100040F
:1014CE0000010002000100030001000200010007FC
:1014DE0000010002000100030001000200010004EF
:1014EE0000010002000100030001000200010005DE
:1014FE0000010002000100030001000200010004CF
:10150E0000010002000100030001000200010006BC
:10151E0000010002000100030001000200010004AE
:10152E00000100020001000300010002000100059D
:10153E00000100020001000300010002000100048E
:10154E000001000200010003000100020001000181
:08155E00020408102040800087
:00000001FF
