S01300004C6162325F53657269616C2E7372656311
S11300000C94B4000C94D1000C94D1000C94D10045
S11300100C94D1000C94D1000C94D1000C94D10018
S11300200C94D1000C94D1000C94D1000C94D10008
S11300300C94D1000C94D1000C94D1000C94D100F8
S11300400C9493010C94D1000C94D1000C94D10025
S11300500C94F2010C94D1000C94D1000C94D100B6
S11300600C94D1000C94D100FF38283718FF2734A2
S11300700839FFFF17FF240D78FF2936FFFFFF35EE
S113008007FFFFFF14137D126869FFFF196A26FF3B
S1130090FF3AFFFFFFFF250E7776FFFFFF6BFFFFA1
S11300A004FF03FF6D6C020158FF59FFFFFFFF338C
S11300B0090A5AFF160BFF0CFFFF2A2BFFFFFFFF55
S11300C0FFFFFFFF15FF7E7F67FF66FFFFFFFFFF58
S11300D0FFFF5BFFFFFFFFFF7475FFFF73FFFFFF71
S11300E05D5E5CFF725F71004847FF4449FFFF1D7E
S11300F0FF46FF45FFFF232279FF7AFF4AFFFF1ED9
S113010006FF7BFFFFFF7C11FFFFFF431AFF1B1C51
S1130110FF3BFFFFFFFFFF0FFFFFFFFFFFFFFFFF9F
S113012005FFFFFF6EFF6F105754FF2D5655FF322A
S1130130FFFFFF2EFFFFFF21FF53FF2C4BFFFF1F8D
S1130140FFFFFFFFFFFFFF20643D6542FF3EFF31DD
S1130150633CFF2FFFFFFF304D524E414C3FFF40A9
S113016062514F50616070FF11241FBECFEFD8E081
S1130170DEBFCDBF12E0A0E0B1E0E6EEF9E102C0DF
S113018005900D92AE35B107D9F727E0AEE5B2E0A0
S113019001C01D92A939B207E1F70E94DB050C9456
S11301A0F10C0C94000000915F06039500935F0628
S11301B0E0917406F0917506C191CDBFD191DEBF77
S11301C00F910FBFFF91EF91DF91CF91BF91AF914D
S11301D09F918F917F916F915F914F913F912F915B
S11301E01F910F91FF90EF90DF90CF90BF90AF9051
S11301F09F908F907F906F905F904F903F902F9043
S11302001F900F9008950F921F922F923F924F923A
S11302105F926F927F928F929F92AF92BF92CF9292
S1130220DF92EF92FF920F931F932F933F934F937D
S11302305F936F937F938F939F93AF93BF93CF936A
S1130240DF93EF93FF930FB70F93E0918206F09142
S11302508306CDB7C193DEB7D193009164060093B2
S11302606506E0917406F0917506E0938206F093BA
S11302708306C191CDBFD191DEBF0F910FBFFF9116
S1130280EF91DF91CF91BF91AF919F918F917F912A
S11302906F915F914F913F912F911F910F91FF901B
S11302A0EF90DF90CF90BF90AF909F908F907F9012
S11302B06F905F904F903F902F901F900F900895F4
S11302C00091640600936506E0917406F09175064A
S11302D0E0938206F0938306C191CDBFD191DEBF36
S11302E00F910FBFFF91EF91DF91CF91BF91AF912C
S11302F09F918F917F916F915F914F913F912F913A
S11303001F910F91FF90EF90DF90CF90BF90AF902F
S11303109F908F907F906F905F904F903F902F9021
S11303201F900F9008950F921F922F923F924F9219
S11303305F926F927F928F929F92AF92BF92CF9271
S1130340DF92EF92FF920F931F932F933F934F935C
S11303505F936F937F938F939F93AF93BF93CF9349
S1130360DF93EF93FF930FB700680F93009181061B
S1130370039500938106013041F4CDB7DEB7E091D7
S11303808206F0918306C193D1930DEE06BD789455
S11303900E94510800000E943B070F910FBFFF917C
S11303A0EF91DF91CF91BF91AF919F918F917F9109
S11303B06F915F914F913F912F911F910F91FF90FA
S11303C0EF90DF90CF90BF90AF909F908F907F90F1
S11303D06F905F904F903F902F901F900F900895D3
S11303E0A895089508950E945D0AECE9F4E08CED67
S11303F094E011921192E817F907D9F72AE04DED2C
S113040055E060E070E08AE994E00E94520924E13A
S11304104DE555E060E070E089E395E00E94520903
S113042080E991E00E943E0A60E071E080911A0444
S113043090911B040E94C80880E991E00E943E0A42
S113044065E271E080911A0490911B040E94C8082F
S11304502FE049E154E060E070E087E492E00E941C
S113046052092BE04BE954E060E070E08CEE92E03E
S11304700E945209109268061092690610926A0648
S113048010926B0688EC90E00E943E0AF3CFCF9363
S1130490DF93CDB7DEB7A3970FB6F894DEBF0FBED8
S11304A0CDBF0F2EF9E1CF2EDD24D394F02D0F2EE6
S11304B0FDE08F2EF02D0F2EFAE09F2EF02D0F2E43
S11304C0FBE0AF2EF02D0F2EFAE0EF2EF12CF02DE5
S11304D06894BB24B5F886B1E9B1E07F8F70E82B4E
S11304E0F0E0E859FF4FE491EF3F09F470C0EC9D50
S11304F09001ED9D300D112436952795369527955D
S1130500ABE7B4E10E94BC0C8C01169507951093DF
S11305105F0200935E0289829A82C801EAE4F1E0F4
S1130520DE0159962A2D01900D922A95E1F7FE01DC
S113053033963196B7010E94860CCB010097C9F718
S1130540B082B182B282B382B482B582B682B782FB
S1130550B086B186B286B386B48615869801ADECB2
S1130560BCEC0E94BC0C96958795969587959695BC
S113057087959C01220F331F880F991F880F991F9D
S1130580880F991F820F931FD801A81BB90B89E10B
S113059090E08C0F9D1FA80FB91F8C918293980136
S11305A0ADECBCEC0E94BC0C8C011695079516951D
S11305B00795169507950115110581F6BE016F5F24
S11305C07F4F80911A0490911B040E94C80884E60E
S11305D090E00E943E0A7FCFCF93DF93CDB7DEB782
S11305E0A8970FB6F894DEBF0FBECDBF8DE0898308
S11305F08A838DE48B8385E48C8381E48D8383E516
S11306008E8383E28F8384E190E00E943E0A8E0110
S1130610075E1F4FCE0108969DA38CA30F2EFDEC01
S11306206F2EF02D502E412EFE013D96FFA3EEA31A
S11306303CA02DA0FEA1F8A77FA088E290E00E9434
S11306403E0A83B18770F82E82E0F8120CC08091C4
S113065060028F3168F58F5F8093600288E290E0DA
S11306600E943E0A25C091E0F9120DC080916002FB
S1130670882309F4CDC081508093600288E290E021
S11306800E943E0AC5C0E4E0FE1212C0E09160027E
S1130690F0E0EE0FFF1FE456FB4F80915E02909155
S11306A05F029183808388E290E00E943E0AB0C09A
S11306B0F7E0FF12ADC00F2EFCE9CF2EF4E0DF2EE1
S11306C0F02DEE24E394F12C6894BB24B5F80F2E9E
S11306D0FBE0AF2EF02D0F2EFDE38F2EF02DB8860C
S11306E0B986BA861B869E2CEAE4F1E0A52DB42DCA
S11306F08A2D01900D928A95E1F79701432D522D91
S11307004F5F5F4FADECBCEC0E94BC0C9C01369576
S1130710279536952795369527952115310581F727
S1130720FA01969C812D1124869586958695982F9D
S1130730990F292F220F220F920F991AD801A90D70
S1130740B11D9C919293982E8111EBCF8B86BC8620
S1130750BD86BE86BF86F601419151916F019A0113
S1130760E8A5F72D3196ADECBCEC0E94BC0C9C01C5
S11307703695279536952795369527952115310574
S113078089F79A01ADECBCEC0E94BC0C9695879558
S113079096958795969587959C01220F331F880F10
S11307A0991F880F991F880F991F820F931FDA01D1
S11307B0A81BB90BA00FB11F8C9182939A01ADECC9
S11307C0BCEC0E94BC0CAC015695479556954795D8
S11307D05695479541155105A1F6188ABE016F5FDC
S11307E07F4F80911A0490911B040E94C80885E0F1
S11307F090E00E943E0AFFEFEF1AFF0A8CEDC81644
S113080084E0D80609F06BCF80E991E00E943E0AAB
S113081080E2888789878A871B86F09060024F2D43
S113082050E09A012F5F3F4FF3948BE0EAE4F1E04C
S1130830D80101900D928A95E1F7FE013896319620
S1130840ADECBCEC0E94BC0C9C013695279536950A
S11308502795369527952115310589F7F69C812D25
S11308601124869586958695982F990F292F220F06
S1130870220F920FF91AD801AF0DB11D9C919293DA
S1130880F82E8111EBCF8DE38B8780E28C878D87E7
S11308908E878F87FA01EE0FFF1FE456FB4F4081CE
S11308A051819A01FE013D963196ADECBCEC0E945B
S11308B0BC0C9C013695279536952795369527953A
S11308C02115310589F79A01ADECBCEC0E94BC0CF2
S11308D09695879596958795969587959C01220F71
S11308E0331F880F991F880F991F880F991F820F34
S11308F0931FDA01A81BB90BA00FB11F8C9182932F
S11309009A01ADECBCEC0E94BC0CAC015695479529
S1130910569547955695479541155105A1F6188A60
S1130920BE016F5F7F4F80911A0490911B040E9457
S1130930C80883CE00E010E0D0E0CFE30F2EFAE940
S11309408F2EF02D0F2EF9E99F2EF02D0F2EF9E1A9
S1130950AF2EF02D6894BB24B6F8412C512C612C99
S11309600F2EFFE37F2EF02D0F2EFDEC2F2EF02DFA
S11309700F2EFCEC3F2EF02D0DC00DEC1CECDCEC2E
S1130980CDE3812C912C6894AA24A7F80F2EFFE3C1
S1130990BF2EF02D2D9A282D392D4A2D5B2D60E088
S11309A070E080E89FE30E943E0B6B017C01202FE6
S11309B0312F4D2F5C2F0E94230C20E030E048E4BF
S11309C053E40E94230C0E94A60BCB010E943E0A12
S11309D02D98202F312F4D2F5C2F60E070E080E8A0
S11309E09FE30E94D90A9B01AC01C701B6010E9492
S11309F0230C20E030E048E453E40E94230C0E94DE
S1130A00A60BCB010E943E0A809196039091970316
S1130A100E949708009709F4BDCFFC0180818130C2
S1130A20C9F008F4AACF823009F0B4CF042D152DF3
S1130A30D62DC72D0F2EFAE98F2EF02D0F2EF9E9A2
S1130A409F2EF02D0F2EF9E1AF2EF02D6894BB24CC
S1130A50B6F8A0CF042D152DD62DC72D822C932C9E
S1130A600F2EFCECAF2EF02D0F2EFEE3BF2EF02D3B
S1130A7091CFCF93DF93CDB7DEB769970FB6F894D4
S1130A80DEBF0FBECDBF0F2EF1ECCF2ED12CF02D3B
S1130A90612C712C0F2EFEEFAF2EF02D689488245C
S1130AA087F80F2EF0EC9F2EF02D0F2EF6ECEF2E84
S1130AB0F12CF02D85E090E00E943E0A80911A040A
S1130AC090911B040E949708009709F46FC0BC0121
S1130AD0CE0102960E94EA0CF60180818660808332
S1130AE08A81882309F462C0062D172DB12C8D301C
S1130AF0C9F4C8010196E2E0F0E0EC0FFD1FE80F35
S1130B00F91F20812D3071F4E2E0F0E0EC0FFD1FBD
S1130B10E00FF11FA082E2E0F0E0EC0FFD1FE80F10
S1130B20F91F8082E2E0F0E0EC0FFD1FE00FF11FFF
S1130B3080818D30C9F4C8010196E2E0F0E0EC0F49
S1130B40FD1FE80FF91F20812A3071F4E2E0F0E084
S1130B50EC0FFD1FE00FF11FA082E2E0F0E0EC0FCC
S1130B60FD1FE80FF91F9082AE014F5F5F4F61E0F8
S1130B7070E08091DC049091DD040E9407092C9AB6
S1130B80E2E0F0E0EC0FFD1FE00FF11F8081F701C0
S1130B9080832C98B3940B2D10E0E2E0F0E0EC0F8E
S1130BA0FD1FE00FF11F80818111A1CFF60180812B
S1130BB0897F80837FCF0E9405060E94BC090E9422
S1130BC0350680E090E00E94AB08909397038093F1
S1130BD0960380E090E00E94AB0890931B048093FE
S1130BE01A0481E090E00E94EA089093DD04809367
S1130BF0DC0420E04DE556E060E070E083EF91E036
S1130C000E9452090E94C607FFCFF8940E94F00187
S1130C1084B7877F84BFE0E6F0E0808188618083C9
S1130C2010822D982C98259A249A87B1807F87B9B1
S1130C308AB18F708AB9209A219A229A83E084BD5E
S1130C408DE085BD82E187BDEEE6F0E080818160C4
S1130C508083E4E6F0E080818F7D8083E1ECF0E046
S1130C608081897F8083789408951092C50087E6F7
S1130C708093C40088E18093C1008EE08093C20019
S1130C800895FA01808331979083319710823197C8
S1130C9010823197108231971082319710823197E8
S1130CA010823197108231971082319710823197D8
S1130CB010823197108231971082319710823197C8
S1130CC010823197108231971082319710823197B8
S1130CD010823197108231971082319710823197A8
S1130CE01082319710823197108231976083319747
S1130CF07083319710823197108231971082319727
S1130D0010823197108231971082319780E8808366
S1130D10CA0183970895089508950895F8947894DE
S1130D20FDCF0F931F93CF93DF93FC010585E02F35
S1130D30F0E0EB5AFE4F1081212F30E0D901AB5A7D
S1130D40BD4FDC91FC01E20FF31F5281A52FB0E0EF
S1130D50AB5ABE4FCC91AC2FB0E0AB5ABD4FAC9167
S1130D60110F110F110FC10FBA2FB0955B235283CE
S1130D70511105C05D2F50950523FC010587EC2F0B
S1130D80F0E0EE0FFF1FEB5EF84F0190F081E02DD5
S1130D901386128617821682718760874095848530
S1130DA04823448741110BC080917606D82BD093F9
S1130DB07606F901E958F94F8081A82BA083DF91C9
S1130DC0CF911F910F910895CF93DF93E091820605
S1130DD0F091830697838683A785B0E02089ED018F
S1130DE0C958D94F422F4095388134233883311163
S1130DF007C03189309540917606342330937606C6
S1130E00A80FB91F12963C911297232B12962C937C
S1130E10DC011D963C911D972189232B1D962C9353
S1130E20DF91CF910895E0918206F09183062785A2
S1130E30DC01A20FB11D2089209512963C911297D6
S1130E40232312962C93211109C021892095DC01BA
S1130E501D963C911D9723231D962C93148617826F
S1130E6016820895FC011586329680E011928F5FF8
S1130E708830E1F70895F894809181068150809339
S1130E80810690915E06892BE1F5E0917606F0E00B
S1130E90EB5AFE4F808180939503E82FF0E0E958E8
S1130EA0F94FE081F0E0EB5AFE4F880F880F880F6E
S1130EB09081890F8093640690916506891709F1E2
S1130EC0E82FF0E0EE0FFF1FEB5EF84F8081918179
S1130ED090937506809374068091680690916906D4
S1130EE0A0916A06B0916B060196A11DB11D809375
S1130EF0680690936906A0936A06B0936B060E94F5
S1130F00600178940895F8949091810680915E062A
S1130F10892BD1F5E0917606F0E0EB5AFE4F808103
S1130F20E82FF0E0E958F94FE081F0E0EB5AFE4F8A
S1130F30880F880F880F9081E82FE90FE0936406EB
S1130F4080916506E81701F1F0E0EE0FFF1FEB5EFC
S1130F50F84F8081918190937506809374068091F7
S1130F60680690916906A0916A06B0916B06019695
S1130F70A11DB11D8093680690936906A0936A062B
S1130F80B0936B060E9403017894089580915F06E4
S1130F90811126C0E0917606F0E0EB5AFE4FE08125
S1130FA0AE2FB0E0A958B94FAC91B0E0AB5ABE4FE8
S1130FB0EE0FEE0FEE0F8C91E80FE0936406E093D2
S1130FC06506F0E0EE0FFF1FEB5EF84F8081918124
S1130FD0909375068093740690938306809382069B
S1130FE00E94D3000895CF93DF93F894E0917006A4
S1130FF0F0917106309709F44FC022813381309308
S113100071062093700678947183608385871486B3
S113101013861286C82FC695C695C695C787D0E095
S1131020CB5ADD4F9881918BC82FC770C687D0E00B
S1131030CB5ADD4F9881908B1782168211861086C9
S1131040F894A82FB0E0AA0FBB1FAB5EB84FED9386
S1131050FC93A0916606B0916706B383A2831582C0
S11310601482109721F01596FC93EE931497F09345
S11310706706E0936606909176068189892B8093B2
S11310807606A785B0E0A958B94F9C918089892B31
S11310908C93789480E002C0789486E4DF91CF91B9
S11310A008950E948D06E0916606F0916706858595
S11310B08F3339F14091760621E030E0F89482854F
S11310C093850097A9F0019793878287892B81F4F0
S11310D0848583FD0BC08189A785B0E0A958B94FE9
S11310E05C919089952B9C93482B02C0338722876F
S11310F00280F381E02D789485858F33F9F640934F
S11311007606F8948091840690918506A0918606CF
S1131110B09187060196A11DB11D8093840690931A
S11311208506A0938606B093870678940895FC01FB
S1131130F8948485813021F0789480E090E00895DB
S1131140208131812115310511F0118210827894AA
S1131150822F932F0895CF93DF93F894C0917F0645
S1131160D0918006209731F0288139813093800610
S113117020937F067894209739F021E02C87998377
S11311808883CE010E943207CE01DF91CF9108956A
S1131190F894FC012485213019F0789481E00895B5
S11311A0FC012585222341F042E00E9491067894B7
S11311B00E94830780E00895FC0120813181232B64
S11311C019F0789484E10895FC0171836083789424
S11311D080E00895CF93DF93F894C0917F06D09177
S11311E08006209731F0288139813093800620933E
S11311F07F067894209739F023E02C879B878A8791
S1131200CE010E943207CE01DF91CF9108950F9352
S11312101F93CF93DF93EC018A01F8948C8583307C
S113122021F0789481E0FA0180838A859B85009778
S113123039F001979B878A877894F80110822DC032
S113124080918106882329F0789482E0F8018083D4
S113125024C0E0918206F0918306848581608487AE
S113126073876287CE010E94E40678940E94830704
S1131270F894E0918206F0918306848580FF08C08B
S1131280CE010E94130778948AE0F801808305C098
S1131290178216827894F8011082DF91CF911F9102
S11312A00F910895BF92CF92DF92EF92FF920F9326
S11312B01F93CF93DF93B22E2FE32B1508F44FC067
S11312C0F894CB2DD0E0FE01EE0FFF1FEB5EF84F3C
S11312D00190F081E02DEF2B09F03EC0FE01EE0FEE
S11312E0FF1FEB5EF84F21E030E0318320837894D8
S11312F020E030E00E944106C12CD12CE12CF12CDD
S113130000E010E020E030E040E050E0BC018B2D34
S11313100E94F307811117C0F894809173068F5FC0
S113132080937306CC0FDD1FCB5ED84F88819981E3
S11313300E948B06789480915F06882391F00E9426
S1131340830780E00FC0F894CC0FDD1FCB5ED84F2D
S113135019821882789406C0789488E203C08AE2DD
S113136001C080E0DF91CF911F910F91FF90EF902A
S1131370DF90CF90BF900895109284061092850656
S113138010928606109287061092810610925E06CD
S11313901092730610925F06109260061092610616
S11313A01092620610926306109268061092690603
S11313B010926A0610926B0610927606E7E7F6E042
S11313C08FE796E01192E817F907E1F710926506A6
S11313D01092640610927506109274061092830699
S11313E0109282061092670610926606E5E1F7E015
S11313F085E997E011921192E817F907D9F783E785
S113140092E025E133E0FC0170979183808342965A
S113141082179307C1F7109206031092050381E621
S113142092E0909371068093700686E996E024E139
S113143037E0FC013E97918380830E9682179307D1
S1131440C1F7109207071092060788E896E0909378
S1131450800680937F062FE344E953E060E070E068
S11314608EE896E00E9452092EE344E553E060E0E2
S113147070E085E89AE00E94520908950097E1F02F
S1131480F894E0918206F0918306A785B0E0A9580C
S1131490B94F208920953C9123232C93211107C017
S11314A0218920953091760623232093760693870D
S11314B0828778940E948307089582E090E00E94D6
S11314C03E0AF89410926006109261061092620629
S11314D010926306789488EC90E00E943E0AF89497
S11314E08091600690916106A0916206B0916306B6
S11314F080936C0690936D06A0936E06B0936F066E
S113150081E08093140778940895809114078111E1
S113151008C080E991E00E943E0A80911407882364
S1131520C1F3C4E6F89420916006309161064091BD
S11315306206509163062093950730939607409373
S113154097075093980710926006109261061092C4
S11315506206109263067894C0906C06D0906D0673
S1131560E0906E06F0906F06C114D104E104F1041A
S1131570B9F0A4E6B0E00E94CB0CA70196010E944A
S11315809A0C8C2F821B85361CF0C09372060AC0FD
S113159088231CF41092720605C08093720602C060
S11315A0109272060E948C0688EC90E00E943E0A1B
S11315B0B9CF5058BB27AA270ED00BC1FCD030F0AE
S11315C001D120F031F49F3F11F41EF4F1C00EF468
S11315D0E095E7FBE7C0E92F0DD180F3BA17620766
S11315E073078407950718F071F49EF525C10EF46E
S11315F0E0950B2EBA2FA02D0B01B90190010C011F
S1131600CA01A0011124FF27591B99F0593F50F436
S1131610503E68F11A16F040A22F232F342F44278E
S1131620585FF3CF469537952795A795F040539586
S1131630C9F77EF41F16BA0B620B730B840BBAF056
S11316409150A1F0FF0FBB1F661F771F881FC2F7C1
S11316500EC0BA0F621F731F841F48F487957795D5
S11316606795B795F7959E3F08F0B3CF9395880F8C
S113167008F09927EE0F9795879508950CD0A9C087
S1131680A1D040F098D030F021F45F3F19F08AC027
S11316905111D3C08DC0AED098F39923C9F355230B
S11316A0B1F3951B550BBB27AA2762177307840751
S11316B038F09F5F5F4F220F331F441FAA1FA9F307
S11316C033D00E2E3AF0E0E830D091505040E695F9
S11316D0001CCAF729D0FE2F27D0660F771F881F5A
S11316E0BB1F261737074807AB07B0E809F0BB0B49
S11316F0802DBF01FF2793585F4F2AF09E3F51056D
S113170068F050C09AC05F3FECF3983EDCF38695D6
S113171077956795B795F7959F5FC9F7880F911DE2
S11317209695879597F90895E1E0660F771F881FCE
S1131730BB1F621773078407BA0720F0621B730B81
S1131740840BBA0BEE1F88F7E09508955BD088F000
S11317509F5790F0B92F9927B751A0F0D1F0660F99
S1131760771F881F991F1AF0BA95C9F712C0B130B4
S113177081F062D0B1E008955FC0672F782F882789
S1131780B85F39F0B93FCCF3869577956795B395F3
S1131790D9F73EF490958095709561957F4F8F4F62
S11317A09F4F089597F99F6780E870E060E008957F
S11317B09FEF80EC089500240A9416161706180665
S11317C00906089500240A94121613061406050641
S11317D00895092E0394000C11F4882352F0BB0FD2
S11317E040F4BF2B11F460FF04C06F5F7F4F8F4F35
S11317F09F4F089557FD9058440F551F59F05F3F70
S113180071F04795880F97FB991F61F09F3F79F01E
S113181087950895121613061406551FF2CF4695A0
S1131820F1DF08C0161617061806991FF1CF869522
S11318307105610508940895E894BB276627772706
S1131840CB0197F908950BD0C4CFB5DF28F0BADFE8
S113185018F0952309F0A6CFABCF1124EECFCADF41
S1131860A0F3959FD1F3950F50E0551F629FF001AF
S1131870729FBB27F00DB11D639FAA27F00DB11D08
S1131880AA1F649F6627B00DA11D661F829F222791
S1131890B00DA11D621F739FB00DA11D621F839F18
S11318A0A00D611D221F749F3327A00D611D231FEE
S11318B0849F600D211D822F762F6A2F11249F573C
S11318C050408AF0E1F088234AF0EE0FFF1FBB1F5F
S11318D0661F771F881F91505040A9F79E3F5105FE
S11318E070F060CFAACF5F3FECF3983EDCF38695AF
S11318F077956795B795F795E7959F5FC1F7FE2BA9
S1131900880F911D9695879597F9089597FB072E53
S113191016F4009407D077FD09D00E94D60C07FC7A
S113192005D03EF4909581959F4F089570956195EB
S11319307F4F0895A1E21A2EAA1BBB1BFD010DC007
S1131940AA1FBB1FEE1FFF1FA217B307E407F5076B
S113195020F0A21BB30BE40BF50B661F771F881F47
S1131960991F1A9469F760957095809590959B01DD
S1131970AC01BD01CF010895A29FB001B39FC00186
S1131980A39F700D811D1124911DB29F700D811DA7
S11319901124911D08950E94BC0CA59F900DB49F25
S11319A0900DA49F800D911D11240895AA1BBB1BAB
S11319B051E107C0AA1FBB1FA617B70710F0A61B4B
S11319C0B70B881F991F5A95A9F780959095BC016C
S11319D0CD010895FB01DC0101900D920020E1F797
S10919E00895F894FFCF06
S11319E60D0D4175746F476F6E69204F4E20202090
S11319F620200D0A28632920323031362020202069
S1131A0620202020000D0D20202020202020202012
S1131A16202020202020200D0A20202020202020E5
S1131A26202020202020202020003031323334355D
S1131A3636373839000000010002000100030001B6
S1131A46000200010004000100020001000300017D
S1131A56000200010005000100020001000300016C
S1131A66000200010004000100020001000300015D
S1131A76000200010006000100020001000300014B
S1131A86000200010004000100020001000300013D
S1131A96000200010005000100020001000300012C
S1131AA6000200010004000100020001000300011D
S1131AB6000200010007000100020001000300010A
S1131AC600020001000400010002000100030001FD
S1131AD600020001000500010002000100030001EC
S1131AE600020001000400010002000100030001DD
S1131AF600020001000600010002000100030001CB
S1131B0600020001000400010002000100030001BC
S1131B1600020001000500010002000100030001AB
S1131B26000200010004000100020001000300019C
S1111B3600020001000102040810204080009B
S9030000FC
