:100000000C9434000C9451000C9451000C94510049
:100010000C9451000C9451000C9451000C9451001C
:100020000C9451000C9451000C9451000C9451000C
:100030000C9451000C9451000C9451000C945100FC
:100040000C9413010C9451000C9451000C94510029
:100050000C9472010C9451000C9451000C945100BA
:100060000C9451000C94510011241FBECFEFD8E026
:10007000DEBFCDBF12E0A0E0B1E0E0E9F2E102C0F6
:1000800005900D92A834B107D9F728E0A8E4B2E0B2
:1000900001C01D92A634B207E1F70E941A030C9426
:1000A00046090C94000000910C07039500930C077F
:1000B000E0912107F0912207C191CDBFD191DEBF20
:1000C0000F910FBFFF91EF91DF91CF91BF91AF9152
:1000D0009F918F917F916F915F914F913F912F9160
:1000E0001F910F91FF90EF90DF90CF90BF90AF9056
:1000F0009F908F907F906F905F904F903F902F9048
:100100001F900F9008950F921F922F923F924F923F
:100110005F926F927F928F929F92AF92BF92CF9297
:10012000DF92EF92FF920F931F932F933F934F9382
:100130005F936F937F938F939F93AF93BF93CF936F
:10014000DF93EF93FF930FB70F93E0912F07F09199
:100150003007CDB7C193DEB7D1930091110700935B
:100160001207E0912107F0912207E0932F07F09307
:100170003007C191CDBFD191DEBF0F910FBFFF916D
:10018000EF91DF91CF91BF91AF919F918F917F912F
:100190006F915F914F913F912F911F910F91FF9020
:1001A000EF90DF90CF90BF90AF909F908F907F9017
:1001B0006F905F904F903F902F901F900F900895F9
:1001C0000091110700931207E0912107F091220797
:1001D000E0932F07F0933007C191CDBFD191DEBFDF
:1001E0000F910FBFFF91EF91DF91CF91BF91AF9131
:1001F0009F918F917F916F915F914F913F912F913F
:100200001F910F91FF90EF90DF90CF90BF90AF9034
:100210009F908F907F906F905F904F903F902F9026
:100220001F900F9008950F921F922F923F924F921E
:100230005F926F927F928F929F92AF92BF92CF9276
:10024000DF92EF92FF920F931F932F933F934F9361
:100250005F936F937F938F939F93AF93BF93CF934E
:10026000DF93EF93FF930FB700680F9300912E0772
:10027000039500932E07013041F4CDB7DEB7E0912E
:100280002F07F0913007C193D19309ED06BD789403
:100290000E94360500000E9420040F910FBFFF91BD
:1002A000EF91DF91CF91BF91AF919F918F917F910E
:1002B0006F915F914F913F912F911F910F91FF90FF
:1002C000EF90DF90CF90BF90AF909F908F907F90F6
:1002D0006F905F904F903F902F901F900F900895D8
:1002E000A895089508950E94DA062BE046E055E0AF
:1002F00060E070E08DED91E00E94CF052AE048E4D7
:1003000056E060E070E083E592E00E94CF0524E1D2
:1003100048E855E060E070E08CEE92E00E94CF0586
:1003200024E14EEF53E060E070E089EC91E00E9440
:10033000CF0524E148E056E060E070E083ED91E015
:100340000E94CF0524E140E854E060E070E08EECCC
:1003500091E00E94CF0524E14AE057E060E070E0C0
:1003600088ED91E00E94CF0560E071E08091850406
:10037000909186040E94AD05109215071092160701
:10038000109217071092180788EC90E00E94BB06A5
:10039000F3CF88EC90E00E94BB06FBCF88EC90E0A6
:1003A0000E94BB06FBCF88EC90E00E94BB06FBCF0F
:1003B00088EC90E00E94BB06FBCFCF93DF93CDB7D4
:1003C000DEB769970FB6F894DEBF0FBECDBF689455
:1003D000DD24D1F80F2EF1E1EF2EF02DFF24F39460
:1003E00000E11FE080ED97E00E94BB06D982BE01CC
:1003F0006F5F7F4F80917D0390917E030E94AD05DA
:10040000EFE0F1E0DE0112968E2D01900D928A95BB
:10041000E1F7BE016E5F7F4F809185049091860465
:100420000E94AD0580ED97E00E94BB06F982BE01F7
:100430006F5F7F4F80917D0390917E030E94AD0599
:10044000E0E2F1E0DE011296802F01900D928A9594
:10045000E1F7BE016E5F7F4F809185049091860425
:100460000E94AD0580ED97E00E94BB061982BE0197
:100470006F5F7F4F80917D0390917E030E94AD0559
:10048000E0E3F1E0DE011296812F01900D928A9552
:10049000E1F7BE016E5F7F4F8091850490918604E5
:1004A0000E94AD059FCF0DEC1CECDCECCDE3812C64
:1004B000912C6894AA24A7F80F2EFFE3BF2EF02DED
:1004C000412C512C612C0F2EFFE37F2EF02D0F2E8F
:1004D000FDEC2F2EF02D0F2EFCEC3F2EF02D0DC03D
:1004E0000DEC1CECDCECCDE3812C912C6894AA245F
:1004F000A7F80F2EFFE3BF2EF02D2D9A282D392DB2
:100500004A2D5B2D60E070E080E89FE30E94BB070E
:100510006B017C01202F312F4D2F5C2F0E94A008F2
:1005200020E030E048E453E40E94A0080E94230841
:10053000CB010E94BB062D98202F312F4D2F5C2F11
:1005400060E070E080E89FE30E9456079B01AC01E9
:10055000C701B6010E94A00820E030E048E453E45F
:100560000E94A0080E942308CB010E94BB06809134
:100570007D0390917E030E947C05009709F4BDCF16
:10058000FC0180818130C9F008F4AACF823009F0E3
:10059000B4CF042D152DD62DC72D0F2EFAE98F2E91
:1005A000F02D0F2EF9E99F2EF02D0F2EF9E1AF2E31
:1005B000F02D6894BB24B6F8A0CF042D152DD62DB0
:1005C000C72D822C932C0F2EFCECAF2EF02D0F2E6E
:1005D000FEE3BF2EF02D91CFCF93DF93CDB7DEB7E3
:1005E00068970FB6F894DEBF0FBECDBF00E088EC71
:1005F00090E00E94BB0680918504909186040E9441
:100600007C050097A1F3BC01CE0101960E943F0931
:100610008981882361F3102F90E00E946A031F5F95
:10062000E1E0F0E0EC0FFD1FE10FF11D8081811191
:10063000F3CFDDCF0E943C030E9439060E945E0387
:1006400080E090E00E94900590937E0380937D036C
:1006500080E090E00E94900590938604809385044A
:1006600020E048E856E060E070E083E791E00E9417
:10067000CF050E94AB04FFCFF8940E94700184B7AD
:10068000877F84BFE0E6F0E080818861808310820C
:100690002D982C98259A249A83E084BD8DE085BD01
:1006A00086E287BDEEE6F0E0808181608083E4E64B
:1006B000F0E080818F7D8083789408951092C5004A
:1006C00089E18093C40088E18093C1008EE080932B
:1006D000C20008952C9AE0ECF0E0908195FFFDCFE8
:1006E0002C988093C6000895FA01808331979083F7
:1006F0003197108231971082319710823197108292
:100700003197108231971082319710823197108281
:100710003197108231971082319710823197108271
:100720003197108231971082319710823197108261
:100730003197108231971082319710823197108251
:100740003197108231971082319710823197108241
:10075000319760833197708331971082319710827F
:100760003197108231971082319710823197108221
:10077000319780E88083CA0183970895089508958A
:100780000895F8947894FDCF0F931F93CF93DF9340
:10079000FC010585E02FF0E0E15CFE4F1081212F88
:1007A00030E0D901A15CBD4FDC91FC01E20FF31FE9
:1007B0005281A52FB0E0A15CBE4FCC91AC2FB0E030
:1007C000A15CBD4FAC91110F110F110FC10FBA2FCA
:1007D000B0955B235283511105C05D2F50950523C1
:1007E000FC010587EC2FF0E0EE0FFF1FEE53F84FF2
:1007F0000190F081E02D1386128617821682718790
:100800006087409584854823448741110BC08091BF
:100810002307D82BD0932307F901EC5DF84F808193
:10082000A82BA083DF91CF911F910F910895FC0118
:100830001586329680E011928F5F8830E1F7089537
:10084000F89480912E07815080932E0790910B078A
:10085000892BE1F5E0912307F0E0E15CFE4F808118
:1008600080937C03E82FF0E0EC5DF84FE081F0E04E
:10087000E15CFE4F880F880F880F9081890F80936D
:10088000110790911207891709F1E82FF0E0EE0F98
:10089000FF1FEE53F84F8081918190932207809340
:1008A00021078091150790911607A0911707B09125
:1008B00018070196A11DB11D809315079093160787
:1008C000A0931707B09318070E94E000789408954A
:1008D000F89490912E0780910B07892BD1F5E09128
:1008E0002307F0E0E15CFE4F8081E82FF0E0EC5D53
:1008F000F84FE081F0E0E15CFE4F880F880F880F31
:100900009081E82FE90FE093110780911207E81713
:1009100001F1F0E0EE0FFF1FEE53F84F808191815F
:1009200090932207809321078091150790911607D5
:10093000A0911707B09118070196A11DB11D8093D2
:10094000150790931607A0931707B09318070E94F6
:1009500083007894089580910C07811126C0E0915E
:100960002307F0E0E15CFE4FE081AE2FB0E0AC5D2C
:10097000B84FAC91B0E0A15CBE4FEE0FEE0FEE0FA2
:100980008C91E80FE0931107E0931207F0E0EE0F6F
:10099000FF1FEE53F84F808191819093220780933F
:1009A00021079093300780932F070E9453000895EA
:1009B000CF93DF93F894E0911D07F0911E073097D5
:1009C00009F44FC02281338130931E0720931D0705
:1009D0007894718360838587148613861286C82F66
:1009E000C695C695C695C787D0E0C15CDD4F988196
:1009F000918BC82FC770C687D0E0C15CDD4F98814E
:100A0000908B1782168211861086F894A82FB0E07A
:100A1000AA0FBB1FAE53B84FED93FC93A0911307E1
:100A2000B0911407B383A28315821482109721F02A
:100A30001596FC93EE931497F0931407E093130725
:100A4000909123078189892B80932307A785B0E0A4
:100A5000AC5DB84F9C918089892B8C93789480E011
:100A600002C0789486E4DF91CF9108950E94C0037C
:100A7000E0911307F091140785858F3339F1409188
:100A8000230721E030E0F894828593850097A9F050
:100A9000019793878287892B81F4848583FD0BC01E
:100AA0008189A785B0E0AC5DB84F5C919089952BAA
:100AB0009C93482B02C0338722870280F381E02D6C
:100AC000789485858F33F9F640932307F8948091C5
:100AD000310790913207A0913307B0913407019606
:100AE000A11DB11D8093310790933207A093330766
:100AF000B093340778940895FC01F894848581308C
:100B000021F0789480E090E00895208131812115D2
:100B1000310511F0118210827894822F932F08955D
:100B2000CF93DF93F894C0912C07D0912D07209795
:100B300031F02881398130932D0720932C07789448
:100B4000209739F021E02C8799838883CE010E9479
:100B50001704CE01DF91CF910895F894FC0124850C
:100B6000213019F0789481E00895FC012585222335
:100B700041F042E00E94C40378940E94680480E03F
:100B80000895FC0120813181232B19F0789484E1B0
:100B90000895FC0171836083789480E00895BF928A
:100BA000CF92DF92EF92FF920F931F93CF93DF9339
:100BB000B22E2FE32B1508F44FC0F894CB2DD0E0C4
:100BC000FE01EE0FFF1FEE53F84F0190F081E02D74
:100BD000EF2B09F03EC0FE01EE0FFF1FEE53F84F62
:100BE00021E030E031832083789420E030E00E94DF
:100BF0007403C12CD12CE12CF12C00E010E020E09A
:100C000030E040E050E0BC018B2D0E94D8048111FF
:100C100017C0F894809120078F5F80932007CC0F36
:100C2000DD1FCE53D84F888199810E94BE037894EE
:100C300080910C07882391F00E94680480E00FC027
:100C4000F894CC0FDD1FCE53D84F198218827894B8
:100C500006C0789488E203C08AE201C080E0DF9198
:100C6000CF911F910F91FF90EF90DF90CF90BF90A9
:100C700008951092310710923207109233071092A4
:100C8000340710922E0710920B0710922007109233
:100C90000C0710920D0710920E0710920F0710927A
:100CA000100710921507109216071092170710924E
:100CB000180710922307E4E2F7E08CE297E0119224
:100CC000E817F907E1F71092120710921107109236
:100CD0002207109221071092300710922F071092CE
:100CE000140710921307E2ECF7E082E498E0119207
:100CF0001192E817F907D9F78AE592E02CEF32E074
:100D0000FC01709791838083429682179307C1F705
:100D10001092ED021092EC0288E492E090931E078C
:100D200080931D0783E497E021EC37E0FC013E97B8
:100D3000918380830E9682179307C1F71092B407B0
:100D40001092B30785E397E090932D0780932C07CB
:100D50002FE34BE753E060E070E081EC93E00E940A
:100D6000CF052EE34BE353E060E070E082E097E0D4
:100D70000E94CF0508950097E1F0F894E0912F07C5
:100D8000F0913007A785B0E0AC5DB84F2089209581
:100D90003C9123232C93211107C021892095309168
:100DA00023072323209323079387828778940E9425
:100DB0006804089582E090E00E94BB06F8941092C7
:100DC0000D0710920E0710920F07109210077894DB
:100DD00088EC90E00E94BB06F89480910D079091FA
:100DE0000E07A0910F07B0911007809319079093F9
:100DF0001A07A0931B07B0931C0781E08093C107DB
:100E0000789408958091C107811108C080E991E02C
:100E10000E94BB068091C1078823C1F3C4E6F89401
:100E200020910D0730910E0740910F075091100748
:100E30002093420830934308409344085093450858
:100E400010920D0710920E0710920F0710921007C4
:100E50007894C0901907D0901A07E0901B07F09083
:100E60001C07C114D104E104F104B9F0A4E6B0E018
:100E70000E943409A70196010E9403098C2F821B4E
:100E800085361CF0C0931F070AC088231CF41092FB
:100E90001F0705C080931F0702C010921F070E9402
:100EA000BF0388EC90E00E94BB06B9CF5058BB2727
:100EB000AA270ED00BC1FCD030F001D120F031F4C4
:100EC0009F3F11F41EF4F1C00EF4E095E7FBE7C07C
:100ED000E92F0DD180F3BA176207730784079507CE
:100EE00018F071F49EF525C10EF4E0950B2EBA2F83
:100EF000A02D0B01B90190010C01CA01A001112420
:100F0000FF27591B99F0593F50F4503E68F11A16CB
:100F1000F040A22F232F342F4427585FF3CF46955C
:100F200037952795A795F0405395C9F77EF41F167E
:100F3000BA0B620B730B840BBAF09150A1F0FF0F48
:100F4000BB1F661F771F881FC2F70EC0BA0F621F34
:100F5000731F841F48F4879577956795B795F79524
:100F60009E3F08F0B3CF9395880F08F09927EE0FB6
:100F70009795879508950CD0A9C0A1D040F098D03E
:100F800030F021F45F3F19F08AC05111D3C08DC0F9
:100F9000AED098F39923C9F35523B1F3951B550BA4
:100FA000BB27AA2762177307840738F09F5F5F4F3C
:100FB000220F331F441FAA1FA9F333D00E2E3AF07D
:100FC000E0E830D091505040E695001CCAF729D097
:100FD000FE2F27D0660F771F881FBB1F26173707E6
:100FE0004807AB07B0E809F0BB0B802DBF01FF2716
:100FF00093585F4F2AF09E3F510568F050C09AC049
:101000005F3FECF3983EDCF3869577956795B7954F
:10101000F7959F5FC9F7880F911D9695879597F96A
:101020000895E1E0660F771F881FBB1F62177307E3
:101030008407BA0720F0621B730B840BBA0BEE1FF8
:1010400088F7E09508955BD088F09F5790F0B92F0E
:101050009927B751A0F0D1F0660F771F881F991F0D
:101060001AF0BA95C9F712C0B13081F062D0B1E080
:1010700008955FC0672F782F8827B85F39F0B93F90
:10108000CCF3869577956795B395D9F73EF490950F
:101090008095709561957F4F8F4F9F4F089597F979
:1010A0009F6780E870E060E008959FEF80EC08950E
:1010B00000240A9416161706180609060895002437
:1010C0000A9412161306140605060895092E0394B1
:1010D000000C11F4882352F0BB0F40F4BF2B11F425
:1010E00060FF04C06F5F7F4F8F4F9F4F089557FD84
:1010F0009058440F551F59F05F3F71F04795880F86
:1011000097FB991F61F09F3F79F08795089512161C
:1011100013061406551FF2CF4695F1DF08C01616C8
:1011200017061806991FF1CF869571056105089479
:101130000895E894BB2766277727CB0197F9089590
:101140000BD0C4CFB5DF28F0BADF18F0952309F033
:10115000A6CFABCF1124EECFCADFA0F3959FD1F37A
:10116000950F50E0551F629FF001729FBB27F00D55
:10117000B11D639FAA27F00DB11DAA1F649F6627AA
:10118000B00DA11D661F829F2227B00DA11D621FF9
:10119000739FB00DA11D621F839FA00D611D221FB3
:1011A000749F3327A00D611D231F849F600D211D97
:1011B000822F762F6A2F11249F5750408AF0E1F03A
:1011C00088234AF0EE0FFF1FBB1F661F771F881F83
:1011D00091505040A9F79E3F510570F060CFAACFC3
:1011E0005F3FECF3983EDCF3869577956795B7956E
:1011F000F795E7959F5FC1F7FE2B880F911D969598
:10120000879597F90895A1E21A2EAA1BBB1BFD0131
:101210000DC0AA1FBB1FEE1FFF1FA217B307E407D5
:10122000F50720F0A21BB30BE40BF50B661F771F2D
:10123000881F991F1A9469F760957095809590950D
:101240009B01AC01BD01CF010895A29FB001B39FE6
:10125000C001A39F700D811D1124911DB29F700DBF
:10126000811D1124911D08950E942509A59F900DAF
:10127000B49F900DA49F800D911D11240895FB0132
:10128000DC0101900D920020E1F70895F894FFCF62
:1012900075434F53204F4E0D0A2D2D2D0D0A00483A
:1012A000494748204552522053544154450A0D00A5
:1012B0004D4544204552522053544154450A0D0097
:1012C0004E4F204552522053544154450A0D0000C0
:1012D00000010002000100030001000200010004FF
:1012E00000010002000100030001000200010005EE
:1012F00000010002000100030001000200010004DF
:1013000000010002000100030001000200010006CC
:1013100000010002000100030001000200010004BE
:1013200000010002000100030001000200010005AD
:10133000000100020001000300010002000100049E
:10134000000100020001000300010002000100078B
:10135000000100020001000300010002000100047E
:10136000000100020001000300010002000100056D
:10137000000100020001000300010002000100045E
:10138000000100020001000300010002000100064C
:10139000000100020001000300010002000100043E
:1013A000000100020001000300010002000100052D
:1013B000000100020001000300010002000100041E
:1013C0000001000200010003000100020001000111
:0813D000020408102040800017
:00000001FF
