S01300004C6162325F426C696E6B792E7372656308
S11300000C9434000C9451000C9451000C94510045
S11300100C9451000C9451000C9451000C94510018
S11300200C9451000C9451000C9451000C94510008
S11300300C9451000C9451000C9451000C945100F8
S11300400C9413010C9451000C9451000C94510025
S11300500C9472010C9451000C9451000C945100B6
S11300600C9451000C94510011241FBECFEFD8E022
S1130070DEBFCDBF12E0A0E0B1E0E4E0FEE002C0EC
S113008005900D92A834B107D9F728E0A8E4B2E0AE
S113009001C01D92A634B207E1F70E947F020C94BE
S11300A000070C94000000910C07039500930C07C3
S11300B0E0912107F0912207C191CDBFD191DEBF1C
S11300C00F910FBFFF91EF91DF91CF91BF91AF914E
S11300D09F918F917F916F915F914F913F912F915C
S11300E01F910F91FF90EF90DF90CF90BF90AF9052
S11300F09F908F907F906F905F904F903F902F9044
S11301001F900F9008950F921F922F923F924F923B
S11301105F926F927F928F929F92AF92BF92CF9293
S1130120DF92EF92FF920F931F932F933F934F937E
S11301305F936F937F938F939F93AF93BF93CF936B
S1130140DF93EF93FF930FB70F93E0912F07F09195
S11301503007CDB7C193DEB7D19300911107009357
S11301601207E0912107F0912207E0932F07F09303
S11301703007C191CDBFD191DEBF0F910FBFFF9169
S1130180EF91DF91CF91BF91AF919F918F917F912B
S11301906F915F914F913F912F911F910F91FF901C
S11301A0EF90DF90CF90BF90AF909F908F907F9013
S11301B06F905F904F903F902F901F900F900895F5
S11301C00091110700931207E0912107F091220793
S11301D0E0932F07F0933007C191CDBFD191DEBFDB
S11301E00F910FBFFF91EF91DF91CF91BF91AF912D
S11301F09F918F917F916F915F914F913F912F913B
S11302001F910F91FF90EF90DF90CF90BF90AF9030
S11302109F908F907F906F905F904F903F902F9022
S11302201F900F9008950F921F922F923F924F921A
S11302305F926F927F928F929F92AF92BF92CF9272
S1130240DF92EF92FF920F931F932F933F934F935D
S11302505F936F937F938F939F93AF93BF93CF934A
S1130260DF93EF93FF930FB700680F9300912E076E
S1130270039500932E07013041F4CDB7DEB7E0912A
S11302802F07F0913007C193D19309ED06BD7894FF
S11302900E949D0400000E9487030F910FBFFF91ED
S11302A0EF91DF91CF91BF91AF919F918F917F910A
S11302B06F915F914F913F912F911F910F91FF90FB
S11302C0EF90DF90CF90BF90AF909F908F907F90F2
S11302D06F905F904F903F902F901F900F900895D4
S11302E0A895089508950E9441062BE046E055E044
S11302F060E070E08BED91E00E94360524E148E86F
S113030055E060E070E081E592E00E94360522E16C
S11303104EEF53E060E070E080EC91E00E9436051F
S113032023E148E056E060E070E081ED91E00E9456
S1130330360525E140E854E060E070E085EC91E0AA
S11303400E94360521E14AE057E060E070E086ED66
S113035091E00E94360560E071E0809185049091FF
S113036086040E9414051092150710921607109225
S113037017071092180788EC90E00E942206F3CF2A
S113038088EC90E00E942206FBCF82E090E00E947D
S113039022064A99FACF1D9A88EC90E00E94220620
S11303A0F4CF88EC90E00E942206FBCF88EC90E02A
S11303B00E942206FBCFCF93DF93CDB7DEB76997B8
S11303C00FB6F894DEBF0FBECDBF6894DD24D1F81C
S11303D00F2EF1E1EF2EF02DFF24F39400E11FE046
S11303E080ED97E00E942206D982BE016F5F7F4FA5
S11303F080917D0390917E030E941405EFE0F1E06B
S1130400DE0112968E2D01900D928A95E1F7BE01C0
S11304106E5F7F4F80918504909186040E9414053D
S113042080ED97E00E942206F982BE016F5F7F4F44
S113043080917D0390917E030E941405E0E2F1E037
S1130440DE011296802F01900D928A95E1F7BE018C
S11304506E5F7F4F80918504909186040E941405FD
S113046080ED97E00E9422061982BE016F5F7F4FE4
S113047080917D0390917E030E941405E0E3F1E0F6
S1130480DE011296812F01900D928A95E1F7BE014B
S11304906E5F7F4F80918504909186040E941405BD
S11304A09FCFCF93DF93CDB7DEB768970FB6F8949D
S11304B0DEBF0FBECDBF00E088EC90E00E942206B4
S11304C080918504909186040E94E3040097A1F32F
S11304D0BC01CE0101960E94F9068981882361F34B
S11304E0102F90E00E94D1021F5FE1E0F0E0EC0FDA
S11304F0FD1FE10FF11D80818111F3CFDDCF0E943B
S1130500A1020E94A0050E94C50280E090E00E9422
S1130510F70490937E0380937D0380E090E00E9433
S1130520F704909386048093850420E048E856E01D
S113053060E070E083E791E00E9436050E941204B7
S1130540FFCFF8940E94700184B7877F84BFE0E6F0
S1130550F0E080818861808310822D982C98259A00
S1130560249852985A9A83E084BD8DE085BD86E232
S113057087BDEEE6F0E0808181608083E4E6F0E010
S113058080818F7D8083789408951092C50089E1DD
S11305908093C40088E18093C1008EE08093C20000
S11305A008952C9AE0ECF0E0908195FFFDCF2C9813
S11305B08093C6000895FA01808331979083319720
S11305C010823197108231971082319710823197BF
S11305D010823197108231971082319710823197AF
S11305E0108231971082319710823197108231979F
S11305F0108231971082319710823197108231978F
S1130600108231971082319710823197108231977E
S1130610108231971082319710823197108231976E
S113062060833197708331971082319710823197AC
S1130630108231971082319710823197108231974E
S113064080E88083CA0183970895089508950895E2
S1130650F8947894FDCF0F931F93CF93DF93FC010D
S11306600585E02FF0E0E15CFE4F1081212F30E0A2
S1130670D901A15CBD4FDC91FC01E20FF31F528153
S1130680A52FB0E0A15CBE4FCC91AC2FB0E0A15C33
S1130690BD4FAC91110F110F110FC10FBA2FB095AF
S11306A05B235283511105C05D2F50950523FC0136
S11306B00587EC2FF0E0EE0FFF1FEE53F84F01908B
S11306C0F081E02D13861286178216827187608767
S11306D0409584854823448741110BC080912307AA
S11306E0D82BD0932307F901EC5DF84F8081A82B18
S11306F0A083DF91CF911F910F910895FC0115867E
S1130700329680E011928F5F8830E1F70895F89473
S113071080912E07815080932E0790910B07892B8F
S1130720E1F5E0912307F0E0E15CFE4F80818093E6
S11307307C03E82FF0E0EC5DF84FE081F0E0E15C51
S1130740FE4F880F880F880F9081890F80931107BF
S113075090911207891709F1E82FF0E0EE0FFF1FBF
S1130760EE53F84F80819181909322078093210763
S11307708091150790911607A0911707B09118075B
S11307800196A11DB11D8093150790931607A093A0
S11307901707B09318070E94E00078940895F8941E
S11307A090912E0780910B07892BD1F5E0912307B7
S11307B0F0E0E15CFE4F8081E82FF0E0EC5DF84F63
S11307C0E081F0E0E15CFE4F880F880F880F908194
S11307D0E82FE90FE093110780911207E81701F160
S11307E0F0E0EE0FFF1FEE53F84F8081918190935C
S11307F02207809321078091150790911607A091F5
S11308001707B09118070196A11DB11D8093150714
S113081090931607A0931707B09318070E948300BC
S11308207894089580910C07811126C0E0912307E4
S1130830F0E0E15CFE4FE081AE2FB0E0AC5DB84F7C
S1130840AC91B0E0A15CBE4FEE0FEE0FEE0F8C91B9
S1130850E80FE0931107E0931207F0E0EE0FFF1F9B
S1130860EE53F84F80819181909322078093210762
S11308709093300780932F070E9453000895CF93DD
S1130880DF93F894E0911D07F0911E07309709F467
S11308904FC02281338130931E0720931D07789423
S11308A0718360838587148613861286C82FC69544
S11308B0C695C695C787D0E0C15CDD4F9881918B02
S11308C0C82FC770C687D0E0C15CDD4F9881908B7C
S11308D01782168211861086F894A82FB0E0AA0F0A
S11308E0BB1FAE53B84FED93FC93A0911307B09187
S11308F01407B383A28315821482109721F01596EE
S1130900FC93EE931497F0931407E09313079091DC
S113091023078189892B80932307A785B0E0AC5DE9
S1130920B84F9C918089892B8C93789480E002C085
S1130930789486E4DF91CF9108950E942703E09193
S11309401307F091140785858F3339F140912307FC
S113095021E030E0F894828593850097A9F001970F
S113096093878287892B81F4848583FD0BC08189D9
S1130970A785B0E0AC5DB84F5C919089952B9C93B2
S1130980482B02C0338722870280F381E02D7894BC
S113099085858F33F9F640932307F89480913107C6
S11309A090913207A0913307B09134070196A11DAD
S11309B0B11D8093310790933207A0933307B0930E
S11309C0340778940895FC01F8948485813021F0EB
S11309D0789480E090E008952081318121153105DB
S11309E011F0118210827894822F932F0895CF935F
S11309F0DF93F894C0912C07D0912D07209731F004
S1130A002881398130932D0720932C0778942097DF
S1130A1039F021E02C8799838883CE010E947E03DC
S1130A20CE01DF91CF910895F894FC012485213003
S1130A3019F0789481E00895FC012585222341F082
S1130A4042E00E942B0378940E94CF0380E0089533
S1130A50FC0120813181232B19F0789484E10895DD
S1130A60FC0171836083789480E00895BF92CF92F3
S1130A70DF92EF92FF920F931F93CF93DF93B22EE7
S1130A802FE32B1508F44FC0F894CB2DD0E0FE01D2
S1130A90EE0FFF1FEE53F84F0190F081E02DEF2B86
S1130AA009F03EC0FE01EE0FFF1FEE53F84F21E0A8
S1130AB030E031832083789420E030E00E94DB0230
S1130AC0C12CD12CE12CF12C00E010E020E030E02E
S1130AD040E050E0BC018B2D0E943F04811117C0FF
S1130AE0F894809120078F5F80932007CC0FDD1F3F
S1130AF0CE53D84F888199810E94250378948091A0
S1130B000C07882391F00E94CF0380E00FC0F89473
S1130B10CC0FDD1FCE53D84F19821882789406C0AB
S1130B20789488E203C08AE201C080E0DF91CF912B
S1130B301F910F91FF90EF90DF90CF90BF90089599
S1130B401092310710923207109233071092340733
S1130B5010922E0710920B071092200710920C0788
S1130B6010920D0710920E0710920F0710921007A3
S1130B701092150710921607109217071092180773
S1130B8010922307E4E2F7E08CE297E01192E81771
S1130B90F907E1F710921207109211071092220739
S1130BA0109221071092300710922F071092140709
S1130BB010921307E2ECF7E082E498E011921192AC
S1130BC0E817F907D9F78AE592E02CEF32E0FC0147
S1130BD0709791838083429682179307C1F710928E
S1130BE0ED021092EC0288E492E090931E07809349
S1130BF01D0783E497E021EC37E0FC013E979183E5
S1130C0080830E9682179307C1F71092B40710924F
S1130C10B30785E397E090932D0780932C072FE388
S1130C204BE753E060E070E088E293E00E94360511
S1130C302EE34BE353E060E070E089E696E00E9427
S1130C40360508950097E1F0F894E0912F07F091AC
S1130C503007A785B0E0AC5DB84F208920953C9162
S1130C6023232C93211107C0218920953091230738
S1130C702323209323079387828778940E94CF03AA
S1130C80089582E090E00E942206F89410920D07E5
S1130C9010920E0710920F0710921007789488ECA8
S1130CA090E00E942206F89480910D0790910E071F
S1130CB0A0910F07B09110078093190790931A071A
S1130CC0A0931B07B0931C0781E08093C10778941D
S1130CD008958091C107811108C080E991E00E94C4
S1130CE022068091C1078823C1F3C4E6F8942091B9
S1130CF00D0730910E0740910F0750911007209374
S1130D004208309343084093440850934508109296
S1130D100D0710920E0710920F0710921007789487
S1130D20C0901907D0901A07E0901B07F0901C0799
S1130D30C114D104E104F104B9F0A4E6B0E00E94C6
S1130D40EE06A70196010E94BD068C2F821B8536F4
S1130D501CF0C0931F070AC088231CF410921F07BD
S1130D6005C080931F0702C010921F070E9426032C
S1130D7088EC90E00E942206B9CFA1E21A2EAA1BA9
S1130D80BB1BFD010DC0AA1FBB1FEE1FFF1FA21737
S1130D90B307E407F50720F0A21BB30BE40BF50B34
S1130DA0661F771F881F991F1A9469F760957095BD
S1130DB0809590959B01AC01BD01CF010895A29F40
S1130DC0B001B39FC001A39F700D811D1124911D1B
S1130DD0B29F700D811D1124911D08950E94DF069C
S1130DE0A59F900DB49F900DA49F800D911D11247B
S1130DF00895FB01DC0101900D920020E1F70895B4
S1070E00F894FFCF90
S1130E0475434F53204F4E0D0A2D2D2D0D0A0048C6
S1130E14494748204552522053544154450A0D0031
S1130E244D4544204552522053544154450A0D0023
S1130E344E4F204552522053544154450A0D00004C
S1130E44000100020001000300010002000100048B
S1130E54000100020001000300010002000100057A
S1130E64000100020001000300010002000100046B
S1130E740001000200010003000100020001000659
S1130E84000100020001000300010002000100044B
S1130E94000100020001000300010002000100053A
S1130EA4000100020001000300010002000100042B
S1130EB40001000200010003000100020001000718
S1130EC4000100020001000300010002000100040B
S1130ED400010002000100030001000200010005FA
S1130EE400010002000100030001000200010004EB
S1130EF400010002000100030001000200010006D9
S1130F0400010002000100030001000200010004CA
S1130F1400010002000100030001000200010005B9
S1130F2400010002000100030001000200010004AA
S1130F34000100020001000300010002000100019D
S10B0F440204081020408000A3
S9030000FC
