S01300004C6162325F53657269616C2E7372656311
S11300000C94B4000C94D1000C94D1000C94D10045
S11300100C94D1000C94D1000C94D1000C94D10018
S11300200C94D1000C94D1000C94D1000C94D10008
S11300300C94D1000C94D1000C94D1000C94D100F8
S11300400C9493010C94D1000C94D1000C94D10025
S11300500C94F2010C94D1000C94D1000C94D100B6
S11300600C94D1000C94D100FF38283718FF2734A2
S11300700839FFFF17FF240D78FF2936FFFFFF35EE
S113008007FFFFFF14137D126869FFFF196A26FF3B
S1130090FF3AFFFFFFFF250E7776FFFFFF6BFFFFA1
S11300A004FF03FF6D6C020158FF59FFFFFFFF338C
S11300B0090A5AFF160BFF0CFFFF2A2BFFFFFFFF55
S11300C0FFFFFFFF15FF7E7F67FF66FFFFFFFFFF58
S11300D0FFFF5BFFFFFFFFFF7475FFFF73FFFFFF71
S11300E05D5E5CFF725F71004847FF4449FFFF1D7E
S11300F0FF46FF45FFFF232279FF7AFF4AFFFF1ED9
S113010006FF7BFFFFFF7C11FFFFFF431AFF1B1C51
S1130110FF3BFFFFFFFFFF0FFFFFFFFFFFFFFFFF9F
S113012005FFFFFF6EFF6F105754FF2D5655FF322A
S1130130FFFFFF2EFFFFFF21FF53FF2C4BFFFF1F8D
S1130140FFFFFFFFFFFFFF20643D6542FF3EFF31DD
S1130150633CFF2FFFFFFF304D524E414C3FFF40A9
S113016062514F50616070FF11241FBECFEFD8E081
S1130170DEBFCDBF12E0A0E0B1E0E0E7F6E102C0EF
S113018005900D92AE33B107D9F727E0AEE3B2E0A4
S113019001C01D92A633B207E1F70E9428040C9413
S11301A0360B0C9400000091FC0503950093FC05AC
S11301B0E0911106F0911206C191CDBFD191DEBF3D
S11301C00F910FBFFF91EF91DF91CF91BF91AF914D
S11301D09F918F917F916F915F914F913F912F915B
S11301E01F910F91FF90EF90DF90CF90BF90AF9051
S11301F09F908F907F906F905F904F903F902F9043
S11302001F900F9008950F921F922F923F924F923A
S11302105F926F927F928F929F92AF92BF92CF9292
S1130220DF92EF92FF920F931F932F933F934F937D
S11302305F936F937F938F939F93AF93BF93CF936A
S1130240DF93EF93FF930FB70F93E0911F06F091A5
S11302502006CDB7C193DEB7D19300910106009378
S11302600206E0911106F0911206E0931F06F09346
S11302702006C191CDBFD191DEBF0F910FBFFF9179
S1130280EF91DF91CF91BF91AF919F918F917F912A
S11302906F915F914F913F912F911F910F91FF901B
S11302A0EF90DF90CF90BF90AF909F908F907F9012
S11302B06F905F904F903F902F901F900F900895F4
S11302C00091010600930206E0911106F0911206D6
S11302D0E0931F06F0932006C191CDBFD191DEBFFC
S11302E00F910FBFFF91EF91DF91CF91BF91AF912C
S11302F09F918F917F916F915F914F913F912F913A
S11303001F910F91FF90EF90DF90CF90BF90AF902F
S11303109F908F907F906F905F904F903F902F9021
S11303201F900F9008950F921F922F923F924F9219
S11303305F926F927F928F929F92AF92BF92CF9271
S1130340DF92EF92FF920F931F932F933F934F935C
S11303505F936F937F938F939F93AF93BF93CF9349
S1130360DF93EF93FF930FB700680F9300911E067E
S1130370039500931E06013041F4CDB7DEB7E0913A
S11303801F06F0912006C193D1930DEE06BD78941B
S11303900E94960600000E9480050F910FBFFF91F6
S11303A0EF91DF91CF91BF91AF919F918F917F9109
S11303B06F915F914F913F912F911F910F91FF90FA
S11303C0EF90DF90CF90BF90AF909F908F907F90F1
S11303D06F905F904F903F902F901F900F900895D3
S11303E0A895089508950E94A2082BE048E754E0D8
S11303F060E070E084EC92E00E9497072AE04AE70C
S113040055E060E070E086E393E00E9497072FE0F8
S113041046EF53E060E070E086E492E00E949707C4
S113042024E14AEF54E060E070E08FEC93E00E9436
S1130430970760E071E08091F7039091F8030E94C0
S11304400D0780E991E00E94830864E071E08091E7
S1130450F7039091F8030E940D0780E991E00E9450
S113046083086EE071E08091F7039091F8030E9495
S11304700D071092050610920606109207061092B8
S1130480080688EC90E00E948308F3CFCF93DF93B3
S1130490CDB7DEB768970FB6F894DEBF0FBECDBFF9
S11304A00F2EFAE0EF2EF12CF02D0F2EFDE0CF2EC3
S11304B0F02D0F2EFAE0DF2EF02DA12CB12C0F2EF3
S11304C0F0E39F2EF02D86B1E9B1E07F8F70E82B29
S11304D0F0E0E859FF4FE491E1110DC09982CA821E
S11304E0DB82BE016F5F7F4F8091F7039091F80329
S11304F00E940D0739C02E2F30E021153105C9F1B6
S1130500C9010A2D1B2DF8013196B7010E94CB0AAF
S1130510CB01009711F08F01F6CFA1E0B0E0AC0F52
S1130520BD1FAE0FBF1FCC92A3E0B0E0AC0FBD1F48
S1130530A00FB11FDC92FF2304F50DC03197C90150
S1130540B7010E94CB0A805DD8018E938D01262FBE
S1130550372FFF239CF7BE016F5F7F4F8091F70316
S11305609091F8030E940D0788EC90E00E948308A4
S1130570AACFC982DA82EA2DFB2D01E010E00C0F2C
S11305801D1F0E0F1F1FDACFCF93DF93CDB7DEB73A
S113059069970FB6F894DEBF0FBECDBF6894EE2402
S11305A0E1F817E0FF24F39408E080ED97E00E945F
S11305B08308E982BE016F5F7F4F8091730390913E
S11305C074030E940D07EFE1F1E0DE011296812F22
S11305D001900D928A95E1F7BE016E5F7F4F809185
S11305E0F7039091F8030E940D0780ED97E00E94B5
S11305F08308F982BE016F5F7F4F809173039091EE
S113060074030E940D07E6E2F1E0DE011296802FEA
S113061001900D928A95E1F7BE016E5F7F4F809144
S1130620F7039091F8030E940D0780ED97E00E9474
S113063083081982BE016F5F7F4F8091730390918D
S113064074030E940D07EEE2F1E0DE011296812FA1
S113065001900D928A95E1F7BE016E5F7F4F809104
S1130660F7039091F8030E940D079FCF0DEC1CEC4B
S1130670DCECCDE3812C912C6894AA24A7F80F2EEE
S1130680FFE3BF2EF02D412C512C612C0F2EFFE3E4
S11306907F2EF02D0F2EFDEC2F2EF02D0F2EFCECC7
S11306A03F2EF02D0DC00DEC1CECDCECCDE3812CC9
S11306B0912C6894AA24A7F80F2EFFE3BF2EF02DE7
S11306C02D9A282D392D4A2D5B2D60E070E080E8AD
S11306D09FE30E9483096B017C01202F312F4D2F52
S11306E05C2F0E94680A20E030E048E453E40E9452
S11306F0680A0E94EB09CB010E9483082D98202FE1
S1130700312F4D2F5C2F60E070E080E89FE30E9462
S11307101E099B01AC01C701B6010E94680A20E0D2
S113072030E048E453E40E94680A0E94EB09CB01DC
S11307300E94830880917303909174030E94DC06E5
S1130740009709F4BDCFFC0180818130C9F008F421
S1130750AACF823009F0B4CF042D152DD62DC72D84
S11307600F2EFAE98F2EF02D0F2EF9E99F2EF02D82
S11307700F2EF9E1AF2EF02D6894BB24B6F8A0CF6C
S1130780042D152DD62DC72D822C932C0F2EFCEC69
S1130790AF2EF02D0F2EFEE3BF2EF02D91CFCF9371
S11307A0DF93CDB7DEB769970FB6F894DEBF0FBEFF
S11307B0CDBF0F2EF1ECCF2ED12CF02D812C912C0E
S11307C0A12C0F2EF6ECEF2EF12CF02D88EC90E0FE
S11307D00E9483088091F7039091F8030E94DC063D
S11307E0009789F1BC01CE0102960E942F0BF601FD
S11307F08081866080838A81882329F1082D192DC0
S1130800BA2CAE014F5F5F4F61E070E080917904D4
S113081090917A040E944C072C9AE2E0F0E0EC0FED
S1130820FD1FE00FF11F8081F70180832C98B394A2
S11308300B2D10E0E2E0F0E0EC0FFD1FE00FF11FE4
S113084080818111DECFF6018081897F8083BECFD4
S11308500E9452040E9401080E947A0480E090E001
S11308600E94F006909374038093730380E090E0F9
S11308700E94F0069093F8038093F70381E090E0E0
S11308800E942F0790937A048093790420E04AEF22
S113089055E060E070E083EF91E00E9497070E94CA
S11308A00B06FFCFF8940E94F00184B7877F84BFC2
S11308B0E0E6F0E080818861808310822D982C9896
S11308C0259A249A87B1807F87B98AB18F708AB9B3
S11308D083E084BD8DE085BD82E187BDEEE6F0E076
S11308E0808181608083E4E6F0E080818F7D808375
S11308F0789408951092C50089E18093C40088E13A
S11309008093C1008EE08093C2000895FA01808331
S113091031979083319710823197108231971082EA
S1130920319710823197108231971082319710825B
S1130930319710823197108231971082319710824B
S1130940319710823197108231971082319710823B
S1130950319710823197108231971082319710822B
S1130960319710823197108231971082319710821B
S11309703197108231976083319770833197108259
S113098031971082319710823197108231971082FB
S113099031971082319780E88083CA018397089544
S11309A0089508950895F8947894FDCF0F931F93B4
S11309B0CF93DF93FC010585E02FF0E0EB5CFE4F65
S11309C01081212F30E0D901AB5CBD4FDC91FC01DB
S11309D0E20FF31F5281A52FB0E0AB5CBE4FCC9168
S11309E0AC2FB0E0AB5CBD4FAC91110F110F110FE8
S11309F0C10FBA2FB0955B235283511105C05D2FEF
S1130A0050950523FC010587EC2FF0E0EE0FFF1F46
S1130A10EE54F94F0190F081E02D1386128617826F
S1130A2016827187608740958485482344874111E5
S1130A300BC080911306D82BD0931306F901EC5EFA
S1130A40F94F8081A82BA083DF91CF911F910F9143
S1130A500895CF93DF93E0911F06F09120069783CA
S1130A608683A785B0E02089ED01CC5ED94F422F63
S1130A704095388134233883311107C0318930954A
S1130A8040911306342330931306A80FB91F12960E
S1130A903C911297232B12962C93DC011D963C91CA
S1130AA01D972189232B1D962C93DF91CF910895B7
S1130AB0E0911F06F09120062785DC01A20FB11DED
S1130AC02089209512963C911297232312962C93F9
S1130AD0211109C021892095DC011D963C911D97A7
S1130AE023231D962C931486178216820895FC01E5
S1130AF01586329680E011928F5F8830E1F7089571
S1130B00F89480911E06815080931E069091FB05F7
S1130B10892BE1F5E0911306F0E0EB5CFE4F808158
S1130B2080937203E82FF0E0EC5EF94FE081F0E08F
S1130B30EB5CFE4F880F880F880F9081890F80939C
S1130B40010690910206891709F1E82FF0E0EE0FF3
S1130B50FF1FEE54F94F8081918190931206809388
S1130B6011068091050690910606A0910706B091A2
S1130B7008060196A11DB11D8093050690930606F3
S1130B80A0930706B09308060E9460017894089524
S1130B90F89490911E068091FB05892BD1F5E09184
S1130BA01306F0E0EB5CFE4F8081E82FF0E0EC5E92
S1130BB0F94FE081F0E0EB5CFE4F880F880F880F5F
S1130BC09081E82FE90FE093010680910206E8176F
S1130BD001F1F0E0EE0FFF1FEE54F94F8081918197
S1130BE09093120680931106809105069091060653
S1130BF0A0910706B09108060196A11DB11D80932E
S1130C00050690930606A0930706B09308060E9473
S1130C100301789408958091FC05811126C0E09128
S1130C201306F0E0EB5CFE4FE081AE2FB0E0AC5E6B
S1130C30B94FAC91B0E0AB5CBE4FEE0FEE0FEE0FD0
S1130C408C91E80FE0930106E0930206F0E0EE0FCA
S1130C50FF1FEE54F94F8081918190931206809387
S1130C6011069093200680931F060E94D3000895D6
S1130C70CF93DF93F894E0910D06F0910E06309730
S1130C8009F44FC02281338130930E0620930D0660
S1130C907894718360838587148613861286C82F9F
S1130CA0C695C695C695C787D0E0CB5CDD4F9881C5
S1130CB0918BC82FC770C687D0E0CB5CDD4F98817D
S1130CC0908B1782168211861086F894A82FB0E0B4
S1130CD0AA0FBB1FAE54B94FED93FC93A09103062A
S1130CE0B0910406B383A28315821482109721F075
S1130CF01596FC93EE931497F0930406E093030681
S1130D00909113068189892B80931306A785B0E0FF
S1130D10AC5EB94F9C918089892B8C93789480E048
S1130D2002C0789486E4DF91CF9108950E94D204A2
S1130D30E0910306F091040685858F3339F14091E3
S1130D40130621E030E0F894828593850097A9F09A
S1130D50019793878287892B81F4848583FD0BC057
S1130D608189A785B0E0AC5EB94F5C919089952BE1
S1130D709C93482B02C0338722870280F381E02DA5
S1130D80789485858F33F9F640931306F89480910F
S1130D90210690912206A0912306B0912406019683
S1130DA0A11DB11D8093210690932206A0932306D2
S1130DB0B093240678940895FC01F89484858130D6
S1130DC021F0789480E090E008952081318121150C
S1130DD0310511F0118210827894822F932F089597
S1130DE0CF93DF93F894C0911C06D0911D062097F1
S1130DF031F02881398130931D0620931C067894A4
S1130E00209739F021E02C8799838883CE010E94B2
S1130E107705CE01DF91CF910895F894FC012485E4
S1130E20213019F0789481E00895FC01258522236E
S1130E3041F042E00E94D60478940E94C80580E004
S1130E400895FC0120813181232B19F0789484E1E9
S1130E500895FC0171836083789480E00895CF93B2
S1130E60DF93F894C0911C06D0911D06209731F0B1
S1130E702881398130931D0620931C06789420978D
S1130E8039F023E02C879B878A87CE010E9477055F
S1130E90CE01DF91CF9108950F931F93CF93DF93EA
S1130EA0EC018A01F8948C85833021F0789481E0F8
S1130EB0FA0180838A859B85009739F001979B8787
S1130EC08A877894F80110822DC080911E068823A9
S1130ED029F0789482E0F801808324C0E0911F0611
S1130EE0F091200684858160848773876287CE01B0
S1130EF00E94290578940E94C805F894E0911F0681
S1130F00F0912006848580FF08C0CE010E94580518
S1130F1078948AE0F801808305C017821682789459
S1130F20F8011082DF91CF911F910F910895BF9224
S1130F30CF92DF92EF92FF920F931F93CF93DF93A1
S1130F40B22E2FE32B1508F44FC0F894CB2DD0E02C
S1130F50FE01EE0FFF1FEE54F94F0190F081E02DDA
S1130F60EF2B09F03EC0FE01EE0FFF1FEE54F94FC8
S1130F7021E030E031832083789420E030E00E9447
S1130F808604C12CD12CE12CF12C00E010E020E0EF
S1130F9030E040E050E0BC018B2D0E943806811106
S1130FA017C0F894809110068F5F80931006CC0FC1
S1130FB0DD1FCE54D94F888199810E94D004789442
S1130FC08091FC05882391F00E94C80580E00FC041
S1130FD0F894CC0FDD1FCE54D94F1982188278941F
S1130FE006C0789488E203C08AE201C080E0DF9101
S1130FF0CF911F910F91FF90EF90DF90CF90BF9012
S1131000089510922106109222061092230610923F
S1131010240610921E061092FB05109210061092E0
S1131020FC051092FD051092FE051092FF0510922A
S113103000061092050610920606109207061092FA
S1131040080610921306E4E1F6E08CE196E01192B2
S1131050E817F907E1F710920206109201061092C0
S11310601206109211061092200610921F0610927A
S1131070040610920306E2EBF6E082E397E0119295
S11310801192E817F907D9F780E592E022EF32E0F0
S1131090FC01709791838083429682179307C1F76E
S11310A01092E3021092E2028EE392E090930E0615
S11310B080930D0683E396E021EB36E0FC013E9736
S11310C0918380830E9682179307C1F71092A4062A
S11310D01092A30685E296E090931D0680931C0669
S11310E02FE341E753E060E070E083ED94E00E9479
S11310F097072EE341E353E060E070E08AEC98E068
S11311000E94970708950097E1F0F894E0911F0674
S1131110F0912006A785B0E0AC5EB94F20892095F8
S11311203C9123232C93211107C0218920953091D0
S113113013062323209313069387828778940E94AF
S1131140C805089582E090E00E948308F894109204
S1131150FD051092FE051092FF051092000678948A
S113116088EC90E00E948308F8948091FD059091AA
S1131170FE05A091FF05B0910006809309069093A7
S11311800A06A0930B06B0930C0681E08093B10687
S1131190789408958091B106811108C080E991E0A6
S11311A00E9483088091B1068823C1F3C4E6F894B1
S11311B02091FD053091FE054091FF0550910006F8
S11311C02093320730933307409334075093350705
S11311D01092FD051092FE051092FF051092000674
S11311E07894C0900906D0900A06E0900B06F0901F
S11311F00C06C114D104E104F104B9F0A4E6B0E092
S11312000E94100BA70196010E94DF0A8C2F821BFB
S113121085361CF0C0930F060AC088231CF4109274
S11312200F0605C080930F0602C010920F060E949D
S1131230D10488EC90E00E948308B9CF5058BB27B2
S1131240AA270ED00BC1FCD030F001D120F031F42C
S11312509F3F11F41EF4F1C00EF4E095E7FBE7C0E4
S1131260E92F0DD180F3BA17620773078407950736
S113127018F071F49EF525C10EF4E0950B2EBA2FEB
S1131280A02D0B01B90190010C01CA01A001112488
S1131290FF27591B99F0593F50F4503E68F11A1634
S11312A0F040A22F232F342F4427585FF3CF4695C5
S11312B037952795A795F0405395C9F77EF41F16E7
S11312C0BA0B620B730B840BBAF09150A1F0FF0FB1
S11312D0BB1F661F771F881FC2F70EC0BA0F621F9D
S11312E0731F841F48F4879577956795B795F7958D
S11312F09E3F08F0B3CF9395880F08F09927EE0F1F
S11313009795879508950CD0A9C0A1D040F098D0A6
S113131030F021F45F3F19F08AC05111D3C08DC061
S1131320AED098F39923C9F35523B1F3951B550B0C
S1131330BB27AA2762177307840738F09F5F5F4FA4
S1131340220F331F441FAA1FA9F333D00E2E3AF0E5
S1131350E0E830D091505040E695001CCAF729D0FF
S1131360FE2F27D0660F771F881FBB1F261737074E
S11313704807AB07B0E809F0BB0B802DBF01FF277E
S113138093585F4F2AF09E3F510568F050C09AC0B1
S11313905F3FECF3983EDCF3869577956795B795B8
S11313A0F7959F5FC9F7880F911D9695879597F9D3
S11313B00895E1E0660F771F881FBB1F621773074C
S11313C08407BA0720F0621B730B840BBA0BEE1F61
S11313D088F7E09508955BD088F09F5790F0B92F77
S11313E09927B751A0F0D1F0660F771F881F991F76
S11313F01AF0BA95C9F712C0B13081F062D0B1E0E9
S113140008955FC0672F782F8827B85F39F0B93FF8
S1131410CCF3869577956795B395D9F73EF4909577
S11314208095709561957F4F8F4F9F4F089597F9E1
S11314309F6780E870E060E008959FEF80EC089576
S113144000240A941616170618060906089500249F
S11314500A9412161306140605060895092E039419
S1131460000C11F4882352F0BB0F40F4BF2B11F48D
S113147060FF04C06F5F7F4F8F4F9F4F089557FDEC
S11314809058440F551F59F05F3F71F04795880FEE
S113149097FB991F61F09F3F79F087950895121685
S11314A013061406551FF2CF4695F1DF08C0161631
S11314B017061806991FF1CF8695710561050894E2
S11314C00895E894BB2766277727CB0197F90895F9
S11314D00BD0C4CFB5DF28F0BADF18F0952309F09C
S11314E0A6CFABCF1124EECFCADFA0F3959FD1F3E3
S11314F0950F50E0551F629FF001729FBB27F00DBE
S1131500B11D639FAA27F00DB11DAA1F649F662712
S1131510B00DA11D661F829F2227B00DA11D621F61
S1131520739FB00DA11D621F839FA00D611D221F1B
S1131530749F3327A00D611D231F849F600D211DFF
S1131540822F762F6A2F11249F5750408AF0E1F0A2
S113155088234AF0EE0FFF1FBB1F661F771F881FEB
S113156091505040A9F79E3F510570F060CFAACF2B
S11315705F3FECF3983EDCF3869577956795B795D6
S1131580F795E7959F5FC1F7FE2B880F911D969500
S1131590879597F9089597FB072E16F4009407D0C2
S11315A077FD09D00E941B0B07FC05D03EF49095F3
S11315B081959F4F0895709561957F4F0895A1E29D
S11315C01A2EAA1BBB1BFD010DC0AA1FBB1FEE1FB9
S11315D0FF1FA217B307E407F50720F0A21BB30B04
S11315E0E40BF50B661F771F881F991F1A9469F780
S11315F060957095809590959B01AC01BD01CF01DC
S11316000895A29FB001B39FC001A39F700D811DD7
S11316101124911DB29F700D811D1124911D0895F7
S11316200E94010BA59F900DB49F900DA49F800D67
S1131630911D11240895AA1BBB1B51E107C0AA1FC9
S1131640BB1FA617B70710F0A61BB70B881F991F5F
S11316505A95A9F780959095BC01CD010895FB0199
S1131660DC0101900D920020E1F70895F894FFCF7A
S113167024242400552C33383430302C4E000D0AE9
S113168075434F53204F4E0D0A2D2D2D0D0A005B2F
S113169048695D0A0D005B4D65645D0A0D005B4E93
S11316A06F5D0A0D0000000100020001000300014B
S11316B00002000100040001000200010003000117
S11316C00002000100050001000200010003000106
S11316D000020001000400010002000100030001F7
S11316E000020001000600010002000100030001E5
S11316F000020001000400010002000100030001D7
S113170000020001000500010002000100030001C5
S113171000020001000400010002000100030001B6
S113172000020001000700010002000100030001A3
S11317300002000100040001000200010003000196
S11317400002000100050001000200010003000185
S11317500002000100040001000200010003000176
S11317600002000100060001000200010003000164
S11317700002000100040001000200010003000156
S11317800002000100050001000200010003000145
S11317900002000100040001000200010003000136
S11117A0000200010001020408102040800035
S9030000FC
