S01300004C6162325F53657269616C2E7372656311
S11300000C94B4000C94D1000C94D1000C94D10045
S11300100C94D1000C94D1000C94D1000C94D10018
S11300200C94D1000C94D1000C94D1000C94D10008
S11300300C94D1000C94D1000C94D1000C94D100F8
S11300400C9493010C94D1000C94D1000C94D10025
S11300500C94F2010C94D1000C94D1000C94D100B6
S11300600C94D1000C94D100FF38283718FF2734A2
S11300700839FFFF17FF240D78FF2936FFFFFF35EE
S113008007FFFFFF14137D126869FFFF196A26FF3B
S1130090FF3AFFFFFFFF250E7776FFFFFF6BFFFFA1
S11300A004FF03FF6D6C020158FF59FFFFFFFF338C
S11300B0090A5AFF160BFF0CFFFF2A2BFFFFFFFF55
S11300C0FFFFFFFF15FF7E7F67FF66FFFFFFFFFF58
S11300D0FFFF5BFFFFFFFFFF7475FFFF73FFFFFF71
S11300E05D5E5CFF725F71004847FF4449FFFF1D7E
S11300F0FF46FF45FFFF232279FF7AFF4AFFFF1ED9
S113010006FF7BFFFFFF7C11FFFFFF431AFF1B1C51
S1130110FF3BFFFFFFFFFF0FFFFFFFFFFFFFFFFF9F
S113012005FFFFFF6EFF6F105754FF2D5655FF322A
S1130130FFFFFF2EFFFFFF21FF53FF2C4BFFFF1F8D
S1130140FFFFFFFFFFFFFF20643D6542FF3EFF31DD
S1130150633CFF2FFFFFFF304D524E414C3FFF40A9
S113016062514F50616070FF11241FBECFEFD8E081
S1130170DEBFCDBF12E0A0E0B1E0E2E1FCE102C0ED
S113018005900D92AE35B107D9F727E0AEE5B2E0A0
S113019001C01D92A93DB207E1F70E94F1060C943B
S11301A0070E0C94000000919F06039500939F0690
S11301B0E091B406F091B506C191CDBFD191DEBFF7
S11301C00F910FBFFF91EF91DF91CF91BF91AF914D
S11301D09F918F917F916F915F914F913F912F915B
S11301E01F910F91FF90EF90DF90CF90BF90AF9051
S11301F09F908F907F906F905F904F903F902F9043
S11302001F900F9008950F921F922F923F924F923A
S11302105F926F927F928F929F92AF92BF92CF9292
S1130220DF92EF92FF920F931F932F933F934F937D
S11302305F936F937F938F939F93AF93BF93CF936A
S1130240DF93EF93FF930FB70F93E091C206F09102
S1130250C306CDB7C193DEB7D1930091A406009332
S1130260A506E091B406F091B506E093C206F093BA
S1130270C306C191CDBFD191DEBF0F910FBFFF91D6
S1130280EF91DF91CF91BF91AF919F918F917F912A
S11302906F915F914F913F912F911F910F91FF901B
S11302A0EF90DF90CF90BF90AF909F908F907F9012
S11302B06F905F904F903F902F901F900F900895F4
S11302C00091A4060093A506E091B406F091B5064A
S11302D0E093C206F093C306C191CDBFD191DEBFB6
S11302E00F910FBFFF91EF91DF91CF91BF91AF912C
S11302F09F918F917F916F915F914F913F912F913A
S11303001F910F91FF90EF90DF90CF90BF90AF902F
S11303109F908F907F906F905F904F903F902F9021
S11303201F900F9008950F921F922F923F924F9219
S11303305F926F927F928F929F92AF92BF92CF9271
S1130340DF92EF92FF920F931F932F933F934F935C
S11303505F936F937F938F939F93AF93BF93CF9349
S1130360DF93EF93FF930FB700680F930091C106DB
S113037003950093C106013041F4CDB7DEB7E09197
S1130380C206F091C306C193D1930DEE06BD7894D5
S11303900E94670900000E9451080F910FBFFF914E
S11303A0EF91DF91CF91BF91AF919F918F917F9109
S11303B06F915F914F913F912F911F910F91FF90FA
S11303C0EF90DF90CF90BF90AF909F908F907F90F1
S11303D06F905F904F903F902F901F900F900895D3
S11303E0A895089508950E94730BECEDF4E0ACE138
S11303F0B4E08CE195E0119211921D921D92E817E0
S1130400F907C9F72AE04DE156E060E070E080EBBF
S113041095E00E94680A24E14DE955E060E070E04F
S11304208FE496E00E94680A80E991E00E94540BF0
S113043061E071E080911A0490911B040E94DE092E
S113044080E991E00E94540B66E271E080911A0405
S113045090911B040E94DE092FE049E154E060E022
S113046070E08BE492E00E94680A2BE04BED54E0CC
S113047060E070E080E393E00E94680A1092A806AE
S11304801092A9061092AA061092AB0688EC90E08E
S11304900E94540BF3CFCF93DF93CDB7DEB7A3976E
S11304A00FB6F894DEBF0FBECDBF8DE089838A837B
S11304B08DE48B8385E48C8381E48D8383E58E8353
S11304C083E28F838AE38A8780E28B878C878D8798
S11304D08E876894AA24A5F80F2EFFED9F2EF02D89
S11304E00F2EFAE0EF2EF12CF02D0F2EFDECBF2E87
S11304F0F02D712C812C0F2EF9E1CF2EDD24D39415
S1130500F02D80910001811105C084E690E00E94E5
S1130510540BF7CFA886A986AF86A88AA98A9A8A97
S11305201B8A86B1E9B1E07F8F70E82BF0E0E859CF
S1130530FF4FE491EF3FA9F0EC9D9001ED9D300D4C
S113054011243695279536952795ABE7B4E10E949B
S1130550D20D8C011695079510935F0200935E02ED
S113056002C0072D182DC8012BE0EBE4F1E0DE01F9
S1130570599601900D922A95E1F79E01215F3F4F14
S11305802F5F3F4FB7010E949C0DCB010097C1F72D
S1130590F9019801ADECBCEC0E94D20D96958795BB
S11305A096958795969587959C01220F331F880F02
S11305B0991F880F991F880F991F820F931FD801C5
S11305C0A81BB90B89E190E08C0F9D1FA80FB91FE0
S11305D08C9182939801ADECBCEC0E94D20D8C01FD
S11305E01695079516950795169507950115110506
S11305F081F6409160024F5F842F90E09E01285F56
S11306003F4F2F5F3F4FB7010E949C0DCB010097D6
S1130610C1F7F9014B9D812D112486958695869508
S1130620982F990F292F220F220F920F491BA9E10E
S1130630B0E0AC0FBD1FA40FB11D9C919293482F45
S11306408111E8CFBE016F5F7F4F80911A049091B2
S11306501B040E94DE0984E690E00E94540B51CFF3
S1130660CF93DF93CDB7DEB7EB970FB6F894DEBF29
S11306700FBECDBF8BE0EBE4F1E0DE0111960190FB
S11306800D928A95E1F78DE08C878AE08D8721E4CD
S11306902E8783E48F8784E5888B9AE3998B80E2A5
S11306A08D8B30E53E8B2F8B23E5288F998F8D8F93
S11306B01E8E84E190E00E94540B0F2EFAE0AF2EC0
S11306C0F02DB12C6A2C5B2C88E290E00E94540B34
S11306D080E28A8B8B8B8C8B8A8F8B8F8C8F13B160
S11306E01770123061F4809160028F3180F58F5F52
S11306F08093600288E290E00E94540B28C011307D
S113070061F4809160028823B1F18150809360028A
S113071088E290E00E94540B2EC01430C1F4209162
S1130720600230E080915E0290915F02220F331FDD
S1130730F901E452FB4F91838083F901E45EFB4F9E
S11307409183808388E290E00E94540B28C0163085
S113075091F4E0916002F0E0EE0FFF1FE452FB4FD2
S113076080915E0290915F029183808388E290E0A1
S11307700E94540B24C0153091F4E0916002F0E023
S1130780EE0FFF1FE45EFB4F80915E0290915F02CB
S11307909183808388E290E00E94540B46C1133019
S11307A071F4ECEDF4E0ACE1B4E08CE195E011928D
S11307B011921D921D92E817F907C9F736C1173037
S11307C009F033C11092000188EC90E00E94540BB0
S11307D083E58CA38DA38EA38AE08FA318A6BE0104
S11307E06C5D7F4F80911A0490911B040E94DE0976
S11307F088EC90E00E94540B0F2EFCE1CF2EF4E025
S1130800DF2EF02D0F2EFCEDEF2EF4E0FF2EF02D59
S113081000E010E06894992495F80F2EFFE58F2EE0
S1130820F02D0F2EFAE07F2EF02D9CA29DA28EA219
S11308309FA298A699A68AA69BA69CA69DA67EA6DC
S11308401FA6C801F8019E012C5D3F4F2F5F3F4F4B
S11308506A2D7B2D0E949C0DCB010097B9F7A9014D
S11308609F01ADECBCEC0E94D20D969587959695B0
S11308708795969587959C01220F331F880F991FA2
S1130880880F991F880F991F820F931FDF01A81BE0
S1130890B90B81E090E08C0F9D1FA80FB91F8C91BC
S11308A0DA018E93AD019F01ADECBCEC0E94D20D38
S11308B0FC01F695E795F695E795F695E79530975B
S11308C079F6D701ED91FD917D01CF019E01295D5E
S11308D03F4F2F5F3F4F6A2D7B2D0E949C0DCB0114
S11308E00097B9F7A9019F01ADECBCEC0E94D20DB1
S11308F09695879596958795969587959C01220F51
S1130900331F880F991F880F991F880F991F820F13
S1130910931FDF01A81BB90B81E090E08C0F9D1F92
S1130920A80FB91F8C91DA018E93AD019F01ADEC34
S1130930BCEC0E94D20DFC01F695E795F695E7957F
S1130940F695E795309779F6D601ED91FD916D0115
S1130950CF019E01255D3F4F2F5F3F4F6A2D7B2DB9
S11309600E949C0DCB010097B9F7A9019F01ADEC42
S1130970BCEC0E94D20D9695879596958795969591
S113098087959C01220F331F880F991F880F991F89
S1130990880F991F820F931FDF01A81BB90B81E0F9
S11309A090E08C0F9D1FA80FB91F8C91DA018E93D4
S11309B0AD019F01ADECBCEC0E94D20DFC01F6959B
S11309C0E795F695E795F695E795309779F6BE01A4
S11309D06C5D7F4F80911A0490911B040E94DE0984
S11309E0862D952D0E94540B0F5F1F4F0032110569
S11309F009F01BCF88EC90E00E94540B85E48CA393
S1130A008DA38EA38AE08FA318A6BE016C5D7F4FD1
S1130A1080911A0490911B040E94DE0988EC90E0F6
S1130A200E94540B81E0809300010091600210E069
S1130A30F801EE0FFF1FE452FB4F0190F081E02D0F
S1130A40CF019E012E5E3F4F2F5F3F4F6A2D7B2DBE
S1130A500E949C0DCB010097B9F7A9019F01ADEC51
S1130A60BCEC0E94D20D96958795969587959695A0
S1130A7087959C01220F331F880F991F880F991F98
S1130A80880F991F820F931FDF01A81BB90B81E008
S1130A9090E08C0F9D1FA80FB91F8C91DA018E93E3
S1130AA0AD019F01ADECBCEC0E94D20DFC01F695AA
S1130AB0E795F695E795F695E795309779F6F80179
S1130AC0EE0FFF1FE45EFB4F0190F081E02DCF019C
S1130AD09E01265E3F4F2F5F3F4F6A2D7B2D0E9464
S1130AE09C0DCB010097B9F7A9019F01ADECBCECBB
S1130AF00E94D20D9695879596958795969587959C
S1130B009C01220F331F880F991F880F991F880F8C
S1130B10991F820F931FDF01A81BB90B81E090E09E
S1130B208C0F9D1FA80FB91F8C91DA018E93AD0114
S1130B309F01ADECBCEC0E94D20DFC01F695E7954B
S1130B40F695E795F695E795309779F6BE01645FDB
S1130B507F4F80911A0490911B040E94DE09B4CD4A
S1130B6000E010E0D0E0CFE30F2EFAE98F2EF02D55
S1130B700F2EF9E99F2EF02D0F2EF9E1AF2EF02D57
S1130B806894BB24B6F8412C512C612C0F2EFFE342
S1130B907F2EF02D0F2EFDEC2F2EF02D0F2EFCECC2
S1130BA03F2EF02D0DC00DEC1CECDCECCDE3812CC4
S1130BB0912C6894AA24A7F80F2EFFE3BF2EF02DE2
S1130BC02D9A282D392D4A2D5B2D60E070E080E8A8
S1130BD09FE30E94540C6B017C01202F312F4D2F79
S1130BE05C2F0E94390D20E030E048E453E40E9479
S1130BF0390D0E94BC0CCB010E94540B2D98202F60
S1130C00312F4D2F5C2F60E070E080E89FE30E945D
S1130C10EF0B9B01AC01C701B6010E94390D20E026
S1130C2030E048E453E40E94390D0E94BC0CCB012F
S1130C300E94540B80919603909197030E94AD09F2
S1130C40009709F4BDCFFC0180818130C9F008F41C
S1130C50AACF823009F0B4CF042D152DD62DC72D7F
S1130C600F2EFAE98F2EF02D0F2EF9E99F2EF02D7D
S1130C700F2EF9E1AF2EF02D6894BB24B6F8A0CF67
S1130C80042D152DD62DC72D822C932C0F2EFCEC64
S1130C90AF2EF02D0F2EFEE3BF2EF02D91CFCF936C
S1130CA0DF93CDB7DEB769970FB6F894DEBF0FBEFA
S1130CB0CDBF0F2EF1ECCF2ED12CF02D612C712C49
S1130CC00F2EFEEFAF2EF02D6894882487F80F2E98
S1130CD0F0EC9F2EF02D0F2EF6ECEF2EF12CF02DD4
S1130CE085E090E00E94540B80911A0490911B04BB
S1130CF00E94AD09009709F46FC0BC01CE010296B1
S1130D000E94000EF6018081866080838A81882398
S1130D1009F462C0062D172DB12C8D30C9F4C80119
S1130D200196E2E0F0E0EC0FFD1FE80FF91F2081CF
S1130D302D3071F4E2E0F0E0EC0FFD1FE00FF11F45
S1130D40A082E2E0F0E0EC0FFD1FE80FF91F8082C3
S1130D50E2E0F0E0EC0FFD1FE00FF11F80818D3029
S1130D60C9F4C8010196E2E0F0E0EC0FFD1FE80FC2
S1130D70F91F20812A3071F4E2E0F0E0EC0FFD1F4E
S1130D80E00FF11FA082E2E0F0E0EC0FFD1FE80F9E
S1130D90F91F9082AE014F5F5F4F61E070E0809178
S1130DA01C0590911D050E941D0A2C9AE2E0F0E0BA
S1130DB0EC0FFD1FE00FF11F8081F70180832C9859
S1130DC0B3940B2D10E0E2E0F0E0EC0FFD1FE00F18
S1130DD0F11F80818111A1CFF6018081897F8083F9
S1130DE07FCF0E941B070E94D20A0E944B0780E01B
S1130DF090E00E94C109909397038093960380E04A
S1130E0090E00E94C10990931B0480931A0481E02E
S1130E1090E00E94000A90931D0580931C0520E039
S1130E204DE956E060E070E083EF91E00E94680ACB
S1130E300E94DC08FFCFF8940E94F00184B7877FFA
S1130E4084BFE0E6F0E080818861808310822D9881
S1130E502C98259A249A87B1807F87B98AB18F709C
S1130E608AB9209A219A229A83E084BD8DE085BDB7
S1130E7082E187BDEEE6F0E0808181608083E4E674
S1130E80F0E080818F7D8083E1ECF0E08081897FD8
S1130E908083789408951092C50087E68093C400F7
S1130EA088E18093C1008EE08093C2000895FA0126
S1130EB080833197908331971082319710823197D4
S1130EC010823197108231971082319710823197B6
S1130ED010823197108231971082319710823197A6
S1130EE01082319710823197108231971082319796
S1130EF01082319710823197108231971082319786
S1130F001082319710823197108231971082319775
S1130F1010823197108231976083319770833197B3
S1130F201082319710823197108231971082319755
S1130F30108231971082319780E88083CA018397A9
S1130F400895089508950895F8947894FDCF0F9323
S1130F501F93CF93DF93FC010585E02FF0E0EA5A5D
S1130F60FE4F1081212F30E0D901AA5ABD4FDC91E8
S1130F70FC01E20FF31F5281A52FB0E0AA5ABE4F25
S1130F80CC91AC2FB0E0AA5ABD4FAC91110F110F08
S1130F90110FC10FBA2FB0955B235283511105C0B5
S1130FA05D2F50950523FC010587EC2FF0E0EE0F33
S1130FB0FF1FEB5AF84F0190F081E02D1386128643
S1130FC017821682718760874095848548234487F9
S1130FD041110BC08091B606D82BD093B606F90107
S1130FE0E954F94F8081A82BA083DF91CF911F9101
S1130FF00F910895CF93DF93E091C206F091C30659
S113100097838683A785B0E02089ED01C954D94F21
S1131010422F4095388134233883311107C03189F8
S113102030954091B60634233093B606A80FB91F05
S113103012963C911297232B12962C93DC011D9649
S11310403C911D972189232B1D962C93DF91CF91E1
S11310500895E091C206F091C3062785DC01A20F32
S1131060B11D2089209512963C9112972323129644
S11310702C93211109C021892095DC011D963C91F6
S11310801D9723231D962C93148617821682089588
S1131090FC011586329680E011928F5F8830E1F76B
S11310A00895F8948091C10681508093C10690916F
S11310B09E06892BE1F5E091B606F0E0EA5AFE4F70
S11310C0808180939503E82FF0E0E954F94FE081A3
S11310D0F0E0EA5AFE4F880F880F880F9081890F3D
S11310E08093A4069091A506891709F1E82FF0E0F2
S11310F0EE0FFF1FEB5AF84F808191819093B50654
S11311008093B4068091A8069091A906A091AA069E
S1131110B091AB060196A11DB11D8093A8069093D2
S1131120A906A093AA06B093AB060E946001789426
S11311300895F8949091C10680919E06892BD1F56B
S1131140E091B606F0E0EA5AFE4F8081E82FF0E025
S1131150E954F94FE081F0E0EA5AFE4F880F880F16
S1131160880F9081E82FE90FE093A4068091A506EB
S1131170E81701F1F0E0EE0FFF1FEB5AF84F808102
S113118091819093B5068093B4068091A8069091BE
S1131190A906A091AA06B091AB060196A11DB11DA6
S11311A08093A8069093A906A093AA06B093AB06D1
S11311B00E9403017894089580919F06811126C0AE
S11311C0E091B606F0E0EA5AFE4FE081AE2FB0E0BF
S11311D0A954B94FAC91B0E0AA5ABE4FEE0FEE0F2E
S11311E0EE0F8C91E80FE093A406E093A506F0E0DF
S11311F0EE0FFF1FEB5AF84F808191819093B50653
S11312008093B4069093C3068093C2060E94D300D1
S11312100895CF93DF93F894E091B006F091B1066E
S1131220309709F44FC0228133813093B106209363
S1131230B00678947183608385871486138612863A
S1131240C82FC695C695C695C787D0E0CA5ADD4F44
S11312509881918BC82FC770C687D0E0CA5ADD4FDA
S11312609881908B1782168211861086F894A82F85
S1131270B0E0AA0FBB1FAB5AB84FED93FC93A091FB
S1131280A606B091A706B383A28315821482109791
S113129021F01596FC93EE931497F093A706E09330
S11312A0A6069091B6068189892B8093B606A785F8
S11312B0B0E0A954B94F9C918089892B8C93789480
S11312C080E002C0789486E4DF91CF9108950E9473
S11312D0A307E091A606F091A70685858F3339F11F
S11312E04091B60621E030E0F8948285938500971A
S11312F0A9F0019793878287892B81F4848583FDE4
S11313000BC08189A785B0E0A954B94F5C9190893D
S1131310952B9C93482B02C0338722870280F3814C
S1131320E02D789485858F33F9F64093B606F894CA
S11313308091C4069091C506A091C606B091C706D7
S11313400196A11DB11D8093C4069093C506A09378
S1131350C606B093C70678940895FC01F894848572
S1131360813021F0789480E090E0089520813181EB
S11313702115310511F0118210827894822F932F58
S11313800895CF93DF93F894C091BF06D091C0061F
S1131390209731F0288139813093C0062093BF060D
S11313A07894209739F021E02C8799838883CE01A3
S11313B00E944808CE01DF91CF910895F894FC0172
S11313C02485213019F0789481E00895FC01258565
S11313D0222341F042E00E94A70778940E949908D2
S11313E080E00895FC0120813181232B19F0789449
S11313F084E10895FC0171836083789480E008950A
S1131400CF93DF93F894C091BF06D091C006209784
S113141031F0288139813093C0062093BF06789437
S1131420209739F023E02C879B878A87CE010E947E
S11314304808CE01DF91CF9108950F931F93CF9366
S1131440DF93EC018A01F8948C85833021F0789441
S113145081E0FA0180838A859B85009739F00197A2
S11314609B878A877894F80110822DC08091C106E9
S1131470882329F0789482E0F801808324C0E091E5
S1131480C206F091C306848581608487738762876E
S1131490CE010E94FA0778940E949908F894E0918A
S11314A0C206F091C306848580FF08C0CE010E9465
S11314B0290878948AE0F801808305C0178216828F
S11314C07894F8011082DF91CF911F910F910895C4
S11314D0BF92CF92DF92EF92FF920F931F93CF931D
S11314E0DF93B22E2FE32B1508F44FC0F894CB2DC5
S11314F0D0E0FE01EE0FFF1FEB5AF84F0190F08190
S1131500E02DEF2B09F03EC0FE01EE0FFF1FEB5A5A
S1131510F84F21E030E031832083789420E030E0FC
S11315200E945707C12CD12CE12CF12C00E010E0D3
S113153020E030E040E050E0BC018B2D0E9409091E
S1131540811117C0F8948091B3068F5F8093B3061E
S1131550CC0FDD1FCB5AD84F888199810E94A107F7
S1131560789480919F06882391F00E94990880E0E6
S11315700FC0F894CC0FDD1FCB5AD84F19821882B4
S1131580789406C0789488E203C08AE201C080E0BF
S1131590DF91CF911F910F91FF90EF90DF90CF904B
S11315A0BF9008951092C4061092C5061092C60604
S11315B01092C7061092C10610929E061092B306AE
S11315C010929F061092A0061092A1061092A206F5
S11315D01092A3061092A8061092A9061092AA06C9
S11315E01092AB061092B606E7EBF6E08FEB96E0AE
S11315F01192E817F907E1F71092A5061092A406D4
S11316001092B5061092B4061092C3061092C20648
S11316101092A7061092A606E5E5F7E085ED97E09F
S113162011921192E817F907D9F783E792E025E1BF
S113163033E0FC017097918380834296821793076D
S1131640C1F7109206031092050381E692E090938D
S1131650B1068093B00686ED96E024E537E0FC0100
S11316603E97918380830E9682179307C1F7109259
S113167047071092460788EC96E09093C006809343
S1131680BF062FE344E953E060E070E084EA97E0AA
S11316900E94680A2EE344E553E060E070E08BE9C1
S11316A09BE00E94680A08950097E1F0F894E091A5
S11316B0C206F091C306A785B0E0A954B94F2089AA
S11316C020953C9123232C93211107C02189209537
S11316D03091B60623232093B606938782877894A5
S11316E00E949908089582E090E00E94540BF894B7
S11316F01092A0061092A1061092A2061092A306C0
S1131700789488EC90E00E94540BF8948091A006A1
S11317109091A106A091A206B091A3068093AC0675
S11317209093AD06A093AE06B093AF0681E080938C
S113173054077894089580915407811108C080E972
S113174091E00E94540B809154078823C1F3C4E6AE
S1131750F8942091A0063091A1064091A2065091E0
S1131760A3062093D5073093D6074093D707509309
S1131770D8071092A0061092A1061092A206109209
S1131780A3067894C090AC06D090AD06E090AE0667
S1131790F090AF06C114D104E104F104B9F0A4E659
S11317A0B0E00E94E10DA70196010E94B00D8C2FBC
S11317B0821B85361CF0C093B2060AC088231CF431
S11317C01092B20605C08093B20602C01092B2060F
S11317D00E94A20788EC90E00E94540BB9CF5058A5
S11317E0BB27AA270ED00BC1FCD030F001D120F0CA
S11317F031F49F3F11F41EF4F1C00EF4E095E7FBC1
S1131800E7C0E92F0DD180F3BA1762077307840785
S1131810950718F071F49EF525C10EF4E0950B2E92
S1131820BA2FA02D0B01B90190010C01CA01A0012E
S11318301124FF27591B99F0593F50F4503E68F189
S11318401A16F040A22F232F342F4427585FF3CFCA
S1131850469537952795A795F0405395C9F77EF49B
S11318601F16BA0B620B730B840BBAF09150A1F0E4
S1131870FF0FBB1F661F771F881FC2F70EC0BA0F6A
S1131880621F731F841F48F4879577956795B795F2
S1131890F7959E3F08F0B3CF9395880F08F09927EA
S11318A0EE0F9795879508950CD0A9C0A1D040F06C
S11318B098D030F021F45F3F19F08AC05111D3C0A1
S11318C08DC0AED098F39923C9F35523B1F3951B7A
S11318D0550BBB27AA2762177307840738F09F5F4D
S11318E05F4F220F331F441FAA1FA9F333D00E2EBC
S11318F03AF0E0E830D091505040E695001CCAF729
S113190029D0FE2F27D0660F771F881FBB1F2617ED
S113191037074807AB07B0E809F0BB0B802DBF01C0
S1131920FF2793585F4F2AF09E3F510568F050C03F
S11319309AC05F3FECF3983EDCF386957795679504
S1131940B795F7959F5FC9F7880F911D9695879571
S113195097F90895E1E0660F771F881FBB1F621790
S113196073078407BA0720F0621B730B840BBA0B4E
S1131970EE1F88F7E09508955BD088F09F5790F0AC
S1131980B92F9927B751A0F0D1F0660F771F881FA0
S1131990991F1AF0BA95C9F712C0B13081F062D01C
S11319A0B1E008955FC0672F782F8827B85F39F0BA
S11319B0B93FCCF3869577956795B395D9F73EF4FF
S11319C090958095709561957F4F8F4F9F4F0895A7
S11319D097F99F6780E870E060E008959FEF80ECDE
S11319E0089500240A941616170618060906089581
S11319F000240A9412161306140605060895092EE7
S1131A000394000C11F4882352F0BB0F40F4BF2B55
S1131A1011F460FF04C06F5F7F4F8F4F9F4F089595
S1131A2057FD9058440F551F59F05F3F71F047958B
S1131A30880F97FB991F61F09F3F79F08795089570
S1131A40121613061406551FF2CF4695F1DF08C08F
S1131A50161617061806991FF1CF869571056105AC
S1131A6008940895E894BB2766277727CB0197F954
S1131A7008950BD0C4CFB5DF28F0BADF18F0952352
S1131A8009F0A6CFABCF1124EECFCADFA0F3959F08
S1131A90D1F3950F50E0551F629FF001729FBB2751
S1131AA0F00DB11D639FAA27F00DB11DAA1F649FFD
S1131AB06627B00DA11D661F829F2227B00DA11DB0
S1131AC0621F739FB00DA11D621F839FA00D611D36
S1131AD0221F749F3327A00D611D231F849F600D57
S1131AE0211D822F762F6A2F11249F5750408AF090
S1131AF0E1F088234AF0EE0FFF1FBB1F661F771F1C
S1131B00881F91505040A9F79E3F510570F060CF57
S1131B10AACF5F3FECF3983EDCF386957795679503
S1131B20B795F795E7959F5FC1F7FE2B880F911D39
S1131B309695879597F9089597FB072E16F40094C8
S1131B4007D077FD09D00E94EC0D07FC05D03EF4C8
S1131B50909581959F4F0895709561957F4F089555
S1131B60A1E21A2EAA1BBB1BFD010DC0AA1FBB1F9D
S1131B70EE1FFF1FA217B307E407F50720F0A21B0F
S1131B80B30BE40BF50B661F771F881F991F1A947C
S1131B9069F760957095809590959B01AC01BD01A6
S1131BA0CF010895A29FB001B39FC001A39F700D00
S1131BB0811D1124911DB29F700D811D1124911D51
S1131BC008950E94D20DA59F900DB49F900DA49FDF
S1131BD0800D911D11240895AA1BBB1B51E107C060
S1131BE0AA1FBB1FA617B70710F0A61BB70B881FA9
S1131BF0991F5A95A9F780959095BC01CD01089538
S1131C00FB01DC0101900D920020E1F70895F894A6
S1051C10FFCF00
S1131C12010D0D4175746F476F6E69204F4E202080
S1131C222020200D0A28632920323031362020203A
S1131C322020202020000D0D2020202020202020E4
S1131C4220202020202020200D0A202020202020B7
S1131C522020202020202020202000303132333444
S1131C623536373839000000010002000100030054
S1131C72010002000100040001000200010003004F
S1131C82010002000100050001000200010003003E
S1131C92010002000100040001000200010003002F
S1131CA2010002000100060001000200010003001D
S1131CB2010002000100040001000200010003000F
S1131CC201000200010005000100020001000300FE
S1131CD201000200010004000100020001000300EF
S1131CE201000200010007000100020001000300DC
S1131CF201000200010004000100020001000300CF
S1131D0201000200010005000100020001000300BD
S1131D1201000200010004000100020001000300AE
S1131D22010002000100060001000200010003009C
S1131D32010002000100040001000200010003008E
S1131D42010002000100050001000200010003007D
S1131D52010002000100040001000200010003006E
S1111D6201000200010001020408102040806C
S9030000FC
